:020000040800F2
:10000000E80B0020A1010008AF2E00082B270008F4
:10001000AD2E0008AD08000899340008000000006B
:10002000000000000000000000000000352F000864
:10003000BD0B000800000000332F0008372F000818
:10004000BB010008BB010008BB010008BB010008A0
:10005000BB010008BB010008BB010008BB01000890
:10006000BB010008BB010008BB010008BB01000880
:10007000BB010008BB010008BB010008BB01000870
:10008000BB010008BB010008BB010008BB01000860
:10009000B1080008BB010008BB010008BB01000853
:1000A000BB010008BB010008BB010008BB01000840
:1000B000BB010008BB010008ED2F0008BB010008D0
:1000C000BB010008BB010008BB010008BB01000820
:1000D000BB010008BB010008BB010008BB01000810
:1000E000BB010008BB010008BB010008BB01000800
:1000F000BB010008BB010008BB010008BB010008F0
:10010000BB010008BB010008F92F0008BB01000873
:10011000BB010008BB010008BB010008BB010008CF
:10012000BB0100080D0B0008BB010008BB01000863
:10013000BB010008BB010008BB010008BB010008AF
:10014000BB010008BB010008BB010008BB0100089F
:10015000BB010008BB010008BB0100088D3400088A
:10016000BB010008BB010008BB010008BB0100087F
:10017000BB010008BB010008BB0100080000000033
:10018000BB010008BB010008DFF810D000F07CFBC9
:1001900000480047D9430008AFF30080E80B002077
:1001A0000648804706480047FEE7FEE7FEE7FEE711
:1001B000FEE7FEE7FEE7FEE7FEE7FEE7D12F0008D9
:1001C000890100082DE9F05F0546002092469B4614
:1001D00088460646814640241BE02846414647465D
:1001E000224600F01BFA53465A46C01A914110D3DA
:1001F00011461846224600F002FA2D1A67EB010854
:100200004F4622460120002100F0F9F917EB0009C2
:100210004E41201EA4F10104DFDC484631462A4647
:100220004346BDE8F09F40EA01039B0703D009E085
:1002300008C9121F08C0042AFAD203E011F8013BD2
:1002400000F8013B521EF9D27047D2B201E000F82B
:10025000012B491EFBD270470022F6E710B513466A
:100260000A4604461946FFF7F0FF204610BD2DE967
:10027000FE4F804681EA0300C00F0C46009021F03B
:10028000004123F00045B8EB0200A94105D24046E9
:10029000214690461C460B46024623F00040104380
:1002A00047D0270DC7F30A00C3F30A510290401A42
:1002B000019040286BDAC3F3130040F4801B0098D0
:1002C000924620B10023D2EB030A63EB0B0B01989B
:1002D0005946C0F14002504600F091F906460D46DD
:1002E00050465946019A00F0A9F910EB0800614107
:1002F000002487EA115284EAE7731A4340D0009A37
:1003000062B3019A012A4FEA075215DC001B61EB28
:1003100002014FF0004202EA0752CDE90042001C00
:1003200041F5801132462B4600F0E0F903B0BDE8FC
:10033000F08F40462146F9E7001B61EB0201001CEB
:1003400041F5801300185B412018A2F5001747EB18
:10035000030140EAD570B6196D4111E06D084FEA0E
:10036000360645EAC0754FEA0752001B61EB0201F1
:10037000001C41F5801149084FEA30000019514135
:1003800032462B4603B0BDE8F04F00F0A0B900980C
:10039000012240000023D0EB020263EBE0730098DF
:1003A00021464FEAE074B8EB000061EB0401E9E795
:1003B00083F000435BE781F0004158E72DE9FE4FF1
:1003C00081EA030404F0004421F0004100944FF05E
:1003D000000B23F0004350EA01045ED052EA03040C
:1003E0005BD0C3F30A54C1F30A552C44A4F2F3348E
:1003F0000194A0FB0254C1F3130141F48011C3F333
:10040000130343F4801301FB024400FB034E840AF0
:10041000970A44EA815447EA8357A4FB0768029588
:100420008D0A05FB07854FEA932C04FB0C54270526
:10043000029D4FEA065847EA1637B5EB08056EEB02
:10044000070C870E920E47EA811742EA8312A7FB38
:100450000201B6EB0B0164EB00042B0D43EA0C33F5
:100460005E1844EB1C50DA465146E7FB0201C5F327
:1004700013044FEA0B3343EA14534FEA0432019C4E
:1004800043EA0603A4F10C040294009CCDE900B4F5
:1004900000F02CF903B0BDE8F08F00200146F9E729
:1004A0002DE9F04D81EA030404F0004B21F00045F2
:1004B00014464FF0000A23F0004150EA050220D014
:1004C00054EA01021DD0C5F30A570246C5F31303CF
:1004D000C1F31300C1F30A5640F4801543F48013AE
:1004E000A7EB0608101BD64608F2FD3873EB050093
:1004F00002D308F1010801E092185B41B8F1000F46
:1005000003DA00200146BDE8F08D00204FF4801191
:10051000064684460EE0171B73EB050705D3121B36
:1005200063EB050306434CEA010C49084FEA30002F
:1005300092185B4150EA0107EDD152EA030012D054
:1005400082EA040083EA0501084305D0101BAB4191
:1005500006D20122002306E000224FF0004302E011
:100560006FF0010253101AEB06004CEB085110EB30
:100570000A0041EB0B01BDE8F04D00F0A8B80EB544
:10058000C10F80EAE0700844CA07002140F23343FB
:100590008DE80E000A460B4600F0A8F803B000BD37
:1005A00000F0004230F000400AD0C10D01F560714A
:1005B000C0F3160042EA0151C208400711437047D8
:1005C00000200146704701F0004330B421F00041A3
:1005D00050EA010206D00A0DA2F56072C1F31301C0
:1005E000002A02DC30BC00207047440F44EAC104FA
:1005F000C100E01830BC00EBC25000F031B8202A36
:1006000004DB203A00FA02F1002070479140C2F169
:10061000200320FA03F3194390407047202A04DB9B
:10062000203A21FA02F00021704721FA02F3D0406B
:10063000C2F120029140084319467047202A06DB88
:10064000CB17203A41FA02F043EAE07306E041FAA0
:1006500002F3D040C2F1200291400843194670478E
:100660000029A8BF7047401C490008BF20F00100C6
:10067000704710B4B0FA80FC00FA0CF050EA0104A4
:1006800004BF10BC704749B1CCF1200421FA04F436
:1006900011FA0CF118BF012121430843A3EB0C010F
:1006A000CB1D4FEA00614FEA102042BF002010BC72
:1006B000704700EBC35010440029A4BF10BC704722
:1006C000401C490008BF20F0010010BC704710B565
:1006D000141E73F1000408DA401C41F10001921865
:1006E0005B411A4301D120F0010010BD2DE9F04D0E
:1006F00092469B4611B1B1FA81F202E0B0FA80F263
:1007000020329046FFF77BFF04460F4640EA0A007E
:1007100041EA0B0153465A46084313D0114653EAA7
:10072000010019D0C8F140025046FFF777FF054697
:100730000E46504659464246FFF761FF084305D032
:10074000012004E020463946BDE8F08D0020054335
:1007500046EAE0762C4337430A986305E40AA0EBA7
:1007600008000022FD0A44EA47540A3002D500205E
:100770000146E9E7010510196941DDE9084500195D
:100780006941BDE8F04DA2E770B521F00043034395
:100790000CD0C1F30A550024D5EB040564EB040327
:1007A000D617AD1AB34102DB0020014670BD2018F8
:1007B00041EB025170BD2DE9F04D00231A461B1A82
:1007C0008A4103DB00200146BDE8F08DC1F30A52E7
:1007D000C1F3130141F480154FF0000BD10702D192
:1007E00000186D41521E0027044640F2FF113846A2
:1007F00001EB620A3E468046024600204FF480111B
:10080000FFF70CFFC2197141BB1846EB0100B4EBB6
:10081000030C75EB000C04D3E41A65EB00051746D6
:100820000E46241908F101006D4180463428E3DDAD
:10083000F91946EB0600091BA84103D24FF0FF321D
:10084000134601E0002213461BEB070046EB0A515A
:10085000BDE8F04DFFF73BBF30B5041E71F1000459
:1008600004DB4FF00044404264EB0101141E73F1BD
:10087000000405DB1C464FF00043524263EB0403C7
:10088000994208BF904230BD064C074D06E0E06833
:1008900040F0010394E8070098471034AC42F6D3C7
:1008A000FFF776FC3048000850480008FEE70000DB
:1008B000014800F018BB00005800002010B58AB0B5
:1008C000002101220446CDE90612039104910E2075
:1008D000CDE90820059100910191029169462046D9
:1008E00000F0F0F908B100F06AF9204600F0EAFCE7
:1008F00008B100F064F90221204600F062F908B165
:1009000000F05DF90AB0002010BD0000002A02D1FD
:10091000014900F035B870474C00002030B589B06F
:100920000825044606950C98AD010295002504950E
:1009300005950D0A8DF800508DF80110110A8DF8FB
:100940000210190A8DF804108DF80530010A8DF88F
:1009500006108DF803208DF80700204600F0ADFA50
:100960000028FAD0054B6A4602A9204600F03BF960
:10097000002801D000F023F909B030BD4800002064
:1009800000B5A0F20120082812D200EBC0020948ED
:1009900000EB021250683228104605DA03F002FD1F
:1009A0005068401C506001E000F04CF8002000BD91
:1009B000012000BD680300209FED1A1ADFED1A1A0E
:1009C0009FED1A2ADFED1A2A1A4A9FED1B3A0021E1
:1009D000F2EE0E0AB7EE000A01EBC10002EB0010C6
:1009E000C0ED0E0A80ED0F0A80ED100A80ED171A97
:1009F000C0ED191A80ED1A0A80ED1B2AC0ED222ADB
:100A0000037813B1012B03D006E0DFED0C3A01E0CF
:100A1000DFED0B3AC0ED0C3A491C80ED0D3A082988
:100A2000DADB70470000FA450000A0420000000039
:100A300000409C4568030020000000462CA099411E
:100A4000000010420A88DFED2E1A52BA00EE102A7A
:100A500090ED0D1A2B4BB8EE400A60EE210A80EEA5
:100A6000810A80ED020A4A8852BA12B200EE902A38
:100A7000B8EEE01A80ED031A898849BA09B200EE8F
:100A8000901AF8EEE00AC0ED040AD0ED070AC0EDB6
:100A9000060A70EE600A80ED070A416A10EE902A9D
:100AA0009A4201DD491E05E010EE902A164B9A424B
:100AB00001D9491C416200EE901A4FF4B4725143BF
:100AC000F8EEE00A60EEA11AD0ED080A30EE602AD6
:100AD00072EE211A90ED0C2AC1EE822AC1EE021AA2
:100AE00001EE101AC0ED0A2AB8EEC11A31EE000A62
:100AF00030EE600AC0ED0B1A80ED050A7047000069
:100B00000000B44300003443000034C3014800F047
:100B10001FBC0000D801002001681823CAB2103A97
:100B2000B2FBF3F2054B6FF30901032A9B5CC3652B
:100B300000D9091D816508467047000080470008FC
:100B400010B5014600208B698A6A4FF0C07453B11A
:100B5000B3F5005F15D072B1012A0CD0022A0AD079
:100B6000032A09D104E01AB1012A06D0022A03D1CE
:100B7000C96AC90100D5012010BDC96AA142FAD0D5
:100B800010BD002AF7D0012AF2D0022AF3D0032A9E
:100B9000F3D010BD30B50468256825F480252560A4
:100BA000046863608368402B036803D09960006821
:100BB000C26030BD9A600068C16030BD704772B6D7
:100BC000FEE790F82020012A07D0022A05D0416ACA
:100BD00041F48021416201207047006842690A4364
:100BE000426100207047F0B590F820500468A46876
:100BF000012D05D0022D03D0416A41F480215DE032
:100C000014F0406F01D1E50055D5C4F30164022C06
:100C100003D9416A41F4000150E00125A5401D605F
:100C20008D684FF4C0739DB1CE6835434E6845EA78
:100C3000C605066803EB0417F5514FF4C275076843
:100C400005EB04150E697E51097D012905D009E0E7
:100C50000E88CD6845EA4655EBE701684E5946F4E3
:100C600080764E511179D579567941EA05619579A9
:100C70002D0445EA062529434FF4C676056806EBA0
:100C80000416A9511178D57841EA05619578527812
:100C90002D0445EA022211434FF4C475026805EBA6
:100CA00004155151006803EB0411425842F001024F
:100CB00042500020F0BD416A41F400114162012020
:100CC000F0BD000010B590F82020012A07D0022ABC
:100CD00005D0416A41F480214162012010BD3B48AA
:100CE000D0F8002242F00102C0F80022D0F8002221
:100CF00022F47C52C0F80022D0F800224B6A42EA6B
:100D00000322C0F800220A7D02F01F0301229A404C
:100D1000D0F81C329343C0F81C32CB69B3B9D0F879
:100D20000C329343C0F80C328C894B6864F31F4338
:100D30004C6900EBC404C4F840320C890B6864F3BE
:100D40001F434C6900EBC404C4F84432CB69012B47
:100D500016D1D0F80C321343C0F80C320C884B6813
:100D600064F31F434C6900EBC404C4F840320C899F
:100D7000CB6864F31F434C6900EBC404C4F84432ED
:100D80008B69002BD0F804320ED01343C0F8043224
:100D90000B69002BD0F8143208D01343C0F814327A
:100DA000096A012904D008E09343EFE79343F5E78C
:100DB000D0F81C121143C0F81C12D0F8001221F018
:100DC0000101C0F80012002010BD000000640040C6
:100DD000704730B590F82040012C05D0022C03D08C
:100DE000416A41F480215DE00468002955D02469FE
:100DF000A40754D04FF4D874056804EB01142D599E
:100E000015F00405956005682D594ED0ED08556024
:100E100005682C5904F00204D4604FF4DA740568B4
:100E200004EB01142D5905F00F05156105682D59C6
:100E3000C5F30725956105682C59240C54614FF4BE
:100E4000DC72046802EB0112A4581C700468A458F8
:100E5000240A5C700468A458240C9C700468A2588E
:100E6000120EDA704FF4DE72046802EB0112A4581D
:100E70001C710468A458240A5C710468A458240CEA
:100E80009C710468A258120EDA71006881B1016980
:100E900041F020010161002030BDE468A8E7416A0B
:100EA00041F400114162012030BD6D0D1560AFE7C6
:100EB000C16841F02001C160EDE70246002092F8D0
:100EC0002010012901D002290CD111688A68520131
:100ED00000D501208A68120100D5401C8968C9002C
:100EE00000D5401C70472DE9F05F054600680024DE
:100EF0004669D0F804908768D0F80CB0D0F810A0FC
:100F0000D0F81880F10748D0F90714D0012181608A
:100F1000B80703D5284600F002FA0CE0780702D59E
:100F20004FF4006407E0380702D54FF4805402E024
:100F3000284600F0F3F9F80516D529684FF48070BB
:100F40008860B80503D5284600F0EBF90CE0780579
:100F500002D544F4005407E0380502D544F4804437
:100F600002E0284600F0DCF9F80316D529684FF4B2
:100F700080308860B80303D5284600F0D4F90CE02F
:100F8000780302D544F4004407E0380302D544F462
:100F9000803402E0284600F0C5F9300707D55FEA43
:100FA000CB6004D52968102044F40074C860700731
:100FB0004FF0080707D55FEA0B7004D52868C760B3
:100FC000284600F059F9B00706D52868C0688007A0
:100FD00002D0284600F052F9700607D55FEACA60D1
:100FE00004D52968102044F480640861B00607D550
:100FF0005FEA0A7004D528680761284600F05EF9A8
:10100000F00606D528680069800702D0284600F05F
:1010100056F9B00308D55FEAC96005D529681020E4
:101020004860284600F04CF9F00307D55FEA0970E4
:1010300004D528684760284600F076F9300446D584
:101040005FEA497040D5F00504D55FEAC87001D069
:1010500044F00104B00504D55FEA887001D544F07E
:101060000204700504D55FEA487001D544F0040419
:10107000300529D518F0700F26D008F070004028F0
:1010800015D006DC102809D020280AD0302816D127
:101090000AE050280ED0602811D10EE044F0080478
:1010A0000DE044F010040AE044F0200407E044F0AE
:1010B000400404E044F0800401E044F480742868B3
:1010C000816921F070018161296804204860002C49
:1010D00005D0686A204368622846FFF779FEBDE8BC
:1010E000F09F70B5040003D094F8200010B104E024
:1010F000012070BD204600F081F82068016821F0D1
:101100000201016000F08AFB0546052604E000F0BC
:1011100085FB401B0A2811D8206840688007F6D458
:101120002068016841F00101016000F077FB05468D
:101130000BE000F073FB401B0A2806D9606A40F4FC
:101140000030606284F82060D2E720684068C00701
:10115000EFD0207E0128206801683DD021F0800179
:101160000160607E01282068016838D021F04001CC
:101170000160A07E01282068016833D021F02001A1
:101180000160E07E0128206801682ED041F0100146
:101190000160207F01282068016829D021F0080122
:1011A0000160607F01282068016824D021F00401DB
:1011B0000160D4E902010843D4E904121143084351
:1011C0006168491E08432168C861002060620120EF
:1011D00084F82000002070BD41F08001C0E741F09C
:1011E0004001C5E741F02001CAE721F01001CFE737
:1011F00041F00801D4E741F00401D9E710B586B009
:10120000044614216846FFF727F8184920688842E9
:1012100029D117480021026842F00072026000687C
:1012200000F00070059012481038026842F0010288
:101230000260006800F0010005904FF4C05000907B
:101240000220CDE9010103200390092004906946A2
:10125000084800F001FA00221146142000F04CFB6F
:10126000142000F03BFB06B010BD000000640040FD
:1012700040380240000002407047000000B50D4AAF
:1012800001688BB01268914212D10B4B03AA002166
:10129000FFF79FFD08B1FFF792FC07AB0DF10C0CB7
:1012A00093E807008DE807009CE80F00FFF72EFB8E
:1012B0000BB000BD580000204C0000207047704764
:1012C0007047000070B5044690F82000012804D053
:1012D000606A40F40020606218E0022084F8200078
:1012E0002068016821F00101016000F097FA0546CD
:1012F0000EE000BF00F092FA401B0A2808D9606A8D
:1013000040F400306062052084F82000012070BDA8
:1013100020684068C007EDD1606270BD70477047BB
:101320007047704770477047704790F83510022932
:1013300003D08021416501207047052180F83510D8
:101340000068016821F00101016000207047000081
:101350002DE9F84304464FF00009CDF800906348AA
:101360004FF41651A56D0068B0FBF1F72E6894F8A4
:101370005C10082000FA01F131420FD021680A68A0
:1013800052070BD50A6822F004020A6094F85C1038
:101390008840A860606D40F00100606594F85C10C2
:1013A0004FF0010808FA01F0304208D0216849697D
:1013B000090604D5A860606D40F00200606594F8ED
:1013C0005C1004208840304208D0216809688907F1
:1013D00004D5A860606D40F00400606594F85C106E
:1013E00010208840304218D021680968090714D5B8
:1013F000A86020680168490304D50068000308D587
:10140000A16C07E00168C90503D4016821F0080157
:101410000160216C09B12046884794F85C102020B7
:101420008840304231D021680968C9062DD5A860AE
:1014300094F8350005282068016806D0490347D58F
:10144000006800031DD4616C1CE021F016010160EE
:101450002068416921F080014161206C08B9A06CCD
:1014600020B12068016821F00801016094F85C1047
:101470003F208840A86084F8349084F83580216D3E
:101480001FE0E16B09B120468847606D00282BD032
:10149000606DC00714D0052084F83500206801680D
:1014A00021F0010101600098401C0090B84203D86F
:1014B00020680068C007F6D184F8349084F835803D
:1014C000E16C002910D001B02046BDE8F043084788
:1014D0000168C905D5D4016821F01001016084F8C4
:1014E000349084F83580CCE7BDE8F8832C000020E8
:1014F0002DE9F041044600F091F906465CB1002563
:1015000084F83450022084F835002068016821F006
:10151000010101600DE00120BDE8F08100F07EF9DD
:10152000801B052805D920206065032084F835003C
:10153000F2E720680068C007F0D1226811682048EF
:101540000140D4E901031843D4E903363343184377
:1015500063691843A3691843E3691843236A18436E
:101560000843616A042903D1D4E90B1319430843E2
:10157000106020684069666A20F0070130460E431B
:10158000012704280CD1A06A0643E06A40B1204636
:10159000FFF7D6FA20B14020606584F83570BAE7CD
:1015A000206846612046FFF7B7FA94F85C203F2197
:1015B00091408160656584F835700020ACE70000DB
:1015C0003F8010F02DE9F0410446866D90F834001C
:1015D000002501280DD0012084F8340094F83570DE
:1015E0000020012F07D084F8340002252846BDE8EA
:1015F000F0810220FBE7022784F835706065204601
:10160000FFF7C8FA94F85C103F208840B06020686B
:10161000016841F016010160206C20B1206801686A
:1016200041F0080101602068016841F0010101609A
:10163000DCE7000070B5044600F0F0F80546601CD9
:1016400002D004480078044400F0E8F8401BA042AF
:10165000FAD370BD200000202DE9F84F00224FF092
:10166000010803254FF00F0E0B6808FA02F423401F
:10167000A3426ED14E68012E05D0022E03D0112E4A
:1016800001D0122E12D186684FEA420C05FA0CF7EF
:10169000BE43CF6807FA0CF7374387604668A64316
:1016A0000C79C4F30014944034434460C668570076
:1016B00005FA07FC8C6826EA0C06BC403443C4607B
:1016C0004C68022C01D0122C13D1D40800EB8404F6
:1016D000A346D4F8209054074FEAD46A0EFA0AF6CB
:1016E00029EA06090E6906FA0AF646EA0906CBF85F
:1016F000206006680C7926EA0C0604F00304BC405E
:10170000344304604C68E40065D5364C266846F4E2
:1017100080462660246822F0030604F48044009486
:10172000314C3444A446D4F808489607370F0EFAD3
:1017300007F6B4432D4EB04201D1002624E02C4ED2
:10174000B04201D101261FE02A4EB04202D102264A
:101750001AE040E0284EB04201D1032614E0274EA3
:10176000B04201D104260FE0254EB04201D105263A
:101770000AE0244EB04201D1062605E0224EB042D6
:1017800001D1072600E00826BE402643CCF80868B1
:101790001E4E34684F689C43FF0300D51C433460E1
:1017A0001A4C241D26684F689E43BF0300D51E4374
:1017B0002660164E083634684F689C43FF0200D5F9
:1017C0001C433460114E0C3634684F689C43BF0292
:1017D00000D51C433460521C102AFFF445AFBDE80D
:1017E000F88F000044380240003001400000024001
:1017F0000004024000080240000C024000100240B9
:101800000014024000180240001C0240003C01404D
:101810000AB1816170470904FBE700000148806854
:1018200070470000200000200248816802781144BF
:1018300081607047200000200B4810B5016841F41A
:1018400000710160016841F480610160016841F448
:1018500080710160032000F06FF8002000F006F8AE
:1018600000F024F8002010BD003C024070B50D4D82
:1018700004464FF47A712878B1FBF0F00A49096800
:10188000B1FBF0F000F076FB48B9102C07D2002233
:101890002146501E00F030F800206C6070BD012021
:1018A00070BD0000200000202C0000200A4808B570
:1018B000016841F480410160006800F480400090BC
:1018C0000548001F016841F080510160006800F088
:1018D0008050009008BD000044380240002809DB19
:1018E00000F01F02012191404009800000F1E0203A
:1018F000C0F8001170470000F0B40E4B1B680C4696
:10190000C3F30223C3F10705042D00D90425191DD3
:10191000072901D2002300E0DB1E012606FA05F1AB
:10192000491E214099409E40761E16403143F0BC2E
:1019300001F0CBBD0CED00E0064900F0070208689D
:101940004FF6FF03184040EA0220034A10430860A4
:10195000704700000CED00E00000FA052DE9F047AB
:101960000E46050065D0DFF81481D8F80000F7B204
:1019700000F00F00B04207D288F80070D8F80000DD
:1019800000F00F00B04254D128683D4C810712D5B9
:10199000400703D5206840F4E05020602878000715
:1019A00003D5206840F4604020602068A96820F0DA
:1019B000F000084320602878C0072DD030496868BF
:1019C0000839012812D0022813D0032811D0096841
:1019D000890700292DDA216821F0030101432160E4
:1019E000FFF71CFF814641F2883A0EE0096889033F
:1019F000EFE709688901ECE7FFF710FFA0EB0901A9
:101A0000514502D90320BDE8F0872068696800F0DD
:101A10000C00B0EB810FEFD1D8F80010404601F078
:101A20000F01B14207D90770006800F00F00B04203
:101A300001D00120E7E72878400705D52068E9684C
:101A400020F4E050084320602878000706D520687D
:101A5000296920F4604040EAC100206000F038F8B5
:101A60002168084AC1F30311515CC8400649086067
:101A700006480068FFF7FAFE0020C4E7003C024079
:101A800008380240884700082C000020240000206D
:101A90000448054900680968044AC1F38221515C81
:101AA000C84070472C0000200838024098470008C2
:101AB0000448054900680968044AC1F34231515C91
:101AC000C84070472C0000200838024098470008A2
:101AD000154810B5006810F00C02144813D04110DE
:101AE000042A0FD0082A0ED10F4C241F2268236825
:101AF00002F03F025B0207D52068C0F38810A0FB0C
:101B0000010106E0084610BD2168C1F38811A1FB60
:101B100000010023FEF756FB2168C1F30141491C77
:101B20004900B0FBF1F010BD083802400024F40079
:101B30002DE9F84F04006ED02078DFF83C93C00701
:101B4000A9F104054AD009F104000168C1F381013B
:101B5000012908D00068C0F3810002280AD1D9F811
:101B60000000400206D52868800337D56068002849
:101B7000E1D033E06068B0F5803F10D0B0F5A02F21
:101B8000286810D020F480302860286820F4802055
:101B900028606068A8B1FFF741FE06460DE028689E
:101BA00040F48030F4E740F480202860F7E700BF7D
:101BB000FFF734FE801B642873D828688003F7D5AC
:101BC0000CE0FFF72BFE064605E000BFFFF726FE00
:101BD000801B6428F0D828688003F7D42078DFF8C9
:101BE0009C8280074FF0000A3ED5A348001D016883
:101BF00011F00C0F08D00068C0F3810002280BD14F
:101C0000D9F80000400207D42868800716D5E0689C
:101C1000012800D112E02BE1E068B8B10120C8F83A
:101C20000000FFF7FBFD064605E000BFFFF7F6FDED
:101C3000801B0228C0D828688007F7D5286821694A
:101C400020F0F80040EAC10028600DE0C8F800A0CC
:101C5000FFF7E4FD064604E0FFF7E0FD801B0228E5
:101C60001FD828688007F7D42078000722D5824E35
:101C700083486169703671B101210160FFF7CEFDC3
:101C8000074604E0FFF7CAFDC01B022809D83068E8
:101C90008007F7D50EE0C0F800A0FFF7BFFD0746AC
:101CA00005E082E0FFF7BAFDC01B02287DD830684E
:101CB0008007F7D42078400768D5DFF8BCB100274B
:101CC0000BF13C0BDBF80000C0000BD4DBF800107C
:101CD00041F08051CBF80010DBF80000012700F044
:101CE00080500090674E3068C00510D4306840F4D2
:101CF00080703060FFF792FD009005E0FFF78EFDE9
:101D00000099401A022850D83068C005F6D55A4EBE
:101D1000A0686C3601280FD00528306810D020F05C
:101D200001003060306820F004003060A068B8B175
:101D3000FFF774FD00900FE0306840F00100F4E719
:101D400040F004003060F7E7FFF768FD0099411AA2
:101D500041F28830814266D830688007F4D50EE0C1
:101D6000FFF75CFD009007E0FFF758FD0099411A6E
:101D700041F28830814256D830688007F4D42FB1C0
:101D8000DBF8001021F08051CBF80010A069C8B337
:101D90003949091D0968C1F3810102294AD0022885
:101DA000504607D0C8F8600000E03CE0FFF736FD81
:101DB00004463BE04746C8F86000FFF72FFD0646A3
:101DC00005E000BFFFF72AFD801B02282BD82868FA
:101DD0008001F7D4D4E907010843A16A2A4A4908D7
:101DE00002EB0141626A41EA8211084394F82C1027
:101DF00040EA0161C9F8001001203866FFF70EFDC6
:101E0000044606E036E000BFFFF708FD001B02288D
:101E100009D828688001F7D52CE000BFFFF7FEFC49
:101E2000001B022802D90320BDE8F88F2868800132
:101E3000F4D41FE00128F7D0D9F80000E26900F4DB
:101E40008001914214D1226A00F03F0191420FD1EA
:101E500047F6C071626A0140914209D1A26A00F45A
:101E60004031914204D1E16A00F07060884201D0B3
:101E70000120D9E70020D7E704380240000047429C
:101E8000800E4742007000400000FFFF70B5040064
:101E900005D00025A56294F8510010B106E001209C
:101EA00070BD84F85050204600F030F8022084F8CD
:101EB00051002068016821F040010160D4E901016E
:101EC0000843D4E903121143084361690843218B95
:101ED00001F400710843E1690843216A0843A16ADB
:101EE000084321680860A069042101EA1040616A82
:101EF0000843216848602068C16921F40061C1611C
:101F00006565012084F85100002070BD10B586B0D1
:101F1000044614216846FEF79FF913492068884259
:101F200020D112480021026842F480520260006809
:101F300000F4805005900D481438026842F0010208
:101F40000260006800F001000590E020009002208F
:101F5000CDE901010320039005200490694604485F
:101F6000FFF77AFB06B010BD003001404438024054
:101F70000000024010B5401EB0F1807F01D3012067
:101F800010BD4FF0E02460610F21601701F09DFA51
:101F90000020A06107202061002010BD704770471D
:101FA00070B590F83C20012A32D0012480F83C40E2
:101FB000022280F83D2003685A689D6822F070066E
:101FC0000A6832435A60134B02689A4214D0B2F145
:101FD000804F11D0104B9A420ED0104B9A420BD02A
:101FE0000F4B9A4208D00F4B9A4205D00E4B9A42A3
:101FF00002D00E4B9A4204D1496825F08003194360
:10200000916080F83D40002180F83C10084670BD8A
:10201000022070BD000001400004004000080040A4
:10202000000C004000040140004001400018004046
:1020300010B5040003D094F83D0010B107E0012072
:1020400010BD002084F83C00204600F00DF802206E
:1020500084F83D00211D206800F0D4FF012084F8A1
:102060003D00002010BD000008B5154A0168154864
:1020700091420ED1016841F0040101600068002224
:1020800000F00400009011461E20FFF735FC1E20D2
:1020900010E00D4A914211D1016841F00801016040
:1020A0000068002200F00800009011463220FFF77F
:1020B00023FC3220BDE80840FFF710BC08BD00003B
:1020C0000008004040380240000C00400168CA6827
:1020D00042F00102CA600068816801F00701062928
:1020E00003D0016841F0010101600020704770B524
:1020F000044690F83C00012817D0012584F83C5094
:10210000022084F83D002068826822F0770222F4E1
:102110007F4282600868502830D00DDC20284DD0E6
:1021200005DC98B310283BD148E0022070BD302870
:1021300044D0402834D139E0602828D0702806D017
:10214000B0F5805F2CD0B0F5005F29D10AE0CB68F4
:10215000D1E90121206800F0B9FF2068816841F0D1
:10216000770109E0CB68D1E90121206800F0AEFFDA
:102170002068816841F48041816011E0CA68496843
:10218000206800F0B5FF5021206807E016E0CA681B
:102190004968206800F0BDFF6021206800F0A0FFC2
:1021A00084F83D50002084F83C0070BDCA6849683E
:1021B000206800F09DFF40212068EFE7226801467B
:1021C0001046EBE7704770B50446006801694FF0B0
:1021D0000005C943890715D4C168C943890711D4CB
:1021E000E91E016101202077206880698007204670
:1021F00002D0FFF7E7FF04E000F098F8204600F077
:1022000096F8257720680169C943490717D4C16842
:10221000C943490713D46FF00401016102202077FC
:102220002068806910F4407F204602D0FFF7CAFF83
:1022300004E000F07BF8204600F079F8257720686C
:102240000169C943090716D4C168C943090712D4F3
:102250006FF008010161042020772068C0698007C1
:10226000204602D0FFF7AEFF04E000F05FF8204602
:1022700000F05DF8257720680169C943C90617D4C5
:10228000C168C943C90613D46FF010010161082069
:1022900020772068C06910F4407F204602D0FFF705
:1022A00091FF04E000F042F8204600F040F8257766
:1022B00020680169C943C90708D1C168C943C90772
:1022C00004D1891E0161204600F032F820680169BE
:1022D000C943090609D4C168C943090605D46FF08A
:1022E000800101612046FFF759FE20680169C9435A
:1022F000490609D4C168C943490605D46FF04001B5
:102300000161204600F020F820680169C943890670
:102310000BD4C168C943890607D46FF0200101615D
:102320002046BDE87040FFF73ABE70BD7047704769
:102330000349884203D103480168491C0160704782
:10234000D8000020000000207047704770B5026878
:1023500004461068D168536910F00F0F52D003F093
:10236000010501F490762E435FD0C20705D0CA055F
:1023700003D5E26B42F00102E263420705D5DA07BA
:1023800003D0E26B42F00202E263820705D5DA076E
:1023900003D0E26B42F00402E263020707D501F0CA
:1023A00020022A4303D0E26B42F00802E263E26BB0
:1023B000002A33D0800604D5880602D5204600F0D6
:1023C00021FF20684069E16BC0F38010090700D449
:1023D00028B3204600F0FFFE2068416949061AD55F
:1023E000416921F040014161606BA0B11B49016569
:1023F000606BFEF79AFF002810D0606B016DBDE89E
:1024000070400847830610D58B060ED52046BDE8E0
:10241000704000F0F7BE2046FFF797FF70BD2046E2
:10242000FFF793FF0020E06370BD030606D50B069F
:1024300004D52046BDE8704000F0C4BF4006F3D587
:102440004806F1D5D168204621F04001D160202115
:1024500084F8391000F068F970BD000037310008C9
:1024600070B5040004D094F83900002510B106E0DE
:10247000012070BD84F83850204600F023F8242055
:1024800084F839002068C16821F40051C1602046F9
:1024900000F004FF2068016921F490410161206887
:1024A000416921F02A0141612068C16841F400516D
:1024B000C160E563202084F8390084F83A000020E8
:1024C00070BD0000F0B587B0064614216846FDF7E0
:1024D000C3FE3249304F3468002530481439022297
:1024E0000323BC421BD1046844F01004046000685C
:1024F00000F010000590086840F0010008600868CE
:10250000694600F00100059058028DE8250007207B
:10251000CDE903302248FFF79FF807B0F0BD214F07
:10252000BC42FAD1046844F020040460006800F062
:1025300020000590086840F00400086008686946BB
:1025400000F004000590C0208DE825000820CDE9AA
:1025500003301548FFF780F8154C144820608005BB
:10256000C4E901053815C4E9035080106561C4E968
:102570000650256220466562FEF7BAFF08B1FEF7F5
:102580001EFB7463002211464720A663FFF7B4F9CF
:102590004720FFF7A3F9C0E700100140443802408C
:1025A000000002400014014000080240286402407C
:1025B000D8010020F8B5044690F83A0020283CD114
:1025C000C1B3BAB394F83800012836D0012084F89A
:1025D0003800A162A2850025E563222084F83A0034
:1025E000636B1748D863636B16481864636B1648AF
:1025F000D864606B134605650846666B2168024621
:102600003046091DFEF7DEFF206801684168009131
:1026100084F83850C16841F48071C1602068416914
:1026200041F0010141612068416941F0400141618F
:102630000020F8BDFFE70120FBE70220F9E70000DA
:1026400091310008CD310008473100080549006884
:102650000968884204D104490120486001F0FCBFA8
:1026600070470000980100200000002070472DE90D
:10267000F843044690F839001F4616460D462028B8
:1026800050D1B5B1AEB194F8380001284AD001203C
:1026900084F838004FF00008C4F83C80212084F80A
:1026A0003900FFF7BBF8A6848146E68484F83880B9
:1026B00026E00120BDE8F883E08C401EE084A0689D
:1026C0004B46B0F5805F4FF000024FF0800120468E
:1026D000009703D000F0A7FEE8B90DE000F0A3FEDC
:1026E000C8B928882168C0F308004860206908B18B
:1026F0006D1C05E0AD1C03E0216815F8010B486076
:10270000E08C0028D8D14B4600224021204600977B
:1027100000F089FE08B10320CCE7202084F83900BE
:102720000020C7E70220C5E77047FEE72DE9F0412A
:102730002DED088BB0EE438AF0EE638AB0EE429A3C
:10274000F0EE629AB0EE41BAF0EE61BA9FED51AB95
:1027500051EC100B53EC1A2BFDF730FE884648EC79
:10276000100B064653EC192B51EC100BFDF723FE12
:102770004A4C53EC1A2BC4E9000151EC1B0BFDF73A
:102780001DFE0F4647EC100B054653EC182B51EC81
:10279000100BFDF70DFE48EC106BC4E9020153EC81
:1027A000192B51EC100BFDF703FE47EC105BC4E94D
:1027B000060153EC182B51EC100BFDF7F9FD48EC1A
:1027C000106BC4E9080153EC192B51EC100BFDF709
:1027D000F2FD47EC105BC4E90C0153EC182B51ECF3
:1027E000100BFDF7E8FD48EC106BC4E90E0153EC4B
:1027F000192B51EC100BFDF7DBFD47EC105BC4E926
:10280000120153EC182B51EC100BFDF7D4FD9FED8A
:10281000249B002504F1A806C4E9140105EB45003A
:1028200004EBC007B0EE491A97ED020BF0EE691AFF
:1028300000F05EFEB0EE408AF0EE608A97ED000B8D
:10284000B0EE491AF0EE691A00F052FEB0EE401AEE
:10285000F0EE601A53EC182B51EC110BFDF707FD4D
:1028600041EC100B01F06CFC06EBC5006D1C80ED1B
:10287000000B042DD2DB00209FED0B0B06EBC001FB
:10288000401C81ED000B0328F8DBBDEC088BBDE894
:10289000F0810000000000000000E03F380200204E
:1028A00000000000000000409A9999999999C93F49
:1028B00010B522482DED068BB0EE428AF0EE628A0A
:1028C000B0EE419AF0EE619AB0EE40AAF0EE60AA46
:1028D00000F036F81948B0EE482AF0EE682AB0EE5B
:1028E000491AF0EE691AB0EE4A0AF0EE6A0A183098
:1028F00000F080F81148B0EE482AF0EE682AB0EEF9
:10290000491AF0EE691AB0EE4A0AF0EE6A0A30305F
:1029100000F0CAF8B0EE482AF0EE682AB0EE491A84
:10292000F0EE691AB0EE4A0AF0EE6A0ABDEC068BC8
:102930000248BDE81040483000F010B938020020CD
:1029400010B504462DED0A8BB0EE408AF0EE608A99
:10295000B0EE42AAF0EE62AAB0EE419A9FED20CB13
:10296000F0EE619AB0EE4C0AF0EE6C0A01F0E8FB72
:1029700053EC182B51EC100BFDF720FD9FED1ABB0B
:1029800053EC1B2BFDF71AFD41EC180BB0EE4C0A73
:10299000F0EE6C0A01F0D4FB53EC192B51EC100B48
:1029A000FDF70CFD53EC1B2BFDF708FD41EC190B5B
:1029B0000F4853EC1A2B90ED000B51EC100BFDF768
:1029C000FDFC53EC192BFDF752FC53EC182BFDF7D3
:1029D000EFFCFDF7F8FD2061BDEC0A8B10BD000097
:1029E0000000000000000040000000000000E03F88
:1029F000E002002010B504462DED0A8BB0EE408AAF
:102A0000F0EE608AB0EE42AAF0EE62AAB0EE419A11
:102A10009FED20CBF0EE619AB0EE4C0AF0EE6C0A1E
:102A200001F08EFB53EC182B51EC100BFDF7C6FC9C
:102A30009FED1ABB53EC1B2BFDF7C0FC41EC180BB0
:102A4000B0EE4C0AF0EE6C0A01F07AFB53EC192B55
:102A500051EC100BFDF7B2FC53EC1B2BFDF7AEFC59
:102A600041EC190B0F4853EC1A2B90ED020B51EC73
:102A7000100BFDF7A3FC53EC192BFDF799FC53EC5D
:102A8000182BFDF795FCFDF79EFD2061BDEC0A8B30
:102A900010BD000000000000000000400000000029
:102AA0000000E03FE002002010B504462DED0A8B47
:102AB000B0EE408AF0EE608AB0EE42AAF0EE62AA72
:102AC000B0EE419A9FED20CBF0EE619AB0EE4C0A49
:102AD000F0EE6C0A01F034FB53EC182B51EC100BA8
:102AE000FDF76CFC9FED1ABB53EC1B2BFDF766FC4E
:102AF00041EC180BB0EE4C0AF0EE6C0A01F020FB32
:102B000053EC192B51EC100BFDF758FC53EC1B2B1D
:102B1000FDF754FC41EC190B0F4853EC1A2B90EDC8
:102B2000040B51EC100BFDF749FC53EC192BFDF78E
:102B30003FFC53EC182BFDF79AFBFDF744FD206199
:102B4000BDEC0A8B10BD000000000000000000403A
:102B5000000000000000E03FE002002010B5044645
:102B60002DED0A8BB0EE408AF0EE608AB0EE42AAFC
:102B7000F0EE62AAB0EE419A9FED20CBF0EE619AA2
:102B8000B0EE4C0AF0EE6C0A01F0DAFA53EC182BB6
:102B900051EC100BFDF712FC9FED1ABB53EC1B2BF5
:102BA000FDF70CFC41EC180BB0EE4C0AF0EE6C0A91
:102BB00001F0C6FA53EC192B51EC100BFDF7FEFB9C
:102BC00053EC1B2BFDF7FAFB41EC190B0F4853ECB0
:102BD0001A2B90ED060B51EC100BFDF7EFFB53ECAD
:102BE000192BFDF744FB53EC182BFDF740FBFDF7C9
:102BF000EAFC2061BDEC0A8B10BD00000000000063
:102C000000000040000000000000E03FE002002063
:102C10000E4810B50C4901600821416000214FF4B5
:102C200000328160C0E9031241610176417681760C
:102C3000C17601774177FEF754FA002803D0BDE84A
:102C40001040FDF7BCBF10BD0064004058000020DC
:102C5000094808B5016841F480010160006800225C
:102C600000F48000009011463920FEF745FEBDE8D3
:102C700008403920FEF732BE30380240F0B587B048
:102C800014216846FDF7E8FA25480025016841F05F
:102C900080010160016801F080010591016841F047
:102CA00001010160016801F001010591016841F035
:102CB00008010160016801F008010591016841F017
:102CC00004010160016801F004010591016841F00F
:102CD000020101600068134F00F002004FF400543D
:102CE0000590002221463846FEF792FD0122D603C8
:102CF00031463846FEF78CFD0094012402200395EE
:102D0000CDE9014069463846FEF7A6FCCDE90064EE
:102D100069463846CDE90245FEF79EFC07B0F0BD96
:102D200030380240000C02400F4810B50D490160D8
:102D30004FF482714160002181600122C160C0E9CD
:102D400004125202C0E906210162416281620A2135
:102D5000C162FFF79BF8002803D0BDE81040FDF7E3
:102D60002EBF10BD003001408000002010B586B09D
:102D70000024174800940194029403940494134986
:102D8000059401604F21C0E9011440F2E731C0E928
:102D9000031480218161FFF74BF908B1FDF70FFFA4
:102DA0004FF48050009069460948FFF7A0F908B138
:102DB000FDF705FF049404A905480594FFF7F0F812
:102DC000002801D0FDF7FBFE06B010BD0008004052
:102DD000D800002010B586B0002417480094019454
:102DE0000294039404941349059401604F21C0E9AF
:102DF000011440F2E731C0E9031480218161FFF73B
:102E000017F908B1FDF7DBFE4FF4805000906946DA
:102E10000948FFF76CF908B1FDF7D1FE049404A945
:102E200005480594FFF7BCF8002801D0FDF7C7FE60
:102E300006B010BD000C0040180100200C4810B571
:102E40000A4901604FF4E1314160002181600C22A8
:102E5000C160C0E904128161C161FFF701FB002874
:102E600003D0BDE81040FDF7AABE10BD0010014020
:102E7000580100200C4810B50A4901604FF4E131B7
:102E80004160002181600C22C160C0E904128161AF
:102E9000C161FFF7E5FA002803D0BDE81040FDF757
:102EA0008EBE10BD0014014098010020FEE7FEE731
:102EB00090ED040AD0ED030AB0EE002A30EE600A6D
:102EC00080ED050AD0ED070AD0ED001A30EE601A49
:102ED00021EE211AD0ED011A01EE801AF0EE401A0F
:102EE00040EEC21A90ED062A71EE821A90ED022A87
:102EF00002EE211AD0ED081A31EE211A80ED081ADF
:102F0000C0ED060A80ED070A90ED090AB4EEC01A7A
:102F1000F1EE10FA01DD80ED080AD0ED080AB1EEFD
:102F2000400AF4EEC00AF1EE10FA01D280ED080A70
:102F3000704770477047FEF777BC000030B593B01C
:102F400030216846FDF788F914210CA8FDF784F9B3
:102F50001D480025016841F080510160006800F0C3
:102F6000805011901948016841F480410160006867
:102F7000022400F480401190012000900004019090
:102F80008001CDE9064008AA0420A02182E81300B0
:102F90000B906846FEF7CCFD08B172B6FEE70CA9AF
:102FA0000F2081E831004FF4A0500F904FF4805073
:102FB000109005210CA8FEF7D1FC002801D072B6B4
:102FC000FEE713B030BD0000403802400070004002
:102FD0000548016841F47001016003494FF0006049
:102FE000803908607047000088ED00E00148FFF775
:102FF000EAB80000D80000200148FFF7E4B800005C
:1030000018010020F0B50268254C264D264E274FAA
:10301000274B4FF0804CA04209D0604507D0A84212
:1030200005D0B04203D0B84201D0984204D122F07A
:10303000700E4A6842EA0E02A0421BD0604519D0C9
:10304000A84217D0B04215D0B84213D0984211D040
:10305000184DA8420ED0184DA8420BD0174DA842CB
:1030600008D0174DA84205D0164DA84202D0164DE3
:10307000A84203D122F44075CA682A434D6922F060
:1030800080022A4302608A68C2620A688262A042A1
:1030900001D0984201D10969016301214161F0BD6C
:1030A000000001400004004000080040000C004007
:1030B000000401400040014000440140004801403C
:1030C00000180040001C00400020004010B584683B
:1030D00042EA032224F47F440A432243826010BD63
:1030E000826822F070020A4342F007018160704753
:1030F00010B5036A046A24F001040462846924F0B0
:10310000F00444EA021423F00A020A4384610262D2
:1031100010BD10B5036A23F0100303628369046ACB
:1031200023F4704343EA023224F0A00343EA01117E
:103130008261016210BD10B5806B0021C185C18420
:10314000FFF703F910BD70B5846B2068406994F8EF
:103150003910C0F3C0100025212904D118B1E5842D
:10316000204600F046F82068406994F83A10C0F311
:103170008010222904D118B1E585204600F02BF8F3
:10318000E06B40F01000E0632046FFF7DEF870BD12
:1031900010B50146806B09680968C90513D4002180
:1031A000C1850168CA6822F48072CA6001684A69F0
:1031B00022F001024A6101684A6922F040024A6134
:1031C000202180F83A10FFF741FA10BD10B5806B4E
:1031D000FFF74CFA10BD0168CA6822F49072CA6009
:1031E00001684A6922F001024A61202180F83A1000
:1031F00070470168CA6822F0C002CA60202180F8C6
:103200003910704710B590F83A10222901D00220E9
:1032100010BD8168B1F5805F11D001690029016896
:103220001FD0496801F07F03816A4A1C82620B70DB
:10323000C18D491E0904090CC18518D02BE0026913
:10324000816A002A0268526805D0D2B20A80816A77
:10325000491C8162ECE7C2F308020A80816A891C7A
:10326000F7E74A68816A4B1C83620A70E0E70168ED
:10327000CA6822F02002CA600168CA6822F480721B
:10328000CA6001684A6922F001024A61202180F87F
:103290003A10FFF7DBF9002010BD00002DE9F041E6
:1032A000044600680169E26821F44051114301615C
:1032B0002169A068E26908436169114308432168F4
:1032C000CA6849F20C639A430243CA6020684169A4
:1032D000A26921F4407111434161E0691927642515
:1032E0003226B0F5004F354A354920684FF00008C6
:1032F00006D0884201D0904236D1FEF7D9FB35E0A6
:10330000884201D0904202D1FEF7D2FB01E0FEF7E5
:10331000BFFB61684A18A0FB070148EB0803FCF7F4
:1033200051FF0146B0FBF5F00201B1FBF5F06FF083
:103330001803584301EB800006EBC000B0FBF5F02A
:1033400000F0F80002EB4002B1FBF5F0584301EB4E
:10335000800006EBC000B0FBF5F000F0070021682C
:1033600010448860BDE8F081FEF792FB61688B0F26
:103370008A00A0FB0701FCF725FF0146B0FBF5F032
:103380006FF01802504301EB800006EB0010B0FB19
:10339000F5F000F0F002B1FBF5F002EB0012B1FB2A
:1033A000F5F06FF01803584301EB800006EB0010B6
:1033B000B0FBF5F000F00F00D1E700000014014071
:1033C0000010014090F83910212901D002207047E7
:1033D0008168B1F5805F016A0BD04A1C0262026805
:1033E00009785160C18C491E0904090CC1840ED0B2
:1033F00017E009880268C1F30801516001690029DA
:10340000016A02D0491C0162ECE7891CFBE70168F4
:10341000CA6822F08002CA600068C16841F04001B9
:10342000C160002070472DE9F041984617460E46CE
:103430000446069D1DE0681C1BD02DB1FEF7EEF979
:10344000A0EB0800A84214D92068C16821F4D0710B
:10345000C1602068416921F001014161202084F8A8
:10346000390084F83A00002084F838000320BDE8D1
:10347000F0812068006836EA000004D00020B842DD
:10348000D9D00020F3E70120F9E700000148FEF75A
:103490005DBF000098010020FEE703B401984100E1
:1034A000009850EAC12018BF04204A0D18BF40F010
:1034B000010040F2FF72B2EB515F08BF40F0020022
:1034C000012808BF052002B070470907090E00282F
:1034D00004DB00F1E02080F80014704700F00F00DA
:1034E00000F1E02080F8141D70470000000000008B
:1034F0002DE9F04D2DED040B2DED0E8B96B0DDE991
:103500002550279CDDF890A025F0004624F00048C7
:10351000BAF1000F14BF0121002101EB4502FC4963
:1035200053184A1093422AD3002814BF01230023C2
:1035300003EB44030B44F7498B4220D358EA0001C4
:103540009FEDF59B76D0DFF8D8B35D4503D1BAF196
:10355000000F05D188E0BAF1000F08BF002100D0AC
:10356000012101EB450111F5001F08D8002814BF07
:103570000121002101EB440111F5001F0BD99DED44
:10358000261B9DED240B16B0BDEC0E8B04B0BDE8E0
:10359000F04D00F0A9BE0027002DBCBFE1498845D1
:1035A00021DAE1498845A8BF02271CDAC3451ADCA5
:1035B000DE4901EB2851142908DDC1F1340220FA5B
:1035C00002F101FA02F282420DD108E058B9C1F1CC
:1035D000140228FA02F101FA02F2424503D101F085
:1035E0000101C1F1020756EA0A0124D1002C22DAB6
:1035F000002D18BF022F01D0012F0AD0022000F0A9
:10360000BFFE16B0BDEC0E8B04B0BDE8F04D00F06F
:1036100053BE022000F0B4FE00F04EFE51EC100B41
:1036200081F0004141EC100B16B0BDEC0E8B04B0E4
:10363000BDE8F08D18E09FEDBEAB9FEDBF8B00287D
:1036400071D1B848804522D105F1804010F5801035
:1036500008BFBAF1000F07D0B3450ADC002CA8BFA1
:103660009DED260BE0DA0DE0B0EE490AF0EE690AB6
:10367000DAE7002C06DA9DED260B51EC100B81F0F9
:1036800000416FE0AE48784490ED000BCCE7D845A0
:103690004DD1002C48DA2EB186423AD1BAF1000F52
:1036A00042D126E0BAF1000F13D0022000F068FEEC
:1036B00000F036FE8DED020B9DED240B8DED000B21
:1036C00010EE900A039961F31E0003909DED020B2A
:1036D000AAE78DED02AB9DED240B1AEE901A10EEC9
:1036E000900A8DED000B61F31E0003909DED020B1F
:1036F0009AE78DED028B9DED240B18EE901A10EEDB
:10370000900A8DED000B61F31E0003909DED020BFE
:103710008AE709DA9DED240B51EC190B53EC102BC1
:10372000FCF7BEFE1EE020E09DED240B7CE7864208
:103730001BDAB4F1804F0DD0A4F10050B0F1FF506E
:1037400013D1002D11DB9DED240B51EC100B00F07B
:10375000E0FF07E09DED240B53EC102B51EC100B18
:1037600000F0C2BC41EC100B5EE79DED240B51EC68
:10377000100B00F00BFEBAF1000FCDE90E0142D1A3
:103780009FED710B46B3A6F1E040B0F17F600CD025
:103790005E4538D1002D00DAA7B3022F0CBF0120FF
:1037A0004FF0FF30FCF7EBFEDCE7002D01DD002CD5
:1037B0000DDA002D01DD002C1FDB002D16DA002CA8
:1037C00014DB012F08BF9FED620B3FF42DAFB0EE6D
:1037D0004A0AF0EE6A0A27E7022F18BF002D0CD024
:1037E000012F0AD1002DFFF61FAF06E0002DB8BF54
:1037F000002C08DA012F3FF417AFB0EE480AF0EEC4
:10380000680A11E71BE0012000EBE57050EA0701B0
:1038100015D0791EB0EE498AF0EE698A084308BFD8
:103820009FED4D8B4E480025804570DD4D494E483B
:10383000884514DDB0420DDB002C19DB2FE00120A0
:1038400000F09EFD16B0BDEC0E8B04B0BDE8F04D4F
:1038500000F056BDB34502DC002C09DC1FE08642B7
:1038600002DA002C1BDA03E05E452BDD002C16DDAE
:10387000022000F085FD00F053FD8DED020B53ECAE
:103880001A2B51EC180BFCF799FDCDE900010399B7
:10389000019861F31E0003909DED020BC4E6022027
:1038A00000F06EFD00F04CFD10EE901A18EE900A3C
:1038B0008DED020B8DED008B61F31E0003909DEDED
:1038C000020BB1E69DED0E0B53EC192B51EC100BD6
:1038D000FCF76EFD9FED260BCDE9080153EC102B94
:1038E0009DED080B51EC100BFCF768FD9FED221BC2
:1038F00053EC112BFCF75FFD9DED081B53EC112BD6
:10390000FCF75CFD9FED1E1B53EC112B3CE08CE0A3
:10391000FFFF1F00FFFF0F00000000000000F03F4E
:103920000000F03F0000F07F0000404301FCFFFF7B
:10393000000000000000F07F000000000000000018
:103940009E11000000000000000000000000008048
:10395000000000000000F0FF000000000000F0BFC9
:103960000000E0410000F043FFFFEF3F00000000D7
:10397000000000000000D03F555555555555D53F26
:10398000000000000000E03FFCF715FD9DED080B76
:1039900041EC1A0B53EC102B51EC100BFCF70EFD05
:1039A00053EC1A2BFCF70AFD41EC1A0B9FEDFE0BB2
:1039B00053EC102B9DED080B51EC100BFCF7FEFCAB
:1039C00041EC1B0B9FEDFA0B51EC1A0B53EC102B37
:1039D000FCF7F4FC41EC1A0B9FEDF70B53EC102BAA
:1039E0009DED080B51EC100BFCF7E8FC53EC1A2B87
:1039F000FCF7DEFC41EC1A0B51EC1B0B53EC1A2BC1
:103A0000FCF735FC0690CDE906519DED060B53EC15
:103A10001B2B51EC100BFCF7CBFC53EC1A2BFCF7D7
:103A2000CAFC41EC100B00F0A1B90020B6F5801FD4
:103A30000EDA9FEDE30B53EC102B9DED0E0B51ECCA
:103A4000100BFCF7BBFCCDE90E016FF034000E4605
:103A500000EB2650A0F2FF37C6F31300DA4940F01E
:103A60007F6646F040568842D8BF002408DDD7491B
:103A70008142C8BF012403DC0024A6F580167F1C08
:103A8000D348784400EBC4000F9690ED00CB9DED39
:103A90000E0B53EC1C2B51EC100BFCF789FC9DED2D
:103AA0000E0B41EC1B0B53EC1C2B51EC100BFCF7D9
:103AB000DEFB41EC100B51EC190B53EC102BFCF717
:103AC000EFFC41EC1D0B51EC1B0B53EC1D2BFCF7D9
:103AD00075FC41EC1A0BBF488DED10AB7844109586
:103AE00090ED000B4FF0005040EA660000EB844080
:103AF0008DED080B00F5002009909DED080B53ECAF
:103B00001C2B51EC100BFCF753FC9DED0E1B53ECE2
:103B1000112BFCF750FC41EC100B53EC102B9DEDDE
:103B2000100B51EC100BFCF749FC9DED080B41EC20
:103B30001C0B53EC102B9DED100B51EC100BFCF7F4
:103B40003DFC53EC1B2BFCF736FC53EC1C2BFCF719
:103B50002FFC53EC1D2BFCF731FC41EC1C0B53EC00
:103B60001A2B51EC1A0BFCF729FC41EC1B0B9A4861
:103B70000621B0EE4B0AF0EE6B0A784400F01DFB14
:103B8000B0EE401AF0EE601AB0EE41DAF0EE61DA13
:103B900053EC1B2B51EC1B0BFCF710FC53EC1D2BB7
:103BA000FCF70CFC9DED100B41EC1B0B53EC1A2B9E
:103BB00051EC100BFCF75BFB53EC1C2BFCF7FEFBF2
:103BC00053EC1B2BFCF753FB9DED100B41EC1B0B37
:103BD00053EC102B51EC100BFCF7F0FB41EC1D0BE0
:103BE0009FED7FEB53EC1E2BFCF741FB53EC1B2BA3
:103BF000FCF73DFB0890CDE908519DED080B53EC17
:103C00001E2B51EC100BFCF7D3FB53EC1D2BFCF7D8
:103C1000CFFB53EC1B2BFCF7CEFB9DED080B41ECCF
:103C20001D0B53EC102B9DED100B51EC100BFCF702
:103C3000C5FB41EC1B0B53EC1A2B51EC1D0BFCF795
:103C4000BDFB9DED080B41EC1A0B53EC102B51EC16
:103C50001C0BFCF7B3FB53EC1A2BFCF708FB41ECF5
:103C60001A0B51EC1B0B53EC1A2BFCF700FB0C90BE
:103C7000CDE90C519DED0C0B53EC1B2B51EC100BB3
:103C8000FCF796FB53EC1A2BFCF795FB41EC1B0B56
:103C90009FED550B53EC102B9DED0C0B51EC100BC5
:103CA000FCF78CFB41EC1A0B9FED510B51EC1B0BFD
:103CB00053EC102BFCF782FB41EC1B0B9FED4E0BE2
:103CC00053EC102B9DED0C0B51EC100BFCF776FB1D
:103CD00053EC1B2BFCF7CBFA41EC100B4848784413
:103CE00000EBC40090ED001B51EC100B53EC112BBA
:103CF000FCF7BDFA41EC1B0B3846FCF740FCCDE964
:103D0000080153EC1B2B51EC1A0BFCF7B0FA41ECF9
:103D1000100B3C48784400EBC40090ED00CB51EC14
:103D2000100B53EC1C2BFCF7A2FA9DED081B53EC77
:103D3000112BFCF79CFA0690CDE906519DED080B7E
:103D400053EC102B9DED060B51EC100BFCF730FBE8
:103D500053EC1C2BFCF72CFB53EC1A2BFCF728FB29
:103D600053EC1B2BFCF727FB41EC100B9DED261BA6
:103D700053EC102B8DED001B00959DED260B51ECA7
:103D8000100BFCF71BFB9DED000B41EC1A0B53ECE9
:103D9000102B9DED260B51EC100BFCF709FB9DED54
:103DA000061B53EC112B2FE0000000604715F73F76
:103DB000FE822B654715F73F44DF5DF80BAE543E9E
:103DC00000000000000040438E9803007AB60B000C
:103DD0001A0D0000480D0000520C00000000000009
:103DE0000000000000000840000000E009C7EE3FAE
:103DF000FD033ADC09C7EE3FF5015B14E02F3EBE40
:103E0000DE0A0000980A0000FCF7D8FA53EC1A2BDF
:103E1000FCF72DFA9DED060B41EC1A0B53EC102B21
:103E20009DED000B51EC100BFCF7C8FACDE90C012D
:103E30009DED0C0B51EC1A0B53EC102BFCF717FA01
:103E4000CDE902010C46AA498C422FDB611A0843D6
:103E500018D19DED0C0B53EC102B9DED020B51EC8A
:103E6000100BFCF7A5FA41EC1B0B9FEDA30B51ECDB
:103E70001A0B53EC102BFCF7FAF953EC1B2BFCF745
:103E8000EBFC2DD2022000F07BFA00F049FA10EE94
:103E9000901A18EE900A8DED020B8DED008B61F3F8
:103EA0001E0003909DED020BFFF7BEBB944A24F069
:103EB0000041914214D39349214408437FF4EFAC6D
:103EC0009DED0C0B53EC102B9DED020B51EC100BE8
:103ED000FCF76EFA53EC1A2BFCF7BEFC7FF6DFAC56
:103EE00024F000408849894A002601EB2051824293
:103EF0002BDA481C4FF4801121FA00F02044844A48
:103F0000C0F30A517A44A1F2FF3192ED000B814ACD
:103F10008DED080BCA4020EA0202C0F3130040F402
:103F20008010C1F1140120FA01F60992002CB8BFEB
:103F300076429DED080B53EC102B9DED0C0B51ECD4
:103F4000100BFCF735FACDE90C019DED0C0B51EC93
:103F50001A0B53EC102BFCF78AF99FED6F0B0890AE
:103F6000CDE9085153EC102B9DED080B51EC100BD3
:103F7000FCF724FA41EC1B0B9FED690B53EC102B63
:103F80009DED080B51EC100BFCF718FA9DED0C0B96
:103F900041EC1C0B53EC102B9DED080B51EC100B5E
:103FA000FCF706FA53EC1A2BFCF705FA9FED5E1BA3
:103FB00053EC112BFCF702FA53EC1C2BFCF757F9CE
:103FC00041EC1A0B51EC1B0B53EC1A2BFCF74FF97D
:103FD000CDE902019DED020B53EC1B2B51EC100BB4
:103FE000FCF7E6F953EC1A2BFCF7E5F99DED020B13
:103FF00041EC1A0B53EC102B51EC100BFCF7DEF9D3
:10400000CDE908014A489DED080B0521784400F0F0
:10401000D4F89DED081B51EC100B53EC112BFCF761
:10402000CDF99DED021B53EC112BFCF7C4F9CDE942
:1040300006019DED020B53EC1A2B51EC100BFCF713
:10404000BDF953EC1A2BFCF712F99FED3B0B41EC39
:104050001A0B53EC102B9DED060B51EC100BFCF7DB
:10406000A7F99DED060B41EC1B0B53EC102B9DEDBE
:10407000020B51EC100BFCF7A1F953EC1B2BFCF7D6
:104080000FFA53EC1A2BFCF793F99DED021B53EC3E
:10409000112BFCF78DF953EC192BFCF78CF9CDE9BA
:1040A000020101EB065001150029C8BF039015DC81
:1040B0009DED020B324651EC100BFCF765FBFFF750
:1040C000ECF9042808BF00F03BF932469DED020BE5
:1040D00051EC100BFCF758FBCDE902019DED020BF2
:1040E00051EC180B53EC102BFCF768F9FFF73ABBB7
:1040F0000000904000000000FE822B654715973CB1
:1041000000CC904000346F3F01FCFFFF0000E03F17
:1041100020090000FFFF0F0000000000432EE63FD3
:10412000396CA80C615C20BEEF39FAFE422EE63FE6
:10413000F007000000000000000000000000004048
:1041400000B52DED048BB0EE409AF0EE609A83B08E
:1041500051EC190BFCF72FFB41EC180B18EE100A71
:1041600018EE901A8DED008B002818BF012008432F
:1041700020F00040C0F17F6000F1E040C00F14D09B
:1041800019EE101A19EE900A8DED009B002918BF48
:104190000121084320F00040C0F17F6000F1E040C1
:1041A000C00F04BF012000F0EBF8B0EE480A03B0E6
:1041B000F0EE680ABDEC048B00BD70B504462DED31
:1041C000028B4D1E00EBC500B0EE408AF0EE608A17
:1041D00090ED000B35F0060017D053EC182B51EC86
:1041E000100BFCF7EBF841EC100B6D1E04EBC50057
:1041F00090ED001B51EC100B53EC112BFCF737F832
:1042000041EC100B35F00600E7D1022D36D0042D1D
:104210001CD0062D1CBFBDEC028B70BD53EC182BBF
:1042200051EC100BFCF7CAF894ED0A1B53EC112B60
:10423000FCF71DF853EC182BFCF7C0F894ED081BA5
:1042400053EC112BFCF713F841EC100B53EC182B2B
:1042500051EC100BFCF7B2F894ED061B53EC112B4C
:10426000FCF705F853EC182BFCF7A8F894ED040BB9
:1042700053EC102BFBF7FBFF41EC100B53EC182B0E
:1042800051EC100BFCF79AF894ED021B53EC112B38
:10429000FBF7EDFF53EC182BFCF790F894ED001BA7
:1042A00053EC112BFBF7E3FFBDEC028B41EC100B41
:1042B00070BD0000000000009FED070B10B553EC2F
:1042C000102B9FED070B51EC100BFCF7E9F841ECBC
:1042D000100B10BD000000000000000000000000F6
:1042E000000000000000F03F10B553EC112B51EC22
:1042F000100BFBF7BCFF41EC100B10BD00000000E1
:104300009FED050B10B553EC102B51EC100BFCF787
:10431000C7F841EC100B10BD0000000000000000C9
:104320009FED050B10B553EC102B51EC100BFCF767
:1043300045F841EC100B10BD0000000000000070BB
:104340009FED050B10B553EC102B51EC100BFCF747
:1043500035F841EC100B10BD00000000000000100B
:1043600002E008C8121F08C1002AFAD1704770473E
:10437000002001E001C1121F002AFBD1704700009C
:1043800001490860704700005400002082B0CDE968
:10439000000121F0004001909DED000B02B051ECB6
:1043A000100B70470988DFED0B0A49BA00EE101AAE
:1043B00090ED0D1AB8EE400A60EE200A80EE810AF8
:1043C00080ED020A80ED060A80ED070A80ED080AFA
:1043D000704700000000B4432DED068B84B0FDF75C
:1043E0002BFAFEF7ABFDFEF749FCFEF731FCFEF7BA
:1043F0009BFCFEF73FFDFEF70BFCFEF7B7FCFEF75C
:104400001DFDFEF7E7FC764C0122D1032046FDF7A7
:10441000FFF900224FF400512046FDF7F9F97148E9
:10442000FCF74CFA704C0025257084F8905084F805
:10443000205184F8B051FCF7BFFA9FED6C2BB0EE21
:10444000423AF0EE623A9FED6B0BB0EE401AF0EE9E
:10445000601AFEF76BF9694E69487560FDF736FE24
:104460006848FDF733FE00F0EFF800F035F9664DCF
:10447000A046B2469FED659A04F1900003909030FB
:104480000290634E634FDFF890B19030DFF88C916B
:1044900001902868C0F5006000EE100AF8EEC00A2E
:1044A00080EE890A10EE100AFCF77AF841EC1A0B3C
:1044B00054468AED02AB3068C0F5006000EE100A89
:1044C000F8EEC00A80EE890A10EE100AFCF768F8D0
:1044D00041EC180B84ED048B3868A0F5006000EE09
:1044E000100AF8EEC00A80EE890A10EE100AFCF7F6
:1044F00057F841EC120BB0EE481A84ED062BF0EEA3
:10450000681AB0EE4A0AF0EE6A0AFEF7D1F95C4684
:104510009BED040A344800F0F3F894ED0A0A03987E
:1045200000F0EEF894ED100A029800F0E9F894ED2E
:10453000160A019800F0E4F898ED820ABDEEC00A70
:1045400010EE101A09B2009198ED5E0ABDEEC00A95
:1045500010EE101A98ED3A0A0BB2BDEEC00A10EE3A
:10456000101A98ED160A0AB2BDEEC00A10EE100A33
:1045700001B21C48FCF7D2F94846296840F8021FEE
:10458000396881603168416025490968C160254901
:10459000097801742449097841742449097881749F
:1045A00023490978C174234909780175224909789A
:1045B000417522490978817521490978C17500F052
:1045C00095F80120FDF736F89FED1E0A84ED160AD6
:1045D00084ED100A84ED0A0A84ED040A59E700000C
:1045E000000C02405800002068030020000000007A
:1045F000000000009A9999999999E13F00000020E4
:10460000D800002018010020380000200000FA43E4
:104610003C00002040000020380200201803002049
:104620004400002030000020310000203200002033
:104630003300002034000020350000203600002028
:1046400037000020000000000248FF21017099217E
:10465000417070471803002030B51D4D87B000240D
:1046600029191A226846FBF7DEFD9DF80000FF2895
:1046700003D19DF80100992804D0641C342CEFDB91
:1046800007B030BD1348DDF802108160DDF8061078
:10469000C160DDF80A100161DDF80E1041619DF87E
:1046A000121001709DF8131041709DF81410817064
:1046B0009DF81510C1709DF8161001719DF8171026
:1046C00041719DF8181081719DF81910C171D7E7DB
:1046D0003203002030000020342202490248FDF756
:1046E00069BF0000320300209801002032231A2203
:1046F00001490248FDF7BBBF180300205801002004
:1047000080ED120A90ED030A80ED110A3830FEF7B1
:10471000CFBB00B52DED048B83B041EC190BFCF73A
:104720004AF841EC180B18EE100A18EE901A8DEDAD
:10473000008B002818BF0120084320F00040C0F182
:104740007F6000F1E040C00F14D019EE101A19EE8E
:10475000900A8DED009B002918BF0121084320F02D
:104760000040C0F17F6000F1E040C00F04BF0120B5
:10477000FFF706FE51EC180B03B0BDEC048B00BD37
:1047800000061016000610160000000000000000D1
:1047900001020304060708090000000001020304E7
:1047A000000000000000F03F000000000000F83FA3
:1047B00000000000000000000000004003B8E23FDD
:1047C000000000000000000006D0CF43EBFD4C3E8F
:1047D000033333333333E33FFFAB6FDBB66DDB3F84
:1047E0004D268F515555D53F01411DA96074D13FCC
:1047F00065DBC9934A86CD3FEF4E454A287ECA3FC6
:104800003E5555555555C53F93BDBE166CC166BF47
:104810002CDE25AF6A56113FF16BD2C541BDBBBE40
:10482000D0A4BE726937663E0000000000000000A0
:1048300050480008000000205800000060430008B5
:10484000A848000858000020900B000070430008A2
:104850000000000000000000000000000000000058
:104860000000000000000000000000000000000048
:104870000100000010000000000000000024F4000F
:104880000000000000000000000000000000000028
:104890000000000000000000000000000000000018
:0848A000000000000000000010
:040000050800018965
:00000001FF
