:020000040800F2
:10000000900C0020A101000843330008832B000856
:1000100041330008650A0008193A00080000000092
:10002000000000000000000000000000B5340008DF
:10003000810D000800000000C7330008B734000835
:10004000BB010008BB010008BB010008BB010008A0
:10005000BB010008BB010008BB010008BB01000890
:10006000BB010008BB010008BB010008BB01000880
:10007000C50C0008BB010008BB010008BB0100085B
:10008000BB010008BB010008BB010008BB01000860
:10009000690A0008BB010008BB010008BB01000899
:1000A000BB010008BB010008BB010008BB01000840
:1000B000BB010008BB0100086D350008BB0100084A
:1000C000BB010008BB010008BB010008BB01000820
:1000D000BB010008BB010008BB010008BB01000810
:1000E000BB010008BB010008BB010008BB01000800
:1000F000BB010008BB010008BB010008BB010008F0
:10010000BB010008BB01000879350008BB010008ED
:10011000BB010008BB010008BB010008BB010008CF
:10012000BB010008D10C0008BB010008BB0100089E
:10013000BB010008BB010008BB010008BB010008AF
:10014000BB010008BB010008BB010008BB0100089F
:10015000BB010008BB010008BB0100080D3A000804
:10016000BB010008BB010008BB010008BB0100087F
:10017000BB010008BB010008BB0100080000000033
:10018000BB010008BB010008DFF810D000F09CFBA9
:100190000048004795490008AFF30080900C00200C
:1001A0000648804706480047FEE7FEE7FEE7FEE711
:1001B000FEE7FEE7FEE7FEE7FEE7FEE75135000853
:1001C000890100082DE9F05F0546002092469B4614
:1001D00088460646814640241BE02846414647465D
:1001E000224600F03AFA53465A46C01A914110D3BB
:1001F00011461846224600F021FA2D1A67EB010835
:100200004F4622460120002100F018FA17EB0009A2
:100210004E41201EA4F10104DFDC484631462A4647
:100220004346BDE8F09F40EA01039B0703D009E085
:1002300008C9121F08C0042AFAD203E011F8013BD2
:1002400000F8013B521EF9D27047D2B201E000F82B
:10025000012B491EFBD270470022F6E710B513466A
:100260000A4604461946FFF7F0FF204610BD2DE967
:10027000FE4F804681EA0300C00F0C46009021F03B
:10028000004123F00045B8EB0200A94105D24046E9
:10029000214690461C460B46024623F00040104380
:1002A00047D0270DC7F30A00C3F30A510290401A42
:1002B000019040286BDAC3F3130040F4801B0098D0
:1002C000924620B10023D2EB030A63EB0B0B01989B
:1002D0005946C0F14002504600F0B0F906460D46BE
:1002E00050465946019A00F0C8F910EB08006141E8
:1002F000002487EA115284EAE7731A4340D0009A37
:1003000062B3019A012A4FEA075215DC001B61EB28
:1003100002014FF0004202EA0752CDE90042001C00
:1003200041F5801132462B4600F0FFF903B0BDE8DD
:10033000F08F40462146F9E7001B61EB0201001CEB
:1003400041F5801300185B412018A2F5001747EB18
:10035000030140EAD570B6196D4111E06D084FEA0E
:10036000360645EAC0754FEA0752001B61EB0201F1
:10037000001C41F5801149084FEA30000019514135
:1003800032462B4603B0BDE8F04F00F0BFB90098ED
:10039000012240000023D0EB020263EBE0730098DF
:1003A00021464FEAE074B8EB000061EB0401E9E795
:1003B00083F000435BE781F0004158E72DE9FE4FF1
:1003C00081EA030404F0004421F0004100944FF05E
:1003D000000B23F0004350EA01045ED052EA03040C
:1003E0005BD0C3F30A54C1F30A552C44A4F2F3348E
:1003F0000194A0FB0254C1F3130141F48011C3F333
:10040000130343F4801301FB024400FB034E840AF0
:10041000970A44EA815447EA8357A4FB0768029588
:100420008D0A05FB07854FEA932C04FB0C54270526
:10043000029D4FEA065847EA1637B5EB08056EEB02
:10044000070C870E920E47EA811742EA8312A7FB38
:100450000201B6EB0B0164EB00042B0D43EA0C33F5
:100460005E1844EB1C50DA465146E7FB0201C5F327
:1004700013044FEA0B3343EA14534FEA0432019C4E
:1004800043EA0603A4F10C040294009CCDE900B4F5
:1004900000F04BF903B0BDE8F08F00200146F9E70A
:1004A0002DE9F04D81EA030404F0004B21F00045F2
:1004B00014464FF0000A23F0004150EA050220D014
:1004C00054EA01021DD0C5F30A570246C5F31303CF
:1004D000C1F31300C1F30A5640F4801543F48013AE
:1004E000A7EB0608101BD64608F2FD3873EB050093
:1004F00002D308F1010801E092185B41B8F1000F46
:1005000003DA00200146BDE8F08D00204FF4801191
:10051000064684460EE0171B73EB050705D3121B36
:1005200063EB050306434CEA010C49084FEA30002F
:1005300092185B4150EA0107EDD152EA030012D054
:1005400082EA040083EA0501084305D0101BAB4191
:1005500006D20122002306E000224FF0004302E011
:100560006FF0010253101AEB06004CEB085110EB30
:100570000A0041EB0B01BDE8F04D00F0C7B80EB525
:10058000C10F80EAE0700844CA07002140F23343FB
:100590008DE80E000A460B4600F0C7F803B000BD18
:1005A00070B5C1F30A5201F000450024C1F31301F4
:1005B00040F2FF3341F480119A4201DA002070BD0D
:1005C00040F233439A42A2F2334203DC524200F03B
:1005D00044F800E090402C43F1D0404270BD00F060
:1005E000004230F000400AD0C10D01F56071C0F347
:1005F000160042EA0151C20840071143704700202B
:100600000146704701F0004330B421F0004150EA48
:10061000010206D00A0DA2F56072C1F31301002A8F
:1006200002DC30BC00207047440F44EAC104C10022
:10063000E01830BC00EBC25000F031B8202A04DBD7
:10064000203A00FA02F1002070479140C2F12003E5
:1006500020FA03F3194390407047202A04DB203A24
:1006600021FA02F00021704721FA02F3D040C2F1D2
:1006700020029140084319467047202A06DBCB1719
:10068000203A41FA02F043EAE07306E041FA02F34D
:10069000D040C2F12002914008431946704700291A
:1006A000A8BF7047401C490008BF20F001007047F8
:1006B00010B4B0FA80FC00FA0CF050EA010404BF58
:1006C00010BC704749B1CCF1200421FA04F411FAAE
:1006D0000CF118BF012121430843A3EB0C01CB1DF2
:1006E0004FEA00614FEA102042BF002010BC704763
:1006F00000EBC35010440029A4BF10BC7047401C3D
:10070000490008BF20F0010010BC704710B5141E4E
:1007100073F1000408DA401C41F1000192185B41BA
:100720001A4301D120F0010010BD2DE9F04D924691
:100730009B4611B1B1FA81F202E0B0FA80F22032A8
:100740009046FFF77BFF04460F4640EA0A0041EA65
:100750000B0153465A46084313D0114653EA010091
:1007600019D0C8F140025046FFF777FF05460E4604
:10077000504659464246FFF761FF084305D0012025
:1007800004E020463946BDE8F08D0020054346EAE6
:10079000E0762C4337430A986305E40AA0EB08008F
:1007A0000022FD0A44EA47540A3002D500200146DF
:1007B000E9E7010510196941DDE9084500196941BA
:1007C000BDE8F04DA2E770B521F0004303430CD023
:1007D000C1F30A550024D5EB040564EB0403D617D6
:1007E000AD1AB34102DB0020014670BD201841EB79
:1007F000025170BD2DE9F04D00231A461B1A8A41A3
:1008000003DB00200146BDE8F08DC1F30A52C1F3BD
:10081000130141F480154FF0000BD10702D10018ED
:100820006D41521E0027044640F2FF11384601EB8D
:10083000620A3E468046024600204FF48011FFF7D0
:100840000CFFC2197141BB1846EB0100B4EB030C5D
:1008500075EB000C04D3E41A65EB000517460E4651
:10086000241908F101006D4180463428E3DDF919AF
:1008700046EB0600091BA84103D24FF0FF32134696
:1008800001E0002213461BEB070046EB0A51BDE8CE
:10089000F04DFFF73BBF000030B5041E71F10004BE
:1008A00004DB4FF00044404264EB0101141E73F17D
:1008B000000405DB1C464FF00043524263EB040387
:1008C000994208BF904230BD064C074D06E0E068F3
:1008D00040F0010394E8070098471034AC42F6D387
:1008E000FFF756FC285000084850000810B500F0EB
:1008F0004DF8642000F080FF0621002000F09CF8F5
:100900000821012000F098F80021022000F094F85E
:10091000A121032000F090F80021BDE81040042040
:1009200000F08AB810B51021034801F053F808B15F
:10093000002010BD012010BD000002403EB5012086
:1009400000F03AF8002401940520029403F0DEFF41
:10095000601E0090032301AA02A90B4801F0F0FBDE
:100960009DF804009DF8051044EA004040EA01218A
:100970009DF806000843010204D5C043C0F31600E9
:10098000401C40423EBD00008400002010B5094CD0
:1009900000220421204601F022F80A2000F02CFF5A
:1009A00001220421204601F01AF8BDE810400A2077
:1009B00000F022BF0004024001B582B04FF0FF30CA
:1009C0000090012301AA02A9044801F0B9FB052007
:1009D00003F09CFF9DF804000EBD00008400002081
:1009E00070B500245FF0010505EB440141EA4410B5
:1009F0004FFA80F6FFF796FF0028FBD0F1B20120F6
:100A000000F01AF8FC20FFF7D7FFFF20FFF7D4FF14
:100A1000FFF794FFE11CCA1701EB927222F0030268
:100A2000891A044A641C64B242F82100042CDBDBFE
:100A300070BD00002408002070B50D464FEA000488
:100A4000FFF770FF0028FBD004F00F0040F05000CB
:100A5000FFF7B2FF0020FFF7AFFF2846BDE8704068
:100A6000FFF7AABFFEE70000014800F01EBB000030
:100A70005C00002010B58AB0002101220446CDE9B7
:100A80000612039104910E20CDE9082005910091F2
:100A9000019102916946204600F0F6F908B100F094
:100AA00070F9204600F0F0FC08B100F06AF902216C
:100AB000204600F068F908B100F063F90AB00020A0
:100AC00010BD0000002A02D1014900F035B870477E
:100AD0004000002030B589B00825044606950C98E2
:100AE000AD0102950025049505950D0A8DF800507D
:100AF0008DF80110110A8DF80210190A8DF80410F2
:100B00008DF80530010A8DF806108DF803208DF858
:100B10000700204600F0B3FA0028FAD0054B6A46D9
:100B200002A9204600F041F9002801D000F029F97F
:100B300009B030BD3C00002000B5A0F2012008281B
:100B400012D200EBC002094800EB021250683228B2
:100B5000104605DA03F004FF5068401C506001E0C5
:100B600000F04CF8002000BD012000BDA4030020CF
:100B70009FED1A1ADFED1A1A9FED1A2ADFED1A2AD5
:100B80001A4A9FED1B3A0021F2EE0E0AB7EE000A58
:100B900001EBC10002EB0010C0ED0E0A80ED0F0A60
:100BA00080ED100A80ED171AC0ED191A80ED1A0AAF
:100BB00080ED1B2AC0ED222A037813B1012B03D04C
:100BC00006E0DFED0C3A01E0DFED0B3AC0ED0C3A48
:100BD000491C80ED0D3A0829DADB70470000FA4520
:100BE0000000A0420000000000409C45A40300203B
:100BF000000000462CA09941000010420A88DFED59
:100C00002E1A52BA00EE102A90ED0D1A2B4BB8EEA8
:100C1000400A60EE210A80EE810A80ED020A4A88CD
:100C200052BA12B200EE902AB8EEE01A80ED031A22
:100C3000898849BA09B200EE901AF8EEE00AC0EDD0
:100C4000040AD0ED070AC0ED060A70EE600A80EDD6
:100C5000070A416A10EE902A9A4201DD491E05E01A
:100C600010EE902A164B9A4201D9491C416200EEBF
:100C7000901A4FF4B4725143F8EEE00A60EEA11AF4
:100C8000D0ED080A30EE602A72EE211A90ED0C2A9F
:100C9000C1EE822AC1EE021A01EE101AC0ED0A2A34
:100CA000B8EEC11A31EE000A30EE600AC0ED0B1A40
:100CB00080ED050A704700000000B4430000344393
:100CC000000034C3014800F025BC00001C020020D5
:100CD000014800F01FBC00007C02002001681823BE
:100CE000CAB2103AB2FBF3F2054B6FF30901032AC3
:100CF0009B5CC36500D9091D8165084670470000EB
:100D0000784F000810B5014600208B698A6A4FF0C1
:100D1000C07453B1B3F5005F15D072B1012A0CD085
:100D2000022A0AD0032A09D104E01AB1012A06D006
:100D3000022A03D1C96AC90100D5012010BDC96AC0
:100D4000A142FAD010BD002AF7D0012AF2D0022A1F
:100D5000F3D0032AF3D010BD30B50468256825F41C
:100D600080252560046863608368402B036803D096
:100D700099600068C26030BD9A600068C16030BD93
:100D8000704772B6FEE790F82020012A07D0022AA9
:100D900005D0416A41F4802141620120704700681A
:100DA00042690A43426100207047F0B590F8205034
:100DB0000468A468012D05D0022D03D0416A41F4D6
:100DC00080215DE014F0406F01D1E50055D5C4F3FA
:100DD0000164022C03D9416A41F4000150E001256D
:100DE000A5401D608D684FF4C0739DB1CE6835433A
:100DF0004E6845EAC605066803EB0417F5514FF443
:100E0000C275076805EB04150E697E51097D01293D
:100E100005D009E00E88CD6845EA4655EBE7016844
:100E20004E5946F480764E511179D579567941EA7A
:100E3000056195792D0445EA062529434FF4C676C8
:100E4000056806EB0416A9511178D57841EA0561C9
:100E5000957852782D0445EA022211434FF4C47567
:100E6000026805EB04155151006803EB0411425868
:100E700042F0010242500020F0BD416A41F40011ED
:100E800041620120F0BD000010B590F82020012A39
:100E900007D0022A05D0416A41F480214162012035
:100EA00010BD3B48D0F8002242F00102C0F80022F9
:100EB000D0F8002222F47C52C0F80022D0F80022A0
:100EC0004B6A42EA0322C0F800220A7D02F01F03A7
:100ED00001229A40D0F81C329343C0F81C32CB69EF
:100EE000B3B9D0F80C329343C0F80C328C894B68FC
:100EF00064F31F434C6900EBC404C4F840320C890E
:100F00000B6864F31F434C6900EBC404C4F844321B
:100F1000CB69012B16D1D0F80C321343C0F80C3238
:100F20000C884B6864F31F434C6900EBC404C4F89D
:100F300040320C89CB6864F31F434C6900EBC40456
:100F4000C4F844328B69002BD0F804320ED013431E
:100F5000C0F804320B69002BD0F8143208D01343C8
:100F6000C0F81432096A012904D008E09343EFE77E
:100F70009343F5E7D0F81C121143C0F81C12D0F8C7
:100F8000001221F00101C0F80012002010BD000085
:100F900000640040704730B590F82040012C05D027
:100FA000022C03D0416A41F480215DE004680029ED
:100FB00055D02469A40754D04FF4D874056804EBC5
:100FC00001142D5915F00405956005682D594ED072
:100FD000ED08556005682C5904F00204D4604FF404
:100FE000DA74056804EB01142D5905F00F0515613D
:100FF00005682D59C5F30725956105682C59240C02
:1010000054614FF4DC72046802EB0112A4581C70A6
:101010000468A458240A5C700468A458240C9C70CA
:101020000468A258120EDA704FF4DE72046802EB04
:101030000112A4581C710468A458240A5C71046845
:10104000A458240C9C710468A258120EDA7100682E
:1010500081B1016941F020010161002030BDE468E7
:10106000A8E7416A41F400114162012030BD6D0DD5
:101070001560AFE7C16841F02001C160EDE70246AD
:10108000002092F82010012901D002290CD111680A
:101090008A68520100D501208A68120100D5401CDF
:1010A0008968C90000D5401C70472DE9F05F0546EE
:1010B000006800244669D0F804908768D0F80CB026
:1010C000D0F810A0D0F81880F10748D0F90714D054
:1010D00001218160B80703D5284600F002FA0CE030
:1010E000780702D54FF4006407E0380702D54FF4C3
:1010F000805402E0284600F0F3F9F80516D5296877
:101100004FF480708860B80503D5284600F0EBF9ED
:101110000CE0780502D544F4005407E0380502D508
:1011200044F4804402E0284600F0DCF9F80316D5C8
:1011300029684FF480308860B80303D5284600F052
:10114000D4F90CE0780302D544F4004407E03803F6
:1011500002D544F4803402E0284600F0C5F9300797
:1011600007D55FEACB6004D52968102044F40074E9
:10117000C86070074FF0080707D55FEA0B7004D509
:101180002868C760284600F059F9B00706D52868D6
:10119000C068800702D0284600F052F9700607D5D3
:1011A0005FEACA6004D52968102044F480640861AD
:1011B000B00607D55FEA0A7004D52868076128469B
:1011C00000F05EF9F00606D528680069800702D0B5
:1011D000284600F056F9B00308D55FEAC96005D586
:1011E000296810204860284600F04CF9F00307D524
:1011F0005FEA097004D528684760284600F076F950
:10120000300446D55FEA497040D5F00504D55FEA61
:10121000C87001D044F00104B00504D55FEA8870BD
:1012200001D544F00204700504D55FEA487001D589
:1012300044F00404300529D518F0700F26D008F0CA
:101240007000402815D006DC102809D020280AD0CC
:10125000302816D10AE050280ED0602811D10EE0B7
:1012600044F008040DE044F010040AE044F02004C7
:1012700007E044F0400404E044F0800401E044F45A
:1012800080742868816921F07001816129680420D7
:101290004860002C05D0686A204368622846FFF742
:1012A00079FEBDE8F09F70B5040003D094F82000EB
:1012B00010B104E0012070BD204600F081F82068E4
:1012C000016821F00201016000F08EFB0546052651
:1012D00004E000F089FB401B0A2811D82068406810
:1012E0008007F6D42068016841F00101016000F038
:1012F0007BFB05460BE000F077FB401B0A2806D974
:10130000606A40F40030606284F82060D2E72068B0
:101310004068C007EFD0207E0128206801683DD0DA
:1013200021F080010160607E01282068016838D0CA
:1013300021F040010160A07E01282068016833D0BF
:1013400021F020010160E07E0128206801682ED094
:1013500041F010010160207F01282068016829D038
:1013600021F008010160607F01282068016824D015
:1013700021F004010160D4E902010843D4E9041218
:10138000114308436168491E08432168C861002071
:101390006062012084F82000002070BD41F08001CF
:1013A000C0E741F04001C5E741F02001CAE721F064
:1013B0001001CFE741F00801D4E741F00401D9E77B
:1013C00010B586B0044614216846FEF745FF18495B
:1013D0002068884229D117480021026842F0007233
:1013E0000260006800F00070059012481038026832
:1013F00042F001020260006800F0010005904FF425
:10140000C05000900220CDE9010103200390092083
:1014100004906946084800F001FA002211461420A1
:1014200000F050FB142000F03FFB06B010BD0000A0
:101430000064004040380240000002407047000055
:1014400000B50D4A01688BB01268914212D10B4B66
:1014500003AA0021FFF79FFD08B1FFF792FC07AB3D
:101460000DF10C0C93E807008DE807009CE80F00D5
:10147000FFF728FB0BB000BD5C00002040000020FF
:10148000704770477047000070B5044690F8200020
:10149000012804D0606A40F40020606218E0022055
:1014A00084F820002068016821F00101016000F04B
:1014B0009BFA05460EE000BF00F096FA401B0A2892
:1014C00008D9606A40F400306062052084F820008A
:1014D000012070BD20684068C007EDD1606270BD1A
:1014E000704770477047704770477047704790F873
:1014F0003510022903D08021416501207047052164
:1015000080F835100068016821F0010101600020B9
:10151000704700002DE9F84304464FF00009CDF86C
:10152000009063484FF41651A56D0068B0FBF1F7C9
:101530002E6894F85C10082000FA01F131420FD0B7
:1015400021680A6852070BD50A6822F004020A6073
:1015500094F85C108840A860606D40F00100606500
:1015600094F85C104FF0010808FA01F0304208D0FE
:1015700021684969090604D5A860606D40F0020041
:10158000606594F85C1004208840304208D02168DF
:101590000968890704D5A860606D40F004006065A3
:1015A00094F85C1010208840304218D021680968F7
:1015B000090714D5A86020680168490304D50068AC
:1015C000000308D5A16C07E00168C90503D40168D0
:1015D00021F008010160216C09B12046884794F888
:1015E0005C1020208840304231D021680968C9064B
:1015F0002DD5A86094F8350005282068016806D02C
:10160000490347D5006800031DD4616C1CE021F03C
:10161000160101602068416921F080014161206C60
:1016200008B9A06C20B12068016821F008010160B0
:1016300094F85C103F208840A86084F8349084F8C7
:101640003580216D1FE0E16B09B120468847606D50
:1016500000282BD0606DC00714D0052084F8350019
:101660002068016821F0010101600098401C009091
:10167000B84203D820680068C007F6D184F83490D7
:1016800084F83580E16C002910D001B02046BDE817
:10169000F04308470168C905D5D4016821F010015D
:1016A000016084F8349084F83580CCE7BDE8F88395
:1016B000540000202DE9F041044600F095F906465B
:1016C0005CB1002584F83450022084F8350020688D
:1016D000016821F0010101600DE00120BDE8F08109
:1016E00000F082F9801B052805D9202060650320C1
:1016F00084F83500F2E720680068C007F0D122685E
:10170000116820480140D4E901031843D4E90336A5
:101710003343184363691843A3691843E3691843C3
:10172000236A18430843616A042903D1D4E90B13DF
:1017300019430843106020684069666A20F0070179
:1017400030460E43012704280CD1A06A0643E06A04
:1017500040B12046FFF7D6FA20B14020606584F8FA
:101760003570BAE7206846612046FFF7B7FA94F86B
:101770005C203F2191408160656584F835700020D0
:10178000ACE700003F8010F02DE9F0410446866D83
:1017900090F83400002501280DD0012084F8340091
:1017A00094F835700020012F07D084F8340002250A
:1017B0002846BDE8F0810220FBE7022784F8357057
:1017C00060652046FFF7C8FA94F85C103F20884017
:1017D000B0602068016841F016010160206C20B102
:1017E0002068016841F0080101602068016841F04B
:1017F00001010160DCE7000070B5044600F0F4F878
:101800000546601C02D004480078044400F0ECF85F
:10181000401BA042FAD370BD480000202DE9F84FCC
:1018200000224FF0010803254FF00F0E0B6808FA55
:1018300002F42340A3426ED14E68012E05D0022E41
:1018400003D0112E01D0122E12D186684FEA420C1D
:1018500005FA0CF7BE43CF6807FA0CF737438760E9
:101860004668A6430C79C4F30014944034434460A2
:10187000C668570005FA07FC8C6826EA0C06BC40CF
:101880003443C4604C68022C01D0122C13D1D4080C
:1018900000EB8404A346D4F8209054074FEAD46A9E
:1018A0000EFA0AF629EA06090E6906FA0AF646EA67
:1018B0000906CBF8206006680C7926EA0C0604F0CD
:1018C0000304BC40344304604C68E40065D5364CE6
:1018D000266846F480462660246822F0030604F455
:1018E00080440094314C3444A446D4F80848960708
:1018F000370F0EFA07F6B4432D4EB04201D1002641
:1019000024E02C4EB04201D101261FE02A4EB04205
:1019100002D102261AE040E0284EB04201D103264F
:1019200014E0274EB04201D104260FE0254EB0420C
:1019300001D105260AE0244EB04201D1062605E079
:10194000224EB04201D1072600E00826BE402643C1
:10195000CCF808681E4E34684F689C43FF0300D5DE
:101960001C4334601A4C241D26684F689E43BF03F5
:1019700000D51E432660164E083634684F689C43D7
:10198000FF0200D51C433460114E0C3634684F689A
:101990009C43BF0200D51C433460521C102AFFF444
:1019A00045AFBDE8F88F00004438024000300140E8
:1019B000000002400004024000080240000C024007
:1019C000001002400014024000180240001C0240B7
:1019D000003C01400069084000D0012070470AB176
:1019E000816170470904FBE7014880687047000087
:1019F00048000020024881680278114481607047E5
:101A0000480000200B4810B5016841F400710160E6
:101A1000016841F480610160016841F480710160F6
:101A2000032000F06FF8002000F006F800F024F822
:101A3000002010BD003C024070B50D4D04464FF42F
:101A40007A712878B1FBF0F00A490968B1FBF0F02F
:101A500000F067FC48B9102C07D200222146501E26
:101A600000F030F800206C6070BD012070BD0000F7
:101A700048000020540000200A4808B5016841F4DD
:101A800080410160006800F4804000900548001F1C
:101A9000016841F080510160006800F080500090C2
:101AA00008BD000044380240002809DB00F01F0296
:101AB000012191404009800000F1E020C0F80011B0
:101AC00070470000F0B40E4B1B680C46C3F30223B2
:101AD000C3F10705042D00D90425191D072901D2DA
:101AE000002300E0DB1E012606FA05F1491E214015
:101AF00099409E40761E16403143F0BC01F0A5BFD0
:101B00000CED00E0064900F0070208684FF6FF03FD
:101B1000184040EA0220034A104308607047000062
:101B20000CED00E00000FA052DE9F0470E46050037
:101B300065D0DFF81481D8F80000F7B200F00F008C
:101B4000B04207D288F80070D8F8000000F00F000B
:101B5000B04254D128683D4C810712D5400703D5C7
:101B6000206840F4E05020602878000703D5206802
:101B700040F4604020602068A96820F0F00008432D
:101B800020602878C0072DD03049686808390128BE
:101B900012D0022813D0032811D009688907002920
:101BA0002DDA216821F0030101432160FFF71CFFBA
:101BB000814641F2883A0EE009688903EFE7096837
:101BC0008901ECE7FFF710FFA0EB0901514502D9AD
:101BD0000320BDE8F0872068696800F00C00B0EBD6
:101BE000810FEFD1D8F80010404601F00F01B1424B
:101BF00007D90770006800F00F00B04201D0012043
:101C0000E7E72878400705D52068E96820F4E05028
:101C1000084320602878000706D52068296920F449
:101C2000604040EAC100206000F038F82168084AAE
:101C3000C1F30311515CC8400649086006480068BA
:101C4000FFF7FAFE0020C4E7003C024008380240DB
:101C5000804F0008540000204C0000200448054933
:101C600000680968044AC1F38221515CC84070478A
:101C70005400002008380240904F000804480549ED
:101C800000680968044AC1F34231515CC84070479A
:101C90005400002008380240904F0008154810B545
:101CA000006810F00C02144813D04110042A0FD021
:101CB000082A0ED10F4C241F2268236802F03F022D
:101CC0005B0207D52068C0F38810A0FB010106E085
:101CD000084610BD2168C1F38811A1FB0001002353
:101CE000FEF770FA2168C1F30141491C4900B0FBBD
:101CF000F1F010BD083802400024F4002DE9F84F3F
:101D000004006ED02078DFF83C93C007A9F10405E9
:101D10004AD009F104000168C1F38101012908D00A
:101D20000068C0F3810002280AD1D9F800004002FF
:101D300006D52868800337D560680028E1D033E0F5
:101D40006068B0F5803F10D0B0F5A02F286810D0A3
:101D500020F480302860286820F4802028606068A3
:101D6000A8B1FFF741FE06460DE0286840F4803038
:101D7000F4E740F480202860F7E700BFFFF734FE67
:101D8000801B642873D828688003F7D50CE0FFF720
:101D90002BFE064605E000BFFFF726FE801B6428E9
:101DA000F0D828688003F7D42078DFF89C82800779
:101DB0004FF0000A3ED5A348001D016811F00C0F3A
:101DC00008D00068C0F3810002280BD1D9F80000C8
:101DD000400207D42868800716D5E068012800D1A2
:101DE00012E02BE1E068B8B10120C8F80000FFF76D
:101DF000FBFD064605E000BFFFF7F6FD801B02284D
:101E0000C0D828688007F7D52868216920F0F80035
:101E100040EAC10028600DE0C8F800A0FFF7E4FD2B
:101E2000064604E0FFF7E0FD801B02281FD8286863
:101E30008007F7D42078000722D5824E8348616955
:101E4000703671B101210160FFF7CEFD074604E055
:101E5000FFF7CAFDC01B022809D830688007F7D5F4
:101E60000EE0C0F800A0FFF7BFFD074605E082E0E6
:101E7000FFF7BAFDC01B02287DD830688007F7D471
:101E80002078400768D5DFF8BCB100270BF13C0B88
:101E9000DBF80000C0000BD4DBF8001041F08051EB
:101EA000CBF80010DBF80000012700F08050009014
:101EB000674E3068C00510D4306840F480703060E0
:101EC000FFF792FD009005E0FFF78EFD0099401AA4
:101ED000022850D83068C005F6D55A4EA0686C3636
:101EE00001280FD00528306810D020F001003060A4
:101EF000306820F004003060A068B8B1FFF774FDCE
:101F000000900FE0306840F00100F4E740F004007A
:101F10003060F7E7FFF768FD0099411A41F2883019
:101F2000814266D830688007F4D50EE0FFF75CFD8B
:101F3000009007E0FFF758FD0099411A41F2883000
:101F4000814256D830688007F4D42FB1DBF80010F6
:101F500021F08051CBF80010A069C8B33949091DA0
:101F60000968C1F3810102294AD00228504607D0EE
:101F7000C8F8600000E03CE0FFF736FD04463BE0B7
:101F80004746C8F86000FFF72FFD064605E000BF92
:101F9000FFF72AFD801B02282BD828688001F7D480
:101FA000D4E907010843A16A2A4A490802EB014122
:101FB000626A41EA8211084394F82C1040EA0161F8
:101FC000C9F8001001203866FFF70EFD044606E050
:101FD00036E000BFFFF708FD001B022809D828687B
:101FE0008001F7D52CE000BFFFF7FEFC001B0228A4
:101FF00002D90320BDE8F88F28688001F4D41FE0DF
:102000000128F7D0D9F80000E26900F4800191427C
:1020100014D1226A00F03F0191420FD147F6C071FE
:10202000626A0140914209D1A26A00F440319142B2
:1020300004D1E16A00F07060884201D00120D9E744
:102040000020D7E70438024000004742800E474294
:10205000007000400000FFFF70B5040005D00025AF
:10206000A56294F8510010B106E0012070BD84F81B
:102070005050204600F030F8022084F851002068CB
:10208000016821F040010160D4E901010843D4E96D
:1020900003121143084361690843218B01F4007165
:1020A0000843E1690843216A0843A16A084321689B
:1020B0000860A069042101EA1040616A08432168B0
:1020C00048602068C16921F40061C1616565012033
:1020D00084F85100002070BD10B586B0044614216C
:1020E0006846FEF7B9F813492068884220D11248A3
:1020F0000021026842F480520260006800F48050BF
:1021000005900D481438026842F001020260006830
:1021100000F001000590E02000900220CDE90101CF
:10212000032003900520049069460448FFF776FBDE
:1021300006B010BD003001404438024000000240AB
:102140002DE9F84F044690F8500000270A9E1D46DE
:1021500092468B464FF0010901280ED0012084F8E9
:102160005000FFF741FC804694F851006168012857
:102170000CD0B1F5827F07D102E00220BDE8F88FD4
:10218000A16809B9042801D00227C2E0BBF1000F01
:1021900027D0BAF1000F24D01DB394F851000428C1
:1021A00002D0052084F8510000206065C4F838A0F2
:1021B000E587A587C4F830B0E586A586206460640D
:1021C00020680168490603D4016841F040010160BC
:1021D000E068B0F5006F606805D0E8B3012D46D027
:1021E0007FE0012795E008B1012D39D1206B2168EE
:1021F0000088C860206B801C2063E08E401EE08653
:102200002EE02068816889070FD5E18E69B1B9F1A8
:10221000010F0AD1216B0988C160206B801C2063EB
:10222000E08E401EE0864FF0000920688168C907F3
:102230000CD0E18F51B1C068A16B0880A06B801CED
:10224000A063E08F401EE0874FF00109FFF7CCFB51
:10225000A0EB0800B04200E009E001D3701C50D1AF
:10226000E08E0028CDD1E08F0028CAD13FE0206B5E
:10227000216800780873206B401C2063E08E401EAC
:10228000E0862EE02068816889070FD5E18E69B16C
:10229000B9F1010F0AD1216B09780173206B401C41
:1022A0002063E08E401EE0864FF0000920688168C0
:1022B000C9070CD0E18F51B1C068A16B0870A06B49
:1022C000401CA063E08F401EE0874FF00109FFF73C
:1022D0008BFBA0EB0800B04202D3701C01D010E0D1
:1022E0007EB1E08E0028CDD1E08F0028CAD14246D1
:1022F0003146204601F068F828B1012720206065AA
:1023000007E0032705E0A06818B92068C168806865
:102310000090012084F85100002084F850003846D5
:102320002CE710B5401EB0F1807F01D3012010BD15
:102330004FF0E02460610F21601701F086FB002060
:10234000A06107202061002010BD70477047000089
:1023500070B590F83C20012A32D0012480F83C402E
:10236000022280F83D2003685A689D6822F07006BA
:102370000A6832435A60134B02689A4214D0B2F191
:10238000804F11D0104B9A420ED0104B9A420BD076
:102390000F4B9A4208D00F4B9A4205D00E4B9A42EF
:1023A00002D00E4B9A4204D1496825F080031943AC
:1023B000916080F83D40002180F83C10084670BDD7
:1023C000022070BD000001400004004000080040F1
:1023D000000C004000040140004001400018004093
:1023E00010B5040003D094F83D0010B107E00120BF
:1023F00010BD002084F83C00204600F00DF80220BB
:1024000084F83D00211D206801F0BCF8012084F80B
:102410003D00002010BD000008B5154A01681548B0
:1024200091420ED1016841F0040101600068002270
:1024300000F00400009011461E20FFF743FB1E2011
:1024400010E00D4A914211D1016841F0080101608C
:102450000068002200F00800009011463220FFF7CB
:1024600031FB3220BDE80840FFF71EBB08BD00006D
:102470000008004040380240000C00400168CA6873
:1024800042F00102CA600068816801F00701062974
:1024900003D0016841F0010101600020704770B570
:1024A000044690F83C00012817D0012584F83C50E0
:1024B000022084F83D002068826822F0770222F42E
:1024C0007F4282600868502830D00DDC20284DD033
:1024D00005DC98B310283BD148E0022070BD3028BD
:1024E00044D0402834D139E0602828D0702806D064
:1024F000B0F5805F2CD0B0F5005F29D10AE0CB6841
:10250000D1E90121206801F0A1F82068816841F03B
:10251000770109E0CB68D1E90121206801F096F844
:102520002068816841F48041816011E0CA6849688F
:10253000206801F09DF85021206807E016E0CA6885
:102540004968206801F0A5F86021206801F088F84A
:1025500084F83D50002084F83C0070BDCA6849688A
:10256000206801F085F840212068EFE722680146E5
:102570001046EBE7704770B50446006801694FF0FC
:102580000005C943890715D4C168C943890711D417
:10259000E91E0161012020772068806980072046BC
:1025A00002D0FFF7E7FF04E000F098F8204600F0C3
:1025B00096F8257720680169C943490717D4C1688F
:1025C000C943490713D46FF0040101610220207749
:1025D0002068806910F4407F204602D0FFF7CAFFD0
:1025E00004E000F07BF8204600F079F825772068B9
:1025F0000169C943090716D4C168C943090712D440
:102600006FF008010161042020772068C06980070D
:10261000204602D0FFF7AEFF04E000F05FF820464E
:1026200000F05DF8257720680169C943C90617D411
:10263000C168C943C90613D46FF0100101610820B5
:1026400020772068C06910F4407F204602D0FFF751
:1026500091FF04E000F042F8204600F040F82577B2
:1026600020680169C943C90708D1C168C943C907BE
:1026700004D1891E0161204600F032F8206801690A
:10268000C943090609D4C168C943090605D46FF0D6
:10269000800101612046FFF758FE20680169C943A7
:1026A000490609D4C168C943490605D46FF0400101
:1026B0000161204600F020F820680169C9438906BD
:1026C0000BD4C168C943890607D46FF020010161AA
:1026D0002046BDE87040FFF739BE70BD70477047B7
:1026E0000349884203D103484168491C416070474F
:1026F000DC000020000000207047704770B50268C1
:1027000004461068D168536910F00F0F52D003F0DF
:10271000010501F490762E435FD0C20705D0CA05AB
:1027200003D5E26B42F00102E263420705D5DA0706
:1027300003D0E26B42F00202E263820705D5DA07BA
:1027400003D0E26B42F00402E263020707D501F016
:1027500020022A4303D0E26B42F00802E263E26BFC
:10276000002A33D0800604D5880602D5204601F021
:1027700009F820684069E16BC0F38010090700D4B4
:1027800028B3204600F0E7FF2068416949061AD5C2
:10279000416921F040014161606BA0B11B490165B5
:1027A000606BFEF7A4FE002810D0606B016DBDE8E1
:1027B00070400847830610D58B060ED52046BDE82D
:1027C000704000F0DFBF2046FFF797FF70BD204646
:1027D000FFF793FF0020E06370BD030606D50B06EC
:1027E00004D52046BDE8704001F0ACB84006F3D5F2
:1027F0004806F1D5D168204621F04001D160202162
:1028000084F8391000F0BCF970BD0000B73600083C
:1028100070B5040004D094F83900002510B106E02A
:10282000012070BD84F83850204600F023F82420A1
:1028300084F839002068C16821F40051C160204645
:1028400000F0ECFF2068016921F4904101612068EB
:10285000416921F02A0141612068C16841F40051B9
:10286000C160E563202084F8390084F83A00002034
:1028700070BD00002DE9F04387B00646142168467C
:10288000FDF7EAFC50484F4FD6F800C000244E49EF
:102890001438022203230725BC451BD10E6846F0DD
:1028A00010060E60096801F010010591016841F001
:1028B000010101600068694600F0010005905802BE
:1028C0008DE81500CDE903354048FEF7A7FF07B0B6
:1028D000BDE8F083DFF8F8804FF480674FF480792B
:1028E000C44533D13849091FD1F800C04CF4802CBD
:1028F000C1F800C0096801F480210591016841F028
:10290000020101600068694600F0020005904FF482
:1029100040608DE81500CDE903352E48FEF77EFFB7
:102920002E4D2D4828607804C5E90104C5E9034708
:102930006C61C5E906492C6228466C62FEF7BAFE56
:1029400008B1FEF71EFA7563AE63C0E7244DAC45CF
:10295000BDD10D6845F020050D60096801F020012A
:102960000591016841F0040101600068694600F0CA
:1029700004000590C0208DE815000820CDE9033043
:102980001848FEF74BFF154D174860352860800545
:10299000C5E90104C5E903476C61C5E906492C6234
:1029A00028466C62FEF786FE08B1FEF7EAF9756309
:1029B000002211464720AE63FFF784F84720FFF757
:1029C00073F884E7001001404438024000000240E0
:1029D0000048004000040240286002401C02002021
:1029E000001401400008024028640240F8B5044683
:1029F00090F83A0020283CD1C1B3BAB394F838001B
:102A0000012836D0012084F83800A162A285002573
:102A1000E563222084F83A00636B1748D863636B40
:102A200016481864636B1648D864606B13460565D6
:102A30000846666B216802463046091DFEF7A4FE73
:102A4000206801684168009184F83850C16841F4F9
:102A50008071C1602068416941F0010141612068D5
:102A6000416941F0400141610020F8BDFFE70120CC
:102A7000FBE70220F9E70000113700084D37000896
:102A8000C736000810B50B4904460068096888423B
:102A900004D109490120C86102F0D6F9074920682C
:102AA0000968884204D1BDE81040054802F0B2B878
:102AB00010BD0000DC010020000000209C0100206F
:102AC0007608002070472DE9F843044690F8390055
:102AD0001F4616460D46202850D1B5B1AEB194F828
:102AE000380001284AD0012084F838004FF000084F
:102AF000C4F83C80212084F83900FEF775FFA684D5
:102B00008146E68484F8388026E00120BDE8F88319
:102B1000E08C401EE084A0684B46B0F5805F4FF02B
:102B200000024FF080012046009703D000F03BFFE9
:102B3000E8B90DE000F037FFC8B928882168C0F374
:102B400008004860206908B16D1C05E0AD1C03E079
:102B5000216815F8010B4860E08C0028D8D14B465D
:102B6000002240212046009700F01DFF08B10320FD
:102B7000CCE7202084F839000020C7E70220C5E711
:102B80007047FEE72DE9F041B6EE002AF0EE412A4B
:102B9000314C40EE422A2DED048B10EE021A002536
:102BA0009FED2E9BC4ED002AB0EE623AF0EE612A52
:102BB00040EEC21A50EE822A04F15406C4ED012AF6
:102BC00084ED031AC4ED042A84ED063AC4ED071A15
:102BD00084ED091AC4ED0A1A05EB450004EB8007E1
:102BE0007868FDF7FCFC41EC100BB0EE491AF0EEF2
:102BF000691A00F03DFFB0EE408AF0EE608A386856
:102C0000FDF7EDFC41EC100BB0EE491AF0EE691A3D
:102C100000F02EFF53EC182B51EC100BFDF727FBA7
:102C200041EC100B01F04CFD51EC100BFDF7EAFCF0
:102C300046F825006D1C042DCEDB00209FED090A0F
:102C400006EB8001401C81ED000A0328F8DBBDEC97
:102C5000048BBDE8F0810000DC02002000000000D1
:102C600000000040CDCC4C3E10B516482DED048B35
:102C7000B0EE418AF0EE608AB0EE409A00F024F89F
:102C80001048B0EE481AF0EE680AB0EE490A0C306F
:102C900000F082F80B48B0EE481AF0EE680AB0EE89
:102CA000490A183000F0E0F8B0EE481AF0EE680A71
:102CB000B0EE490ABDEC048B0248BDE81040243058
:102CC00000F03AB9DC02002010B504462DED0A8B65
:102CD000B0EE41AAB0EE608A10EE100AFDF77FFC5C
:102CE0009FED27BB41EC190BB0EE4B0AF0EE6B0ADF
:102CF00001F0E6FC53EC192B51EC100BFDF75EFBD9
:102D00009FED21CB53EC1C2BFDF758FB41EC190B2D
:102D100018EE100AFDF763FC41EC180BB0EE4B0AFD
:102D2000F0EE6B0A01F0CCFC53EC182B51EC100BBD
:102D3000FDF744FB53EC1C2BFDF740FB41EC180B5B
:102D4000134890ED000A20EE0A0A10EE100AFDF773
:102D500046FC53EC182BFDF78AFA53EC192BFDF7C0
:102D600027FBFDF74FFC00EE100A0A48D0ED000AE1
:102D700020EE200A84ED020ABDEC0A8B10BD000093
:102D80000000000000000040000000000000E03FE4
:102D9000300300202000002010B504462DED0A8BE2
:102DA000B0EE41AAB0EE608A10EE100AFDF717FCF3
:102DB0009FED27BB41EC190BB0EE4B0AF0EE6B0A0E
:102DC00001F07EFC53EC192B51EC100BFDF7F6FAD9
:102DD0009FED21CB53EC1C2BFDF7F0FA41EC190BC6
:102DE00018EE100AFDF7FBFB41EC180BB0EE4B0A96
:102DF000F0EE6B0A01F064FC53EC182B51EC100B55
:102E0000FDF7DCFA53EC1C2BFDF7D8FA41EC180B5C
:102E1000134890ED010A20EE0A0A10EE100AFDF7A1
:102E2000DEFB53EC182BFDF7C3FA53EC192BFDF71F
:102E3000BFFAFDF7E7FB00EE100A0A48D0ED000AE2
:102E400020EE200A84ED020ABDEC0A8B10BD0000C2
:102E50000000000000000040000000000000E03F13
:102E6000300300202000002010B504462DED0A8B11
:102E7000B0EE41AAB0EE608A10EE100AFDF7AFFB8B
:102E80009FED27BB41EC190BB0EE4B0AF0EE6B0A3D
:102E900001F016FC53EC192B51EC100BFDF78EFAD8
:102EA0009FED21CB53EC1C2BFDF788FA41EC190B5D
:102EB00018EE100AFDF793FB41EC180BB0EE4B0A2D
:102EC000F0EE6B0A01F0FCFB53EC182B51EC100BED
:102ED000FDF774FA53EC1C2BFDF770FA41EC180B5C
:102EE000134890ED020A20EE0A0A10EE100AFDF7D0
:102EF00076FB53EC182BFDF75BFA53EC192BFDF71F
:102F0000B6F9FDF77FFB00EE100A0A48D0ED000A83
:102F100020EE200A84ED020ABDEC0A8B10BD0000F1
:102F20000000000000000040000000000000E03F42
:102F3000300300202000002010B504462DED0A8B40
:102F4000B0EE41AAB0EE608A10EE100AFDF747FB22
:102F50009FED27BB41EC190BB0EE4B0AF0EE6B0A6C
:102F600001F0AEFB53EC192B51EC100BFDF726FAD8
:102F70009FED21CB53EC1C2BFDF720FA41EC190BF4
:102F800018EE100AFDF72BFB41EC180BB0EE4B0AC4
:102F9000F0EE6B0A01F094FB53EC182B51EC100B84
:102FA000FDF70CFA53EC1C2BFDF708FA41EC180B5B
:102FB000134890ED030A20EE0A0A10EE100AFDF7FE
:102FC0000EFB53EC182BFDF752F953EC192BFDF7C0
:102FD0004EF9FDF717FB00EE100A0A48D0ED000A83
:102FE00020EE200A84ED020ABDEC0A8B10BD000021
:102FF0000000000000000040000000000000E03F72
:1030000030030020200000200E4810B50C4901605C
:103010000821416000214FF400328160C0E90312B1
:103020004161017641768176C17601774177FEF77D
:103030003AF9002803D0BDE81040FDF7A2BE10BD4C
:10304000006400405C000020114808B5016841F4AC
:1030500080010160016801F480010091016841F480
:10306000001101600068002200F400100090114679
:103070000C20FEF727FD0C20FEF716FD002211465E
:103080003920FEF71FFDBDE808403920FEF70CBDD2
:10309000303802402DE9F04387B014216846FDF72F
:1030A000DBF833480024016841F0800101600168C9
:1030B00001F080010591016841F0010101600168A2
:1030C00001F001010591016841F002010160016810
:1030D00001F002010591016841F0080101600168F9
:1030E00001F008010591016841F0040101600068E8
:1030F000DFF8808000F004000590012204214046A2
:10310000FEF76DFCDFF870904FF400560022314658
:103110004846FEF764FC0122D70339464846FEF7CD
:103120005EFC1020CDE90004694614480294FEF7C5
:1031300075FB042000900125CDE901546946404605
:103140000394FEF76BFB0220CDE90204CDE9006594
:1031500069464846FEF762FBCDE90075CDE90254A9
:1031600069464846FEF75AFB07B0BDE8F083000009
:103170003038024000040240000C024000000240CF
:10318000104810B50E4901604FF482714160002172
:1031900081600122C160C0E90412520282612822CA
:1031A000C0E90721416281620A21C162FEF754FF32
:1031B000002803D0BDE81040FDF7E3BD10BD0000BE
:1031C000003001408400002010B586B0002417486C
:1031D00000940194029403940494134905940160AB
:1031E0004F21C0E9011440F2E731C0E90314802106
:1031F0008161FFF7F5F808B1FDF7C3FD4FF480508A
:10320000009069460948FFF74AF908B1FDF7B9FD92
:10321000049404A905480594FFF79AF8002801D002
:10322000FDF7AFFD06B010BD00080040DC00002037
:1032300010B586B0002417480094019402940394BA
:1032400004941349059401604F21C0E9011440F230
:10325000E731C0E9031480218161FFF7C1F808B1AB
:10326000FDF78FFD4FF48050009069460948FFF745
:1032700016F908B1FDF785FD049404A905480594E5
:10328000FFF766F8002801D0FDF77BFD06B010BD02
:10329000000C00401C0100200C4810B50A490160D8
:1032A0004FF4E1314160002181600C22C160C0E92E
:1032B00004128161C161FFF7ABFA002803D0BDE8B9
:1032C0001040FDF75EBD10BD001001405C01002004
:1032D0000C4810B50A4901604FF4E131416000210A
:1032E00081600C22C160C0E904128161C161FFF7F5
:1032F0008FFA002803D0BDE81040FDF742BD10BD95
:10330000004800409C0100200C4810B50A490160AB
:103310004FF4E1314160002181600C22C160C0E9BD
:1033200004128161C161FFF773FA002803D0BDE880
:103330001040FDF726BD10BD00140140DC01002047
:10334000FEE7FEE790ED040AD0ED030AB0EE002A96
:1033500030EE600A80ED050AD0ED070AD0ED001AC4
:1033600030EE601A21EE211AD0ED011A01EE801A1A
:10337000F0EE401A40EEC21A90ED062A71EE821A63
:1033800090ED022A02EE211AD0ED081A31EE211A30
:1033900080ED081AC0ED060A80ED070A90ED090AD3
:1033A000B4EEC01AF1EE10FA01DD80ED080AD0ED9E
:1033B000080AB1EE400AF4EEC00AF1EE10FA01D2AA
:1033C00080ED080A7047704738B504461248134B21
:1033D0000068B0FBF3F04FF47A73584300906068D4
:1033E000B0F5827F0DD10B4600920022802120464D
:1033F00000F016F870B1606D40F0200060650320A9
:1034000038BD009830B1401E009020688068C043ED
:103410000006F6D5002038BD5400002000366E01AD
:103420002DE9F0411D4617460E460446DDF818808A
:1034300008E0681C06D0FEF7D7FAA0EB0800A84207
:103440000BD255B12068806836EA000030D00020E9
:10345000B842EED10020BDE8F0812068416821F03B
:10346000E00141606068B0F5827F0BD1A068B0F5E3
:10347000004F02D0B0F5806F04D12068016821F0C0
:1034800040010160A06AB0F5005F09D120680168C1
:1034900021F4005101602068016841F4005101608D
:1034A000012084F85100002084F850000320D2E766
:1034B0000120CDE77047FEF79DBA000030B593B00C
:1034C00030216846FCF7C8FE14210CA8FCF7C4FEA6
:1034D0001D480025016841F080510160006800F03E
:1034E000805011901948016841F4804101600068E2
:1034F000022400F48040119001200090000401900B
:103500008001CDE9064008AA0420A02182E813002A
:103510000B906846FEF7F2FB08B172B6FEE70CA905
:103520000F2081E831004FF4A0500F904FF48050ED
:10353000109005210CA8FEF7F7FA002801D072B60A
:10354000FEE713B030BD000040380240007000407C
:103550000548016841F47001016003494FF00060C3
:10356000803908607047000088ED00E00148FFF7EF
:1035700002B80000DC0000200148FEF7FCBF00009C
:103580001C010020F0B50268254C264D264E274F21
:10359000274B4FF0804CA04209D0604507D0A8428D
:1035A00005D0B04203D0B84201D0984204D122F0F5
:1035B000700E4A6842EA0E02A0421BD0604519D044
:1035C000A84217D0B04215D0B84213D0984211D0BB
:1035D000184DA8420ED0184DA8420BD0174DA84246
:1035E00008D0174DA84205D0164DA84202D0164D5E
:1035F000A84203D122F44075CA682A434D6922F0DB
:1036000080022A4302608A68C2620A688262A0421B
:1036100001D0984201D10969016301214161F0BDE6
:10362000000001400004004000080040000C004081
:1036300000040140004001400044014000480140B6
:1036400000180040001C00400020004010B58468B5
:1036500042EA032224F47F440A432243826010BDDD
:10366000826822F070020A4342F0070181607047CD
:1036700010B5036A046A24F001040462846924F02A
:10368000F00444EA021423F00A020A43846102624D
:1036900010BD10B5036A23F0100303628369046A46
:1036A00023F4704343EA023224F0A00343EA0111F9
:1036B0008261016210BD10B5806B0021C185C1849B
:1036C000FFF71BF810BD70B5846B2068406994F853
:1036D0003910C0F3C0100025212904D118B1E584A8
:1036E000204600F046F82068406994F83A10C0F38C
:1036F0008010222904D118B1E585204600F02BF86E
:10370000E06B40F01000E0632046FEF7F6FF70BD6E
:1037100010B50146806B09680968C90513D40021FA
:10372000C1850168CA6822F48072CA6001684A696A
:1037300022F001024A6101684A6922F040024A61AE
:10374000202180F83A10FFF79DF910BD10B5806B6D
:10375000FFF7B8F910BD0168CA6822F49072CA6018
:1037600001684A6922F001024A61202180F83A107A
:1037700070470168CA6822F0C002CA60202180F840
:103780003910704710B590F83A10222901D0022064
:1037900010BD8168B1F5805F11D001690029016811
:1037A0001FD0496801F07F03816A4A1C82620B7056
:1037B000C18D491E0904090CC18518D02BE002698E
:1037C000816A002A0268526805D0D2B20A80816AF2
:1037D000491C8162ECE7C2F308020A80816A891CF5
:1037E000F7E74A68816A4B1C83620A70E0E7016868
:1037F000CA6822F02002CA600168CA6822F4807296
:10380000CA6001684A6922F001024A61202180F8F9
:103810003A10FFF737F9002010BD00002DE9F04104
:10382000044600680169E26821F4405111430161D6
:103830002169A068E269084361691143084321686E
:10384000CA6849F20C639A430243CA60206841691E
:10385000A26921F4407111434161E069192764258F
:103860003226B0F5004F354A354920684FF0000840
:1038700006D0884201D0904236D1FEF7FFF935E0FC
:10388000884201D0904202D1FEF7F8F901E0FEF73C
:10389000E5F961684A18A0FB070148EB0803FCF74B
:1038A00091FC0146B0FBF5F00201B1FBF5F06FF0C1
:1038B0001803584301EB800006EBC000B0FBF5F0A5
:1038C00000F0F80002EB4002B1FBF5F0584301EBC9
:1038D000800006EBC000B0FBF5F000F007002168A7
:1038E00010448860BDE8F081FEF7B8F961688B0F7D
:1038F0008A00A0FB0701FCF765FC0146B0FBF5F070
:103900006FF01802504301EB800006EB0010B0FB93
:10391000F5F000F0F002B1FBF5F002EB0012B1FBA4
:10392000F5F06FF01803584301EB800006EB001030
:10393000B0FBF5F000F00F00D1E7000000140140EB
:103940000010014090F83910212901D00220704761
:103950008168B1F5805F016A0BD04A1C026202687F
:1039600009785160C18C491E0904090CC1840ED02C
:1039700017E009880268C1F3080151600169002954
:10398000016A02D0491C0162ECE7891CFBE701686F
:10399000CA6822F08002CA600068C16841F0400134
:1039A000C160002070472DE9F041984617460E4649
:1039B0000446069D1DE0681C1BD02DB1FEF714F8CF
:1039C000A0EB0800A84214D92068C16821F4D07186
:1039D000C1602068416921F001014161202084F823
:1039E000390084F83A00002084F838000320BDE84C
:1039F000F0812068006836EA000004D00020B84258
:103A0000D9D00020F3E70120F9E700000148FEF7D4
:103A100075BE0000DC010020FEE703B40198410000
:103A2000009850EAC12018BF04204A0D18BF40F08A
:103A3000010040F2FF72B2EB515F08BF40F002009C
:103A4000012808BF052002B070470907090E0028A9
:103A500004DB00F1E02080F80014704700F00F0054
:103A600000F1E02080F8141D704700000000000005
:103A70002DE9F04D2DED040B2DED0E8B96B0DDE90B
:103A80002550279CDDF890A025F0004624F0004842
:103A9000BAF1000F14BF0121002101EB4502FC49DE
:103AA00053184A1093422AD3002814BF012300233D
:103AB00003EB44030B44F7498B4220D358EA00013F
:103AC0009FEDF59B76D0DFF8D8B35D4503D1BAF111
:103AD000000F05D188E0BAF1000F08BF002100D027
:103AE000012101EB450111F5001F08D8002814BF82
:103AF0000121002101EB440111F5001F0BD99DEDBF
:103B0000261B9DED240B16B0BDEC0E8B04B0BDE85A
:103B1000F04D00F0A9BE0027002DBCBFE14988454B
:103B200021DAE1498845A8BF02271CDAC3451ADC1F
:103B3000DE4901EB2851142908DDC1F1340220FAD5
:103B400002F101FA02F282420DD108E058B9C1F146
:103B5000140228FA02F101FA02F2424503D101F0FF
:103B60000101C1F1020756EA0A0124D1002C22DA30
:103B7000002D18BF022F01D0012F0AD0022000F023
:103B8000BFFE16B0BDEC0E8B04B0BDE8F04D00F0EA
:103B900053BE022000F0B4FE00F04EFE51EC100BBC
:103BA00081F0004141EC100B16B0BDEC0E8B04B05F
:103BB000BDE8F08D18E09FEDBEAB9FEDBF8B0028F8
:103BC00071D1B848804522D105F1804010F58010B0
:103BD00008BFBAF1000F07D0B3450ADC002CA8BF1C
:103BE0009DED260BE0DA0DE0B0EE490AF0EE690A31
:103BF000DAE7002C06DA9DED260B51EC100B81F074
:103C000000416FE0AE48784490ED000BCCE7D8451A
:103C10004DD1002C48DA2EB186423AD1BAF1000FCC
:103C200042D126E0BAF1000F13D0022000F068FE66
:103C300000F036FE8DED020B9DED240B8DED000B9B
:103C400010EE900A039961F31E0003909DED020BA4
:103C5000AAE78DED02AB9DED240B1AEE901A10EE43
:103C6000900A8DED000B61F31E0003909DED020B99
:103C70009AE78DED028B9DED240B18EE901A10EE55
:103C8000900A8DED000B61F31E0003909DED020B79
:103C90008AE709DA9DED240B51EC190B53EC102B3C
:103CA000FCF7FEFB1EE020E09DED240B7CE7864246
:103CB0001BDAB4F1804F0DD0A4F10050B0F1FF50E9
:103CC00013D1002D11DB9DED240B51EC100B01F0F5
:103CD0001CF907E09DED240B53EC102B51EC100B5D
:103CE00000F0C2BC41EC100B5EE79DED240B51ECE3
:103CF000100B00F029FEBAF1000FCDE90E0142D100
:103D00009FED710B46B3A6F1E040B0F17F600CD09F
:103D10005E4538D1002D00DAA7B3022F0CBF012079
:103D20004FF0FF30FCF72BFCDCE7002D01DD002C11
:103D30000DDA002D01DD002C1FDB002D16DA002C22
:103D400014DB012F08BF9FED620B3FF42DAFB0EEE7
:103D50004A0AF0EE6A0A27E7022F18BF002D0CD09E
:103D6000012F0AD1002DFFF61FAF06E0002DB8BFCE
:103D7000002C08DA012F3FF417AFB0EE480AF0EE3E
:103D8000680A11E71BE0012000EBE57050EA07012B
:103D900015D0791EB0EE498AF0EE698A084308BF53
:103DA0009FED4D8B4E480025804570DD4D494E48B6
:103DB000884514DDB0420DDB002C19DB2FE001201B
:103DC00000F09EFD16B0BDEC0E8B04B0BDE8F04DCA
:103DD00000F056BDB34502DC002C09DC1FE0864232
:103DE00002DA002C1BDA03E05E452BDD002C16DD29
:103DF000022000F085FD00F053FD8DED020B53EC29
:103E00001A2B51EC180BFCF7D9FACDE900010399F4
:103E1000019861F31E0003909DED020BC4E60220A1
:103E200000F06EFD00F04CFD10EE901A18EE900AB6
:103E30008DED020B8DED008B61F31E0003909DED67
:103E4000020BB1E69DED0E0B53EC192B51EC100B50
:103E5000FCF7AEFA9FED260BCDE9080153EC102BD1
:103E60009DED080B51EC100BFCF7A8FA9FED221BFF
:103E700053EC112BFCF79FFA9DED081B53EC112B13
:103E8000FCF79CFA9FED1E1B53EC112B3CE08CE0E1
:103E9000FFFF1F00FFFF0F00000000000000F03FC9
:103EA0000000F03F0000F07F0000404301FCFFFFF6
:103EB000000000000000F07F000000000000000093
:103EC0001614000000000000000000000000008048
:103ED000000000000000F0FF000000000000F0BF44
:103EE0000000E0410000F043FFFFEF3F0000000052
:103EF000000000000000D03F555555555555D53FA1
:103F0000000000000000E03FFCF755FA9DED080BB3
:103F100041EC1A0B53EC102B51EC100BFCF74EFA42
:103F200053EC1A2BFCF74AFA41EC1A0B9FEDFE0BEF
:103F300053EC102B9DED080B51EC100BFCF73EFAE7
:103F400041EC1B0B9FEDFA0B51EC1A0B53EC102BB1
:103F5000FCF734FA41EC1A0B9FEDF70B53EC102BE6
:103F60009DED080B51EC100BFCF728FA53EC1A2BC3
:103F7000FCF71EFA41EC1A0B51EC1B0B53EC1A2BFD
:103F8000FCF775F90690CDE906519DED060B53EC53
:103F90001B2B51EC100BFCF70BFA53EC1A2BFCF714
:103FA0000AFA41EC100B00F0A1B90020B6F5801F11
:103FB0000EDA9FEDE30B53EC102B9DED0E0B51EC45
:103FC000100BFCF7FBF9CDE90E016FF034000E4643
:103FD00000EB2650A0F2FF37C6F31300DA4940F099
:103FE0007F6646F040568842D8BF002408DDD74996
:103FF0008142C8BF012403DC0024A6F580167F1C83
:10400000D348784400EBC4000F9690ED00CB9DEDB3
:104010000E0B53EC1C2B51EC100BFCF7C9F99DED6A
:104020000E0B41EC1B0B53EC1C2B51EC100BFCF753
:104030001EF941EC100B51EC190B53EC102BFCF753
:104040002FFA41EC1D0B51EC1B0B53EC1D2BFCF715
:10405000B5F941EC1A0BBF488DED10AB78441095C3
:1040600090ED000B4FF0005040EA660000EB8440FA
:104070008DED080B00F5002009909DED080B53EC29
:104080001C2B51EC100BFCF793F99DED0E1B53EC20
:10409000112BFCF790F941EC100B53EC102B9DED1C
:1040A000100B51EC100BFCF789F99DED080B41EC5E
:1040B0001C0B53EC102B9DED100B51EC100BFCF76F
:1040C0007DF953EC1B2BFCF776F953EC1C2BFCF71A
:1040D0006FF953EC1D2BFCF771F941EC1C0B53EC01
:1040E0001A2B51EC1A0BFCF769F941EC1B0B9A489F
:1040F0000621B0EE4B0AF0EE6B0A784400F01DFB8F
:10410000B0EE401AF0EE601AB0EE41DAF0EE61DA8D
:1041100053EC1B2B51EC1B0BFCF750F953EC1D2BF4
:10412000FCF74CF99DED100B41EC1B0B53EC1A2BDB
:1041300051EC100BFCF79BF853EC1C2BFCF73EF9F1
:1041400053EC1B2BFCF793F89DED100B41EC1B0B74
:1041500053EC102B51EC100BFCF730F941EC1D0B1C
:104160009FED7FEB53EC1E2BFCF781F853EC1B2BE0
:10417000FCF77DF80890CDE908519DED080B53EC54
:104180001E2B51EC100BFCF713F953EC1D2BFCF715
:104190000FF953EC1B2BFCF70EF99DED080B41ECCE
:1041A0001D0B53EC102B9DED100B51EC100BFCF77D
:1041B00005F941EC1B0B53EC1A2B51EC1D0BFCF7D2
:1041C000FDF89DED080B41EC1A0B53EC102B51EC54
:1041D0001C0BFCF7F3F853EC1A2BFCF748F841ECF6
:1041E0001A0B51EC1B0B53EC1A2BFCF740F80C90FC
:1041F000CDE90C519DED0C0B53EC1B2B51EC100B2E
:10420000FCF7D6F853EC1A2BFCF7D5F841EC1B0B56
:104210009FED550B53EC102B9DED0C0B51EC100B3F
:10422000FCF7CCF841EC1A0B9FED510B51EC1B0B3A
:1042300053EC102BFCF7C2F841EC1B0B9FED4E0B1F
:1042400053EC102B9DED0C0B51EC100BFCF7B6F85A
:1042500053EC1B2BFCF70BF841EC100B484878444F
:1042600000EBC40090ED001B51EC100B53EC112B34
:10427000FBF7FDFF41EC1B0B3846FCF780F9CDE95D
:10428000080153EC1B2B51EC1A0BFBF7F0FF41EC30
:10429000100B3C48784400EBC40090ED00CB51EC8F
:1042A000100B53EC1C2BFBF7E2FF9DED081B53ECAE
:1042B000112BFBF7DCFF0690CDE906519DED080BB5
:1042C00053EC102B9DED060B51EC100BFCF770F826
:1042D00053EC1C2BFCF76CF853EC1A2BFCF768F82A
:1042E00053EC1B2BFCF767F841EC100B9DED261BE4
:1042F00053EC102B8DED001B00959DED260B51EC22
:10430000100BFCF75BF89DED000B41EC1A0B53EC26
:10431000102B9DED260B51EC100BFCF749F89DED91
:10432000061B53EC112B2FE0000000604715F73FF0
:10433000FE822B654715F73F44DF5DF80BAE543E18
:1043400000000000000040438E9803007AB60B0086
:10435000920F0000C00F0000CA0E00000000000015
:104360000000000000000840000000E009C7EE3F28
:10437000FD033ADC09C7EE3FF5015B14E02F3EBEBA
:10438000560D0000100D0000FCF718F853EC1A2B26
:10439000FBF76DFF9DED060B41EC1A0B53EC102B58
:1043A0009DED000B51EC100BFCF708F8CDE90C016A
:1043B0009DED0C0B51EC1A0B53EC102BFBF757FF38
:1043C000CDE902010C46AA498C422FDB611A084351
:1043D00018D19DED0C0B53EC102B9DED020B51EC05
:1043E000100BFBF7E5FF41EC1B0B9FEDA30B51EC12
:1043F0001A0B53EC102BFBF73AFF53EC1B2BFCF77B
:104400004BFA2DD2022000F07BFA00F049FA10EEB0
:10441000901A18EE900A8DED020B8DED008B61F372
:104420001E0003909DED020BFFF7BEBB944A24F0E3
:104430000041914214D39349214408437FF4EFACE7
:104440009DED0C0B53EC102B9DED020B51EC100B62
:10445000FBF7AEFF53EC1A2BFCF71EFA7FF6DFAC2E
:1044600024F000408849894A002601EB205182420D
:104470002BDA481C4FF4801121FA00F02044844AC2
:10448000C0F30A517A44A1F2FF3192ED000B814A48
:104490008DED080BCA4020EA0202C0F3130040F47D
:1044A0008010C1F1140120FA01F60992002CB8BF66
:1044B00076429DED080B53EC102B9DED0C0B51EC4F
:1044C000100BFBF775FFCDE90C019DED0C0B51ECCA
:1044D0001A0B53EC102BFBF7CAFE9FED6F0B0890E5
:1044E000CDE9085153EC102B9DED080B51EC100B4E
:1044F000FBF764FF41EC1B0B9FED690B53EC102B9A
:104500009DED080B51EC100BFBF758FF9DED0C0BCC
:1045100041EC1C0B53EC102B9DED080B51EC100BD8
:10452000FBF746FF53EC1A2BFBF745FF9FED5E1B95
:1045300053EC112BFBF742FF53EC1C2BFBF797FEC0
:1045400041EC1A0B51EC1B0B53EC1A2BFBF78FFEB3
:10455000CDE902019DED020B53EC1B2B51EC100B2E
:10456000FBF726FF53EC1A2BFBF725FF9DED020B03
:1045700041EC1A0B53EC102B51EC100BFBF71EFF08
:10458000CDE908014A489DED080B0521784400F06B
:10459000D4F89DED081B51EC100B53EC112BFBF7DD
:1045A0000DFF9DED021B53EC112BFBF704FFCDE932
:1045B00006019DED020B53EC1A2B51EC100BFBF78F
:1045C000FDFE53EC1A2BFBF752FE9FED3B0B41EC2B
:1045D0001A0B53EC102B9DED060B51EC100BFBF757
:1045E000E7FE9DED060B41EC1B0B53EC102B9DEDF4
:1045F000020B51EC100BFBF7E1FE53EC1B2BFBF70E
:104600004FFF53EC1A2BFBF7D3FE9DED021B53EC2F
:10461000112BFBF7CDFE53EC192BFBF7CCFECDE9AC
:10462000020101EB065001150029C8BF039015DCFB
:104630009DED020B324651EC100BFCF7C4F8FFF76E
:10464000ECF9042808BF00F03BF932469DED020B5F
:1046500051EC100BFCF7B7F8CDE902019DED020B10
:1046600051EC180B53EC102BFBF7A8FEFFF73ABBED
:104670000000904000000000FE822B654715973C2B
:1046800000CC904000346F3F01FCFFFF0000E03F92
:10469000980B0000FFFF0F0000000000432EE63FD4
:1046A000396CA80C615C20BEEF39FAFE422EE63F61
:1046B000680A000000000000000000000000004048
:1046C00000B52DED048BB0EE409AF0EE609A83B009
:1046D00051EC190BFCF78EF841EC180B18EE100A90
:1046E00018EE901A8DED008B002818BF01200843AA
:1046F00020F00040C0F17F6000F1E040C00F14D016
:1047000019EE101A19EE900A8DED009B002918BFC2
:104710000121084320F00040C0F17F6000F1E0403B
:10472000C00F04BF012000F0EBF8B0EE480A03B060
:10473000F0EE680ABDEC048B00BD70B504462DEDAB
:10474000028B4D1E00EBC500B0EE408AF0EE608A91
:1047500090ED000B35F0060017D053EC182B51EC00
:10476000100BFBF72BFE41EC100B6D1E04EBC5008C
:1047700090ED001B51EC100B53EC112BFBF777FD68
:1047800041EC100B35F00600E7D1022D36D0042D98
:104790001CD0062D1CBFBDEC028B70BD53EC182B3A
:1047A00051EC100BFBF70AFE94ED0A1B53EC112B96
:1047B000FBF75DFD53EC182BFBF700FE94ED081B97
:1047C00053EC112BFBF753FD41EC100B53EC182B62
:1047D00051EC100BFBF7F2FD94ED061B53EC112B83
:1047E000FBF745FD53EC182BFBF7E8FD94ED040BAC
:1047F00053EC102BFBF73BFD41EC100B53EC182B4B
:1048000051EC100BFBF7DAFD94ED021B53EC112B6E
:10481000FBF72DFD53EC182BFBF7D0FD94ED001B9F
:1048200053EC112BFBF723FDBDEC028B41EC100B7D
:1048300070BD0000000000009FED070B10B553ECA9
:10484000102B9FED070B51EC100BFBF729FE41ECF1
:10485000100B10BD00000000000000000000000070
:10486000000000000000F03F10B553EC112B51EC9C
:10487000100BFBF7FCFC41EC100B10BD000000001E
:104880009FED050B10B553EC102B51EC100BFBF703
:1048900007FE41EC100B10BD0000000000000000FE
:1048A0009FED050B10B553EC102B51EC100BFBF7E3
:1048B00085FD41EC100B10BD0000000000000070F1
:1048C0009FED050B10B553EC102B51EC100BFBF7C3
:1048D00075FD41EC100B10BD000000000000001041
:1048E00002E008C8121F08C1002AFAD170477047B9
:1048F000002001E001C1121F002AFBD17047000017
:1049000001490860704700005800002030B54FF0A2
:10491000E02185B08A6901924A694FF47A73521C8A
:104920005043B0FBF3F3019C002000948C69019488
:10493000DDE90045AC4200D21444641B20440095DC
:104940008342F3D805B030BD82B0CDE9000121F03B
:10495000004001909DED000B02B051EC100B704730
:104960000988DFED0B0A49BA00EE101A90ED0D1A16
:10497000B8EE400A60EE200A80EE810A80ED020A5D
:1049800080ED060A80ED070A80ED080A70470000F6
:104990000000B4432DED028B82B0FDF733F8FEF733
:1049A0008DFDFEF777FBFEF74FFBFEF7E9FBFEF709
:1049B000ABFCFEF729FBFEF707FCFEF76DFCFEF7EC
:1049C00037FCFEF785FC794C0122D1032046FDF728
:1049D00006F800224FF400512046FDF700F8744815
:1049E000FCF748F8734D00262E7085F8906085F826
:1049F000206185F8B061FCF7BBF89FED6F8AB0EEDF
:104A0000481AF0EE411A9FED6D0AF0EE400AFEF7EB
:104A1000B9F86B4CE661FBF769FF6A48FDF72EFDBC
:104A20006948FDF72BFD00F003FA00F051FA00F0A1
:104A3000F5F9664FDFF89881DFF89891E069002872
:104A4000FCD0FBF7CDFFA06800287DD0A069052829
:104A500007D000EB400000EE100AB8EEC00A84ED6B
:104A6000050A04F10C0090EC030AFEF7FDF85A4E1B
:104A7000504896ED020A00F03FFA4E4896ED050ABE
:104A8000903000F039FA96ED080A544800F034FAF4
:104A9000524896ED0B0A903000F02EFA95ED820AFE
:104AA000BDEEC00A10EE100A00B2009095ED5E0A4D
:104AB000BDEEC00A10EE100A95ED3A0A03B2BDEE43
:104AC000C00A10EE100A95ED160A02B2BDEEC00A39
:104AD00010EE100A01B23648FBF7FCFF4048396877
:104AE0004160D9F80010C160D8F8001081603D49DC
:104AF000096801613C49097801753C4909784175AB
:104B00003B49097881753B490978C1753A4909786B
:104B100001763A49097841763949097881763949E7
:104B20000978C1762178017761784177A17881771A
:104B300000F0D8F93448A169B0F90A000844A0612E
:104B40000120FCF759FE00E008E086ED0B8A86EDB7
:104B5000088A86ED058A86ED028A6FE73868C0F517
:104B6000006000EE100AF8EEC00A9FED280A80EE01
:104B7000801A84ED031AD8F80000C0F5006000EE3A
:104B8000900AF8EEE00A80EE801ADFED210A84ED4B
:104B9000041AD9F80000A0F5006000EE100AB8EE83
:104BA000C00A80EE201A84ED051A5AE7000C024074
:104BB0005C000020A403002000000000CDCC0C3FCE
:104BC00000000020DC0000201C0100202C00002040
:104BD0003000002034000020DC020020C40400204B
:104BE0004C03002038000020240000202500002075
:104BF0002600002027000020280000202900002097
:104C00002A0000202B0000207608002000007A44B3
:104C100000007AC42DE9F041784E07462DED048B53
:104C20000024305D55287DD1351968785128FAD196
:104C3000E87A5528F7D1287B5228F4D1A87D552849
:104C4000F1D1E87D5328EED1E878A978000200B2CE
:104C5000084300EE100AB8EEC00A9FED698AF3EE31
:104C6000008A20EE080A20EE280A10EE100AFBF750
:104C7000B6FC9FED649B53EC192BFBF79FFBFBF7F6
:104C80008FFC388068792979000200B2084300EE71
:104C9000100AB8EEC00A20EE080A20EE280A10EE2C
:104CA000100AFBF79CFC53EC192BFBF787FBFBF777
:104CB00077FC7880E879A979000200B2084300EE19
:104CC000100AB8EEC00A20EE080A20EE280A10EEFC
:104CD000100AFBF784FC53EC192BFBF76FFBFBF777
:104CE0005FFCB880A87B697B000200B2084300EE3D
:104CF000100AB8EEC00A60EE080A9FED440A60EEA2
:104D0000800AFDEEE00A10EE900AF880287CE97B2C
:104D1000000200B2084300EE900AF8EEE00A60EEEE
:104D2000880A00E062E060EE800A9FED3A1AFDEE2C
:104D3000E00A10EE900A3881A87C697C000200B27B
:104D4000084300EE900AF8EEE00A60EE880A20EED2
:104D5000800ABDEEC00A10EE100A7881687E297EB6
:104D6000000200B2084300EE100AB8EEC00A60EE7E
:104D7000080A9FED270A60EE800AFDEEE00A10EEB9
:104D8000900AB881E87EA97E000200B2084300EED6
:104D9000900AF8EEE00A60EE880A60EE800AFDEE06
:104DA000E00A10EE900AF881687F297F000200B2C5
:104DB000084300EE900AF8EEE00A60EE880A20EE62
:104DC000800ABDEEC00A10EE100A3882E88B00EEB1
:104DD000100AF8EE400A80EE810ADFED0F0A30EE8D
:104DE000200ABDEEC00A10EE100A7882641C422C24
:104DF000FFF617AFBDEC048BBDE8F081340800204E
:104E0000000000389A999999999923400000FA4432
:104E1000000034430000AA43000014424222024929
:104E20000248FDF7E3BD0000340800209C0100208B
:104E30000448FF210170AA214170552181709921F8
:104E4000C17070474C03002030B51F4D87B000245F
:104E500029191C226846FBF7E6F99DF80000FF2897
:104E60000BD19DF80100AA2807D19DF80200552812
:104E700003D19DF80300992804D0641C382CE7DB8B
:104E800007B030BD1148019981600299C160039952
:104E90000161049941619DF8141001709DF815108D
:104EA00041709DF8161081709DF81710C1709DF823
:104EB000181001719DF8191041719DF81A10817137
:104EC0009DF81B10C171DBE76B030020240000205C
:104ED000382202490248FDF789BD00006B0300201B
:104EE000DC01002032231F2201490248FDF7EBBDFF
:104EF0004C0300209C01002080ED120A90ED030A73
:104F000080ED110A3830FEF71DBA00B52DED048B87
:104F100083B041EC190BFBF76DFC41EC180B18EE5C
:104F2000100A18EE901A8DED008B002818BF012092
:104F3000084320F00040C0F17F6000F1E040C00F66
:104F400014D019EE101A19EE900A8DED009B00296D
:104F500018BF0121084320F00040C0F17F6000F13C
:104F6000E040C00F04BF0120FFF7CAFC51EC180B52
:104F700003B0BDEC048B00BD000610160006101631
:104F800000000000000000000102030406070809F9
:104F90000000000001020304000000000000F03FD8
:104FA000000000000000F83F0000000000000000CA
:104FB0000000004003B8E23F0000000000000000D5
:104FC00006D0CF43EBFD4C3E033333333333E33F63
:104FD000FFAB6FDBB66DDB3F4D268F515555D53F8F
:104FE00001411DA96074D13F65DBC9934A86CD3F5D
:104FF000EF4E454A287ECA3F3E5555555555C53F4B
:1050000093BDBE166CC166BF2CDE25AF6A56113F3C
:10501000F16BD2C541BDBBBED0A4BE726937663E3E
:1050200000000000000000004850000800000020C0
:105030005C000000E0480008A45000085C0000206C
:10504000340C0000F04800080000000000000000E0
:105050000000000000000000000000000000000050
:10506000000000000000000074D01845000000009F
:105070000000000000000000000000000000000030
:105080000000000000000000000000000000000020
:105090000100000010000000000000000024F400E7
:0450A000000000000C
:040000050800018965
:00000001FF
