:020000040800F2
:10000000F80C0020A10100089B390008D931000834
:1000100099390008C10A0008794100080000000071
:10002000000000000000000000000000313B00085C
:10003000DD0D0008000000001F3A0008333B0008F7
:10004000BB010008BB010008BB010008BB010008A0
:10005000BB010008BB010008BB010008BB01000890
:10006000BB010008BB010008BB010008BB01000880
:10007000210D0008BB010008BB010008BB010008FE
:10008000BB010008BB010008BB010008BB01000860
:10009000C50A0008BB010008BB010008BB0100083D
:1000A000BB010008BB010008BB010008BB01000840
:1000B000BB010008BB010008E93B0008BB010008C8
:1000C000BB010008BB010008BB010008BB01000820
:1000D000BB010008BB010008BB010008BB01000810
:1000E000BB010008BB010008BB010008BB01000800
:1000F000BB010008BB010008BB010008BB010008F0
:10010000BB010008BB010008F53B0008BB0100086B
:10011000BB010008BB010008BB010008BB010008CF
:10012000BB0100082D0D0008BB010008BB01000841
:10013000BB010008BB010008BB010008BB010008AF
:10014000BB010008BB010008BB010008BB0100089F
:10015000BB010008BB010008BB0100086D4100089D
:10016000BB010008BB010008BB010008BB0100087F
:10017000BB010008BB010008BB0100080000000033
:10018000BB010008BB010008DFF810D000F0CAFB7B
:100190000048004789520008AFF30080F80C0020A7
:1001A0000648804706480047FEE7FEE7FEE7FEE711
:1001B000FEE7FEE7FEE7FEE7FEE7FEE7CD3B0008D1
:1001C000890100082DE9F05F0546002092469B4614
:1001D00088460646814640241BE02846414647465D
:1001E000224600F068FA53465A46C01A914110D38D
:1001F00011461846224600F04FFA2D1A67EB010807
:100200004F4622460120002100F046FA17EB000974
:100210004E41201EA4F10104DFDC484631462A4647
:100220004346BDE8F09F40EA01039B0703D009E085
:1002300008C9121F08C0042AFAD203E011F8013BD2
:1002400000F8013B521EF9D27047D2B201E000F82B
:10025000012B491EFBD270470022F6E710B513466A
:100260000A4604461946FFF7F0FF204610BD2DE967
:10027000FE4F804681EA0300C00F0C46009021F03B
:10028000004123F00045B8EB0200A94105D24046E9
:10029000214690461C460B46024623F00040104380
:1002A00047D0270DC7F30A00C3F30A510290401A42
:1002B000019040286BDAC3F3130040F4801B0098D0
:1002C000924620B10023D2EB030A63EB0B0B01989B
:1002D0005946C0F14002504600F0DEF906460D4690
:1002E00050465946019A00F0F6F910EB08006141BA
:1002F000002487EA115284EAE7731A4340D0009A37
:1003000062B3019A012A4FEA075215DC001B61EB28
:1003100002014FF0004202EA0752CDE90042001C00
:1003200041F5801132462B4600F02DFA03B0BDE8AE
:10033000F08F40462146F9E7001B61EB0201001CEB
:1003400041F5801300185B412018A2F5001747EB18
:10035000030140EAD570B6196D4111E06D084FEA0E
:10036000360645EAC0754FEA0752001B61EB0201F1
:10037000001C41F5801149084FEA30000019514135
:1003800032462B4603B0BDE8F04F00F0EDB90098BF
:10039000012240000023D0EB020263EBE0730098DF
:1003A00021464FEAE074B8EB000061EB0401E9E795
:1003B00083F000435BE781F0004158E72DE9FE4FF1
:1003C00081EA030404F0004421F0004100944FF05E
:1003D000000B23F0004350EA01045ED052EA03040C
:1003E0005BD0C3F30A54C1F30A552C44A4F2F3348E
:1003F0000194A0FB0254C1F3130141F48011C3F333
:10040000130343F4801301FB024400FB034E840AF0
:10041000970A44EA815447EA8357A4FB0768029588
:100420008D0A05FB07854FEA932C04FB0C54270526
:10043000029D4FEA065847EA1637B5EB08056EEB02
:10044000070C870E920E47EA811742EA8312A7FB38
:100450000201B6EB0B0164EB00042B0D43EA0C33F5
:100460005E1844EB1C50DA465146E7FB0201C5F327
:1004700013044FEA0B3343EA14534FEA0432019C4E
:1004800043EA0603A4F10C040294009CCDE900B4F5
:1004900000F079F903B0BDE8F08F00200146F9E7DC
:1004A0002DE9F04D81EA030404F0004B21F00045F2
:1004B00014464FF0000A23F0004150EA050220D014
:1004C00054EA01021DD0C5F30A570246C5F31303CF
:1004D000C1F31300C1F30A5640F4801543F48013AE
:1004E000A7EB0608101BD64608F2FD3873EB050093
:1004F00002D308F1010801E092185B41B8F1000F46
:1005000003DA00200146BDE8F08D00204FF4801191
:10051000064684460EE0171B73EB050705D3121B36
:1005200063EB050306434CEA010C49084FEA30002F
:1005300092185B4150EA0107EDD152EA030012D054
:1005400082EA040083EA0501084305D0101BAB4191
:1005500006D20122002306E000224FF0004302E011
:100560006FF0010253101AEB06004CEB085110EB30
:100570000A0041EB0B01BDE8F04D00F0F5B80EB5F7
:10058000C10F80EAE0700844CA07002140F23343FB
:100590008DE80E000A460B4600F0F5F803B000BDEA
:1005A00070B5C1F30A5201F000450024C1F31301F4
:1005B00040F2FF3341F480119A4201DA002070BD0D
:1005C00040F233439A42A2F2334203DC524200F03B
:1005D00072F800E090402C43F1D0404270BD00F032
:1005E000004230F000400AD0C10D01F56071C0F347
:1005F000160042EA0151C20840071143704700202B
:100600000146704730B5041E71F1000404DB4FF061
:100610000044404264EB0101141E73F1000405DB49
:100620001C464FF00043524263EB04038B4208BF69
:10063000824230BD01F0004330B421F0004150EA65
:10064000010206D00A0DA2F56072C1F31301002A5F
:1006500002DC30BC00207047440F44EAC104C100F2
:10066000E01830BC00EBC25000F047B830B50B4684
:10067000014600202022012409E021FA02F59D42D2
:1006800005D303FA02F5491B04FA02F52844151EA6
:10069000A2F10102F1DC30BD202A04DB203A00FA8D
:1006A00002F1002070479140C2F1200320FA03F3C9
:1006B000194390407047202A04DB203A21FA02F0C7
:1006C0000021704721FA02F3D040C2F1200291408C
:1006D000084319467047202A06DBCB17203A41FA17
:1006E00002F043EAE07306E041FA02F3D040C2F1BF
:1006F000200291400843194670470029A8BF70475F
:10070000401C490008BF20F00100704710B4B0FA47
:1007100080FC00FA0CF050EA010404BF10BC7047E2
:1007200049B1CCF1200421FA04F411FA0CF118BFFC
:10073000012121430843A3EB0C01CB1D4FEA0061CB
:100740004FEA102042BF002010BC704700EBC3509E
:1007500010440029A4BF10BC7047401C490008BFCA
:1007600020F0010010BC704710B5141E73F1000496
:1007700008DA401C41F1000192185B411A4301D193
:1007800020F0010010BD2DE9F04D92469B4611B1BD
:10079000B1FA81F202E0B0FA80F220329046FFF71F
:1007A0007BFF04460F4640EA0A0041EA0B0153462C
:1007B0005A46084313D0114653EA010019D0C8F134
:1007C00040025046FFF777FF05460E465046594611
:1007D0004246FFF761FF084305D0012004E02046B0
:1007E0003946BDE8F08D0020054346EAE0762C430B
:1007F00037430A986305E40AA0EB08000022FD0ACB
:1008000044EA47540A3002D500200146E9E70105D1
:1008100010196941DDE9084500196941BDE8F04D4D
:10082000A2E770B521F0004303430CD0C1F30A5591
:100830000024D5EB040564EB0403D617AD1AB341CD
:1008400002DB0020014670BD201841EB025170BD53
:100850002DE9F04D00231A461B1A8A4103DB0020C4
:100860000146BDE8F08DC1F30A52C1F3130141F412
:1008700080154FF0000BD10702D100186D41521EB8
:100880000027044640F2FF11384601EB620A3E465B
:100890008046024600204FF48011FFF70CFFC2197A
:1008A0007141BB1846EB0100B4EB030C75EB000C77
:1008B00004D3E41A65EB000517460E46241908F127
:1008C00001006D4180463428E3DDF91946EB06004E
:1008D000091BA84103D24FF0FF32134601E000226A
:1008E00013461BEB070046EB0A51BDE8F04DFFF73E
:1008F0003BBF000030B5041E71F1000404DB4FF073
:100900000044404264EB0101141E73F1000405DB56
:100910001C464FF00043524263EB0403994208BF68
:10092000904230BD064C074D06E0E06840F0010300
:1009300094E8070098471034AC42F6D3FFF728FC40
:10094000385900085859000810B500F04DF86420D7
:1009500000F0C8FF0621002000F09CF808210120CB
:1009600000F098F80021022000F094F8A121032063
:1009700000F090F80021BDE81040042000F08AB893
:1009800010B51021034801F0B7F808B1002010BDE0
:10099000012010BD000002403EB5012000F03AF8F1
:1009A000002401940520029404F01AFC601E0090BB
:1009B000032301AA02A90B4801F07AFC9DF8040068
:1009C0009DF8051044EA004040EA01219DF8060028
:1009D0000843010204D5C043C0F31600401C404246
:1009E0003EBD0000D000002010B5094C00220421BB
:1009F000204601F086F80A2000F074FF012204214D
:100A0000204601F07EF8BDE810400A2000F06ABFE1
:100A10000004024001B582B04FF0FF300090012386
:100A200001AA02A9044801F043FC052004F0D8FB08
:100A30009DF804000EBD0000D000002070B5002419
:100A40005FF0010505EB440141EA44104FFA80F6DE
:100A5000FFF796FF0028FBD0F1B2012000F01AF852
:100A6000FC20FFF7D7FFFF20FFF7D4FFFFF794FF2D
:100A7000E11CCA1701EB927222F00302891A044AA0
:100A8000641C64B242F82100042CDBDB70BD000062
:100A90008C08002070B50D464FEA0004FFF770FF88
:100AA0000028FBD004F00F0040F05000FFF7B2FF29
:100AB0000020FFF7AFFF2846BDE87040FFF7AABF50
:100AC000FEE70000014800F01EBB0000A800002067
:100AD00010B58AB0002101220446CDE90612039127
:100AE00004910E20CDE90820059100910191029119
:100AF0006946204600F0F6F908B100F070F920468A
:100B000000F0F0FC08B100F06AF90221204600F084
:100B100068F908B100F063F90AB0002010BD0000C8
:100B2000002A02D1014900F035B870474800002082
:100B300030B589B00825044606950C98AD0102959C
:100B40000025049505950D0A8DF800508DF80110CB
:100B5000110A8DF80210190A8DF804108DF805306D
:100B6000010A8DF806108DF803208DF80700204645
:100B700000F0B3FA0028FAD0054B6A4602A92046D5
:100B800000F041F9002801D000F029F909B030BD8A
:100B90004400002000B5A0F20120082812D200EB8A
:100BA000C002094800EB021250683228104605DAEC
:100BB00004F050FB5068401C506001E000F04CF81D
:100BC000002000BD012000BD0C0400209FED1A1A7A
:100BD000DFED1A1A9FED1A2ADFED1A2A1A4A9FED45
:100BE0001B3A0021F2EE0E0AB7EE000A01EBC1003B
:100BF00002EB0010C0ED0E0A80ED0F0A80ED100A26
:100C000080ED171AC0ED191A80ED1A0A80ED1B2A23
:100C1000C0ED222A037813B1012B03D006E0DFEDEB
:100C20000C3A01E0DFED0B3AC0ED0C3A491C80EDC7
:100C30000D3A0829DADB70470000FA450000A042AF
:100C40000000000000409C450C040020000000460D
:100C50002CA09941000010420A88DFED2E1A52BAEA
:100C600000EE102A90ED0D1A2B4BB8EE400A60EE04
:100C7000210A80EE810A80ED020A4A8852BA12B235
:100C800000EE902AB8EEE01A80ED031A898849BA7E
:100C900009B200EE901AF8EEE00AC0ED040AD0EDB9
:100CA000070AC0ED060A70EE600A80ED070A416A85
:100CB00010EE902A9A4201DD491E05E010EE902ABE
:100CC000164B9A4201D9491C416200EE901A4FF42A
:100CD000B4725143F8EEE00A60EEA11AD0ED080AB2
:100CE00030EE602A72EE211A90ED0C2AC1EE822AB3
:100CF000C1EE021A01EE101AC0ED0A2AB8EEC11AAE
:100D000031EE000A30EE600AC0ED0B1A80ED050AE4
:100D1000704700000000B44300003443000034C3B7
:100D2000014800F06DBC000084020020014800F082
:100D300067BC0000E402002001681823CAB2103A20
:100D4000B2FBF3F2054B6FF30901032A9B5CC36509
:100D500000D9091D816508467047000088580008C1
:100D600010B5014600208B698A6A4FF0C07453B1F8
:100D7000B3F5005F15D072B1012A0CD0022A0AD057
:100D8000032A09D104E01AB1012A06D0022A03D1AC
:100D9000C96AC90100D5012010BDC96AA142FAD0B3
:100DA00010BD002AF7D0012AF2D0022AF3D0032A7C
:100DB000F3D010BD30B50468256825F48025256082
:100DC000046863608368402B036803D099600068FF
:100DD000C26030BD9A600068C16030BD704772B6B5
:100DE000FEE790F82020012A07D0022A05D0416AA8
:100DF00041F48021416201207047006842690A4342
:100E0000426100207047F0B590F820500468A46853
:100E1000012D05D0022D03D0416A41F480215DE00F
:100E200014F0406F01D1E50055D5C4F30164022CE4
:100E300003D9416A41F4000150E00125A5401D603D
:100E40008D684FF4C0739DB1CE6835434E6845EA56
:100E5000C605066803EB0417F5514FF4C275076821
:100E600005EB04150E697E51097D012905D009E0C5
:100E70000E88CD6845EA4655EBE701684E5946F4C1
:100E800080764E511179D579567941EA0561957987
:100E90002D0445EA062529434FF4C676056806EB7E
:100EA0000416A9511178D57841EA056195785278F0
:100EB0002D0445EA022211434FF4C475026805EB84
:100EC00004155151006803EB0411425842F001022D
:100ED00042500020F0BD416A41F4001141620120FE
:100EE000F0BD000010B590F82020012A07D0022A9A
:100EF00005D0416A41F480214162012010BD3B4888
:100F0000D0F8002242F00102C0F80022D0F80022FE
:100F100022F47C52C0F80022D0F800224B6A42EA48
:100F20000322C0F800220A7D02F01F0301229A402A
:100F3000D0F81C329343C0F81C32CB69B3B9D0F857
:100F40000C329343C0F80C328C894B6864F31F4316
:100F50004C6900EBC404C4F840320C890B6864F39C
:100F60001F434C6900EBC404C4F84432CB69012B25
:100F700016D1D0F80C321343C0F80C320C884B68F1
:100F800064F31F434C6900EBC404C4F840320C897D
:100F9000CB6864F31F434C6900EBC404C4F84432CB
:100FA0008B69002BD0F804320ED01343C0F8043202
:100FB0000B69002BD0F8143208D01343C0F8143258
:100FC000096A012904D008E09343EFE79343F5E76A
:100FD000D0F81C121143C0F81C12D0F8001221F0F6
:100FE0000101C0F80012002010BD000000640040A4
:100FF000704730B590F82040012C05D0022C03D06A
:10100000416A41F480215DE00468002955D02469DB
:10101000A40754D04FF4D874056804EB01142D597B
:1010200015F00405956005682D594ED0ED08556002
:1010300005682C5904F00204D4604FF4DA74056892
:1010400004EB01142D5905F00F05156105682D59A4
:10105000C5F30725956105682C59240C54614FF49C
:10106000DC72046802EB0112A4581C700468A458D6
:10107000240A5C700468A458240C9C700468A2586C
:10108000120EDA704FF4DE72046802EB0112A458FB
:101090001C710468A458240A5C710468A458240CC8
:1010A0009C710468A258120EDA71006881B101695E
:1010B00041F020010161002030BDE468A8E7416AE9
:1010C00041F400114162012030BD6D0D1560AFE7A4
:1010D000C16841F02001C160EDE70246002092F8AE
:1010E0002010012901D002290CD111688A6852010F
:1010F00000D501208A68120100D5401C8968C9000A
:1011000000D5401C70472DE9F05F054600680024BB
:101110004669D0F804908768D0F80CB0D0F810A0D9
:10112000D0F81880F10748D0F90714D00121816068
:10113000B80703D5284600F002FA0CE0780702D57C
:101140004FF4006407E0380702D54FF4805402E002
:10115000284600F0F3F9F80516D529684FF4807099
:101160008860B80503D5284600F0EBF90CE0780557
:1011700002D544F4005407E0380502D544F4804415
:1011800002E0284600F0DCF9F80316D529684FF490
:1011900080308860B80303D5284600F0D4F90CE00D
:1011A000780302D544F4004407E0380302D544F440
:1011B000803402E0284600F0C5F9300707D55FEA21
:1011C000CB6004D52968102044F40074C86070070F
:1011D0004FF0080707D55FEA0B7004D52868C76091
:1011E000284600F059F9B00706D52868C06880077E
:1011F00002D0284600F052F9700607D55FEACA60AF
:1012000004D52968102044F480640861B00607D52D
:101210005FEA0A7004D528680761284600F05EF985
:10122000F00606D528680069800702D0284600F03D
:1012300056F9B00308D55FEAC96005D529681020C2
:101240004860284600F04CF9F00307D55FEA0970C2
:1012500004D528684760284600F076F9300446D562
:101260005FEA497040D5F00504D55FEAC87001D047
:1012700044F00104B00504D55FEA887001D544F05C
:101280000204700504D55FEA487001D544F00404F7
:10129000300529D518F0700F26D008F070004028CE
:1012A00015D006DC102809D020280AD0302816D105
:1012B0000AE050280ED0602811D10EE044F0080456
:1012C0000DE044F010040AE044F0200407E044F08C
:1012D000400404E044F0800401E044F48074286891
:1012E000816921F070018161296804204860002C27
:1012F00005D0686A204368622846FFF779FEBDE89A
:10130000F09F70B5040003D094F8200010B104E001
:10131000012070BD204600F081F82068016841F08E
:101320000101016000F0F2FB0546052604E000F033
:10133000EDFB401B0A2811D820684068C007F6D092
:101340002068016821F00201016000F0DFFB054622
:101350000BE000F0DBFB401B0A2806D9606A40F472
:101360000030606284F82060D2E72068406880071F
:10137000EFD4207E0128206801683DD021F0800153
:101380000160607E01282068016838D021F04001AA
:101390000160A07E01282068016833D021F020017F
:1013A0000160E07E0128206801682ED041F0100124
:1013B0000160207F01282068016829D021F0080100
:1013C0000160607F01282068016824D021F00401B9
:1013D0000160D4E902010843D4E90412114308432F
:1013E0006168491E08432168C861002060620120CD
:1013F00084F82000002070BD41F08001C0E741F07A
:101400004001C5E741F02001CAE721F01001CFE714
:1014100041F00801D4E741F00401D9E710B586B0E6
:10142000044614216846FEF717FF184920688842D1
:1014300029D117480021026842F00072026000685A
:1014400000F00070059012481038026842F0010266
:101450000260006800F0010005904FF4C050009059
:101460000220CDE901010320039009200490694680
:10147000084800F049FA00221146142000F0B4FB9D
:10148000142000F0A3FB06B010BD00000064004073
:1014900040380240000002407047000000B50D4A8D
:1014A00001688BB01268914212D10B4B03AA002144
:1014B000FFF79FFD08B1FFF792FC07AB0DF10C0C95
:1014C00093E807008DE807009CE80F00FFF728FB72
:1014D0000BB000BDA80000204800002070477047F6
:1014E0007047000070B5044690F82000012804D031
:1014F000606A40F40020606218E0022084F8200056
:101500002068016821F00101016000F0FFFA054642
:101510000EE000BF00F0FAFA401B0A2808D9606A02
:1015200040F400306062052084F82000012070BD86
:1015300020684068C007EDD1606270BD7047704799
:10154000704770477047704770472DE9F041044677
:10155000876D00F0DBFA064694F835000025022876
:1015600006D08020606584F834500120BDE8F08109
:101570002068016821F0160101602068416921F0AE
:1015800080014161206C08B9A06C20B1206801681D
:1015900021F0080101602068016821F0010101606B
:1015A0000CE000F0B3FA801B052807D92020606505
:1015B000032084F8350084F83450D7E720680068A9
:1015C000C007EED194F85C103F208840B86001203D
:1015D00084F8350084F834500020C7E790F83510BF
:1015E000022903D08021416501207047052180F840
:1015F00035100068016821F001010160002070478A
:101600002DE9F84304464FF00009CDF800906348F7
:101610004FF41651A56D0068B0FBF1F72E6894F8F1
:101620005C10082000FA01F131420FD021680A68ED
:1016300052070BD50A6822F004020A6094F85C1085
:101640008840A860606D40F00100606594F85C100F
:101650004FF0010808FA01F0304208D021684969CA
:10166000090604D5A860606D40F00200606594F83A
:101670005C1004208840304208D02168096889073E
:1016800004D5A860606D40F00400606594F85C10BB
:1016900010208840304218D021680968090714D505
:1016A000A86020680168490304D50068000308D5D4
:1016B000A16C07E00168C90503D4016821F00801A5
:1016C0000160216C09B12046884794F85C10202005
:1016D0008840304231D021680968C9062DD5A860FC
:1016E00094F8350005282068016806D0490347D5DD
:1016F000006800031DD4616C1CE021F0160101603C
:101700002068416921F080014161206C08B9A06C1A
:1017100020B12068016821F00801016094F85C1094
:101720003F208840A86084F8358084F83490216D8B
:101730001FE0E16B09B120468847606D00282BD07F
:10174000606DC00714D0052084F83500206801685A
:1017500021F0010101600098401C0090B84203D8BC
:1017600020680068C007F6D184F8358084F834908A
:10177000E16C002910D001B02046BDE8F0430847D5
:101780000168C905D5D4016821F01001016084F811
:10179000358084F83490CCE7BDE8F8839C000020C5
:1017A0002DE9F041044600F0B1F906465CB1022093
:1017B00084F83500002584F834502068016821F051
:1017C000010101600DE00120BDE8F08100F09EF90B
:1017D000801B052805D920206065032084F835008A
:1017E000F2E720680068C007F0D12268116820483D
:1017F0000140D4E901031843D4E9033633431843C5
:1018000063691843A3691843E3691843236A1843BB
:101810000843616A042903D1D4E90B13194308432F
:10182000106020684069666A20F0070130460E4368
:10183000012704280CD1A06A0643E06A40B1204683
:10184000FFF78EFA20B14020606584F83570BAE762
:10185000206846612046FFF76FFA94F85C203F212C
:1018600091408160656584F835700020ACE7000028
:101870003F8010F02DE9F0410446866D90F8340069
:10188000002501280DD0012084F8340094F835702B
:101890000020012F07D084F8340002252846BDE837
:1018A000F0810220FBE7022784F83570606520464E
:1018B000FFF780FA94F85C103F208840B060206801
:1018C000016841F016010160206C20B120680168B8
:1018D00041F0080101602068016841F001010160E8
:1018E000DCE7000070B5044600F010F90546601C06
:1018F00002D004480078044400F008F9401BA042DC
:10190000FAD370BD900000202DE9F84FDFF8BCA19C
:101910000022012503264FF00F090AF1040BAAF15A
:10192000040E00BF0B6805FA02F42340A34270D1F5
:101930000F7907F00307012F01D0022F16D1876816
:101940004FEA420806FA08FC27EA0C07D1F80CC057
:101950000CFA08FC4CEA070CC0F808C04768A7431B
:101960000C79C4F3001494403C4344600C79E44384
:10197000A4070AD0C4684FEA420C06FA0CF7BC432D
:101980008F6807FA0CF72743C7600C7904F003044B
:10199000022C12D1D40800EB840CDCF8204057074D
:1019A000FF0E09FA07F824EA0804D1F8108008FAB3
:1019B00007F848EA0408CCF8208004684FEA420C93
:1019C00006FA0CF7BC430F7907F0030707FA0CF788
:1019D000274307604C6814F4403F70D03C4C2768A4
:1019E00047F480472760246822F0030704F480440A
:1019F0000094384C07EB040CDCF8084897074FEAD2
:101A0000177809FA08F7BC43334FB84202D10027D0
:101A100024E054E0314FB84201D101271EE0304F9D
:101A2000B84201D1022719E02E4FB84201D1032755
:101A300014E02D4FB84201D104270FE02B4FB842DC
:101A400001D105270AE02A4FB84201D1062705E057
:101A5000284FB84201D1072700E0082707FA08F706
:101A60002743CCF80878DAF800405746D1F804C08C
:101A70009C435FEACC2C00D51C433C60DBF8004063
:101A80005F46D1F804C09C435FEA8C2C00D51C4310
:101A90003C60DEF800407746D1F804C09C435FEA22
:101AA0008C3C00D51C433C60084F083F3C68D1F893
:101AB00004C09C435FEACC3C00D51C433C60521CF4
:101AC000102AFFF42FAFBDE8F88F0000083C01405A
:101AD000443802400030014000000240000402404F
:101AE00000080240000C02400010024000140240B6
:101AF00000180240001C02400069084000D001208C
:101B000070470AB1816170470904FBE701488068AA
:101B1000704700009000002002488168027811445C
:101B200081607047900000200B4810B5016841F4B7
:101B300000710160016841F480610160016841F455
:101B400080710160032000F06FF8002000F006F8BB
:101B500000F024F8002010BD003C024070B50D4D8F
:101B600004464FF47A712878B1FBF0F00A4909680D
:101B7000B1FBF0F000F08DFC48B9102C07D2002228
:101B80002146501E00F030F800206C6070BD01202E
:101B900070BD0000900000209C0000200A4808B59D
:101BA000016841F480410160006800F480400090C9
:101BB0000548001F016841F080510160006800F095
:101BC0008050009008BD000044380240002809DB26
:101BD00000F01F02012191404009800000F1E02047
:101BE000C0F8001170470000F0B40E4B1B680C46A3
:101BF000C3F30223C3F10705042D00D90425191DE1
:101C0000072901D2002300E0DB1E012606FA05F1B8
:101C1000491E214099409E40761E16403143F0BC3B
:101C200002F0D4BA0CED00E0064900F007020868A3
:101C30004FF6FF03184040EA0220034A10430860B1
:101C4000704700000CED00E00000FA052DE9F047B8
:101C50000E46050065D0DFF81481D8F80000F7B211
:101C600000F00700B04207D288F80070D8F80000F2
:101C700000F00700B04254D128683D4C810712D5CE
:101C8000400703D5206840F4E05020602878000722
:101C900003D5206840F4604020602068A96820F0E7
:101CA000F000084320602878C0072DD030496868CC
:101CB0000839012812D0022813D0032811D009684E
:101CC000890700292DDA216821F0030101432160F1
:101CD000FFF71CFF814641F2883A0EE0096889034C
:101CE000EFE709688901ECE7FFF710FFA0EB0901B6
:101CF000514502D90320BDE8F0872068696800F0EB
:101D00000C00B0EB810FEFD1D8F80010404601F085
:101D10000701B14207D90770006800F00700B04220
:101D200001D00120E7E72878400705D52068E96859
:101D300020F4E050084320602878000706D520688A
:101D4000296920F4604040EAC100206000F038F8C2
:101D50002168084AC1F30311515CC8400649086074
:101D600006480068FFF7FAFE0020C4E7003C024086
:101D700008380240905800089C0000209400002081
:101D80000448054900680968044AC1F38221515C8E
:101D9000C84070479C00002008380240A058000846
:101DA0000448054900680968044AC1F34231515C9E
:101DB000C84070479C00002008380240A058000826
:101DC000154810B5006810F00C02144813D04110EB
:101DD000042A0FD0082A0ED10F4C241F2268236832
:101DE00002F03F025B0207D52068C0F38810A0FB19
:101DF000010106E0084610BD2168C1F38811A1FB6E
:101E000000010023FEF7DEF92168C1F30141491CFE
:101E10004900B0FBF1F010BD083802400024F40086
:101E20002DE9F84F04006ED02078DFF84C93C007FE
:101E3000A9F104054AD009F104000168C1F3810148
:101E4000012908D00068C0F3810002280AD1D9F81E
:101E50000000400206D52868800337D56068002856
:101E6000E1D033E06068B0F5803F10D0B0F5A02F2E
:101E7000286810D020F480302860286820F4802062
:101E800028606068A8B1FFF741FE06460DE02868AB
:101E900040F48030F4E740F480202860F7E700BF8A
:101EA000FFF734FE801B642873D828688003F7D5B9
:101EB0000CE0FFF72BFE064605E000BFFFF726FE0D
:101EC000801B6428F0D828688003F7D42078DFF8D6
:101ED000AC8280074FF0000A3ED5A748001D01687C
:101EE00011F00C0F08D00068C0F3810002280BD15C
:101EF000D9F80000400207D42868800716D5E068AA
:101F0000012800D112E033E1E068B8B10120C8F83F
:101F10000000FFF7FBFD064605E000BFFFF7F6FDFA
:101F2000801B0228C0D828688007F7D52868216957
:101F300020F0F80040EAC10028600DE0C8F800A0D9
:101F4000FFF7E4FD064604E0FFF7E0FD801B0228F2
:101F50001FD828688007F7D42078000722D5864F3D
:101F600087486169703771B101210160FFF7CEFDCB
:101F7000064604E0FFF7CAFD801B022809D838682E
:101F80008007F7D50EE0C0F800A0FFF7BFFD0646BA
:101F900005E082E0FFF7BAFD801B02287DD8386893
:101FA0008007F7D42078400768D5DFF8CCB1002748
:101FB0000BF13C0BDBF80000C0000BD4DBF8001089
:101FC00041F08051CBF80010DBF80000012700F051
:101FD000805000906B4E3068C00510D4306840F4DB
:101FE00080703060FFF792FD009005E0FFF78EFDF6
:101FF0000099401A022850D83068C005F6D55E4EC8
:10200000A0686C3601280FD00528306810D020F069
:1020100001003060306820F004003060A068B8B182
:10202000FFF774FD00900FE0306840F00100F4E726
:1020300040F004003060F7E7FFF768FD0099411AAF
:1020400041F28830814266D830688007F4D50EE0CE
:10205000FFF75CFD009007E0FFF758FD0099411A7B
:1020600041F28830814256D830688007F4D42FB1CD
:10207000DBF8001021F08051CBF80010A069C8B344
:102080003D49091D0968C1F3810102294AD002288E
:10209000504607D0C8F8600000E03CE0FFF736FD8E
:1020A00004463BE04746C8F86000FFF72FFD0646B0
:1020B00005E000BFFFF72AFD801B02282BD8286807
:1020C0008001F7D4D4E907010843A16A2E4A4908E0
:1020D00002EB0141626A41EA8211084394F82C1034
:1020E00040EA0161C9F8001001203866FFF70EFDD3
:1020F000044606E03EE000BFFFF708FD001B022893
:1021000009D828688001F7D534E000BFFFF7FEFC4E
:10211000001B022802D90320BDE8F88F286880013F
:10212000F4D427E00128F7D0D9F80000E26900F4E0
:10213000800191421CD1226A00F03F01914217D1E7
:1021400047F6C071626A0140B1EB821F10D1A26AEA
:102150004FF0FF3300F4403103EB5202B1EB024F7A
:1021600006D194F82C1000F07060B0EB016F01D034
:102170000120D1E70020CFE70438024000004742A9
:10218000800E4742007000400000FFFF70B5040061
:1021900009D0606A002540B125616561A56294F8A7
:1021A000510040B10CE0012070BD6068B0F5827F45
:1021B000F4D0E561F2E784F85050204600F044F88E
:1021C000022084F851002068016821F0400101607C
:1021D000A088218900F4827001F404410843A18998
:1021E00001F400610843217C01F002010843217DD4
:1021F00001F001010843218B01F400710843217FA4
:1022000001F03801084394F8201001F080010843E0
:10221000218D01F40051084321680860A069042160
:1022200001EA104094F8241001F0100108432168DD
:1022300048602068C16921F40061C16165650120C1
:1022400084F85100002070BD10B586B004461421FA
:102250006846FEF701F813492068884220D11248E9
:102260000021026842F480520260006800F480504D
:1022700005900D481438026842F0010202600068BF
:1022800000F001000590E02000900220CDE901015E
:10229000032003900520049069460448FFF734FBAF
:1022A00006B010BD0030014044380240000002403A
:1022B0002DE9F84F044690F8500000270A9E1D466D
:1022C00092468B464FF0010901280ED0012084F878
:1022D0005000FFF71BFC804694F85100616801280C
:1022E0000CD0B1F5827F07D102E00220BDE8F88F63
:1022F000A16809B9042801D00227C2E0BBF1000F90
:1023000027D0BAF1000F24D01DB394F8510004284F
:1023100002D0052084F8510000206065C4F838A080
:10232000E587A587C4F830B0E586A586206460649B
:1023300020680168490603D4016841F0400101604A
:10234000E068B0F5006F606805D0E8B3012D46D0B5
:102350007FE0012795E008B1012D39D1206B21687C
:102360000088C860206B801C2063E08E401EE086E1
:102370002EE02068816889070FD5E18E69B1B9F137
:10238000010F0AD1216B0988C160206B801C20637A
:10239000E08E401EE0864FF0000920688168C90782
:1023A0000CD0E18F51B1C068A16B0880A06B801C7C
:1023B000A063E08F401EE0874FF00109FFF7A6FB06
:1023C000A0EB0800B04200E009E001D3701C50D13E
:1023D000E08E0028CDD1E08F0028CAD13FE0206BED
:1023E000216800780873206B401C2063E08E401E3B
:1023F000E0862EE02068816889070FD5E18E69B1FB
:10240000B9F1010F0AD1216B09780173206B401CCF
:102410002063E08E401EE0864FF00009206881684E
:10242000C9070CD0E18F51B1C068A16B0870A06BD7
:10243000401CA063E08F401EE0874FF00109FFF7CA
:1024400065FBA0EB0800B04202D3701C01D010E085
:102450007EB1E08E0028CDD1E08F0028CAD142465F
:102460003146204601F0DCFA28B1012720206065C2
:1024700007E0032705E0A06818B92068C1688068F4
:102480000090012084F85100002084F85000384664
:102490002CE710B5401EB0F1807F01D3012010BDA4
:1024A0004FF0E02460610F21601701F08FFE0020E3
:1024B000A06107202061002010BD70477047000018
:1024C00070B590F83C20012A32D0012480F83C40BD
:1024D000022280F83D2003685A689D6822F0700649
:1024E0000A6832435A60134B02689A4214D0B2F120
:1024F000804F11D0104B9A420ED0104B9A420BD005
:102500000F4B9A4208D00F4B9A4205D00E4B9A427D
:1025100002D00E4B9A4204D1496825F0800319433A
:10252000916080F83D40002180F83C10084670BD65
:10253000022070BD0000014000040040000800407F
:10254000000C004000040140004001400018004021
:1025500010B5040003D094F83D0010B107E001204D
:1025600010BD002084F83C00204600F01FF8022037
:1025700084F83D00211D206801F042FB012084F811
:10258000460084F83E0084F83F0084F8400084F858
:10259000410084F8420084F8430084F8440084F841
:1025A000450084F83D00002010BD000008B5154A24
:1025B0000168154891420ED1016841F004010160A3
:1025C0000068002200F00400009011461E20FFF772
:1025D0000BFB1E2010E00D4A914211D1016841F021
:1025E000080101600068002200F008000090114618
:1025F0003220FFF7F9FA3220BDE80840FFF7E6BACB
:1026000008BD00000008004040380240000C0040B7
:1026100090F83D10012901D001207047022180F877
:102620003D100168CA6842F00102CA6000681149A1
:10263000884214D0B0F1804F11D00F4988420ED09B
:102640000E4988420BD00E49884208D00D49884275
:1026500005D00D49884202D00C49884204D18168D6
:1026600001F00701062903D0016841F00101016072
:1026700000207047000001400004004000080040B6
:10268000000C0040000401400040014000180040E0
:1026900070B5044690F83C000025012817D00126AB
:1026A00084F83C60022084F83D002068826822F0B3
:1026B000770222F47F4282600868502838D00DDC0F
:1026C00020284FD005DC90B3102811D14AE0022019
:1026D00070BD302846D040280AD13BE060282FD07A
:1026E00070280DD0B0F5805F03D0B0F5005F12D038
:1026F000012584F83D60002084F83C00284670BD28
:10270000CB68D1E90121206801F0DEFA20688168F8
:1027100041F0770109E0CB68D1E90121206801F09F
:10272000D3FA2068816841F480418160E1E719E0D3
:10273000CA684968206801F0D9FA5021206806E08B
:10274000CA684968206801F0E2FA6021206801F057
:10275000C5FACEE7CA684968206801F0C7FA402187
:102760002068F4E7226801461046F0E7704770B52C
:102770000446006801694FF00005C943890715D474
:10278000C168C943890711D4E91E0161012020777E
:10279000206880698007204602D0FFF7E7FF04E049
:1027A00000F098F8204600F096F825772068016937
:1027B000C943490717D4C168C943490713D46FF007
:1027C00004010161022020772068806910F4407FB5
:1027D000204602D0FFF7CAFF04E000F07BF8204655
:1027E00000F079F8257720680169C943090716D4F4
:1027F000C168C943090712D46FF0080101610420C0
:1028000020772068C0698007204602D0FFF7AEFF1E
:1028100004E000F05FF8204600F05DF825772068BE
:102820000169C943C90617D4C168C943C90613D48D
:102830006FF010010161082020772068C06910F452
:10284000407F204602D0FFF791FF04E000F042F8FD
:10285000204600F040F8257720680169C943C90780
:1028600008D1C168C943C90704D1891E0161204646
:1028700000F032F820680169C943090609D4C1682B
:10288000C943090605D46FF0800101612046FFF7B6
:1028900014FE20680169C943490609D4C168C943C7
:1028A000490605D46FF040010161204600F0DCF9D3
:1028B00020680169C94389060BD4C168C9438906E8
:1028C00007D46FF0200101612046BDE87040FFF79A
:1028D000F5BD70BD7047704770B5D649D64C88427B
:1028E0002DED0A8B02D1E168491CE160D349884291
:1028F0007AD1D3480178D0480129406900D1B0B3DA
:10290000012871D1D4E90301401A00EE100AB8EE93
:10291000400ADFEDCC0ACC4DCC4E80EE208AD5EDBE
:10292000000A9FEDCB9BD6ED00AAB4EEE08AF1EE53
:1029300010FA22D218EE100AFDF751FE41EC1B0BE3
:1029400018EE100AFDF74BFE41EC180B1AEE900A38
:10295000FDF745FE53EC192BFDF730FD53EC182B1A
:10296000FDF72CFD53EC1B2BFDF728FD59E1FFE78C
:10297000E068206101206061C4E7F0EE008AB1EEFA
:1029800000AA20EEA80AB4EEC80AF1EE10FA0EDD95
:1029900028EE081A68EE0A1A01EEE01A00EE201A74
:1029A000FEEE000A21EE2A0A20EE200A1AE010EEBE
:1029B000100AFDF714FE53EC192BFDF758FC41ECFF
:1029C0001B0B18EE100AFDF70AFE53EC1B2BFDF74C
:1029D00019FE0CD2D6ED000A95ED000A60EE800AD1
:1029E00020EE800A84ED070ABDEC0A8B70BD95EDE0
:1029F000000AF0EE080A20EE200A10EE100AFDF799
:102A0000EEFD53EC192BFDF732FC41EC1B0B18EEDD
:102A1000100AFDF7E4FD53EC1B2BFDF7F3FD7BD211
:102A200096ED00AAD5ED00AA2AEE280A60EE2A8AC1
:102A300018EE900AFDF7D3FD53EC192BFDF7BEFC01
:102A400041EC1C0B1AEE100AFDF7C9FD53EC192BD3
:102A5000FDF7B4FC53EC192BFDF7B0FC53EC192B2C
:102A6000FDF7ACFC2AEE2A0A41EC1B0B20EE2A0AE9
:102A700010EE100AFDF7B3FD53EC1B2BFDF7F7FB2F
:102A800053EC1C2BFDF7F3FB41EC1C0B18EE100A6A
:102A9000FDF7A5FD41EC1B0B1AEE100AFDF79FFD9B
:102AA00053EC192BFDF78AFC41EC190B18EE900A38
:102AB000FDF795FD53EC192BFDF7D9FB53EC1B2BC0
:102AC000FDF77CFC41EC190B18EE100AFDF787FDB1
:102AD00041EC1B0B18EE100AFDF781FD41EC180BC1
:102AE0001AEE100AFDF77BFD9FED5B1B53EC112BDB
:102AF000FDF764FC53EC182BFDF760FC53EC1B2B2B
:102B0000FDF75CFC53EC192BFDF7B1FB53EC1C2BD0
:102B1000FDF74EFC85E0FFE795ED000A20EE0A0A7E
:102B200010EE100AFDF75BFD53EC192BFDF79FFB30
:102B300041EC1B0B18EE100AFDF751FD53EC1B2B5B
:102B4000FDF760FD72D2D5ED00AA6AEE8A8A18EE12
:102B5000900AFDF744FD53EC192BFDF72FFCB2EE64
:102B6000000A41EC1B0B2AEE800A20EE2A0A10EE26
:102B7000100AFDF734FD53EC1B2BFDF778FB9FED9E
:102B8000381B53EC112BFDF772FB41EC1A0B30682C
:102B90000546FDF724FD53EC1A2BFDF70FFC41EC25
:102BA0001B0B18EE100AFDF71AFD41EC1A0B18EE7C
:102BB000900AFDF714FD53EC192BFDF758FB41EC7F
:102BC0001C0B2846FDF70BFD53EC1C2BFDF7F6FB09
:102BD00053EC1A2BFDF7F2FB41EC1C0B18EE100A1C
:102BE000FDF7FDFC41EC1A0B18EE100AFDF7F7FC9F
:102BF00041EC180B2846FDF7F2FC53EC192BFDF7BE
:102C0000DDFB53EC182BFDF7D9FB53EC1A2BFDF72A
:102C1000D5FB53EC1C2BFDF7CBFB53EC1B2BFDF72B
:102C200026FBFDF707FDE061DEE6FFE700206061BF
:102C3000DAE60000280100200000002070010020DA
:102C40002F00002000007A44540000205000002093
:102C5000000000000000E03F000000000000E0BFB6
:102C6000000000000000C03F704770477047000040
:102C7000F8B5016804460868CA684B6910F00F0F80
:102C80004FF0000559D003F0010602F49077374366
:102C900065D0C10705D0D10503D5216C41F00101F4
:102CA0002164410705D5D90703D0216C41F0020109
:102CB0002164810705D5D90703D0216C41F00401B7
:102CC0002164010707D502F02001314303D0216CB4
:102CD00041F008012164216C00293AD0800604D516
:102CE000900602D5204601F0D4F820684069216C96
:102CF000C0F38010090700D460B3204601F094F8B7
:102D000020684069400621D52068143050E8001F33
:102D100021F0400140E80012002AF5D1A06BA8B1D3
:102D20006C490165A06BFEF759FC002811D0A06B1F
:102D3000016D01B0BDE8F040084783060FD593064A
:102D40000DD52046BDE8F84001F0A3B82046FFF7B6
:102D50008DFFF8BD2046FFF789FF2564F8BD266B7F
:102D60002023012E79D1C60677D5D60675D50868F9
:102D7000486800904869400640D5A16B08684068E3
:102D80000004000CEAD0A28D8242E7D9E085C86930
:102D9000B0F5807F2DD020680C3050E8001F21F462
:102DA000807140E80012002AF5D12068143050E804
:102DB000001F21F0010140E80012002AF5D120682F
:102DC000143050E8001F21F0400140E80012002AB2
:102DD000F5D184F83E30256320680C3050E8001FA0
:102DE00021F0100140E80012002AF5D1A06BFEF797
:102DF000ACFBA08DE18D401A81B229E0A08DE18D60
:102E0000401A81B2E08D0028A8D00029A6D0206801
:102E10000C3050E8002F22F4907240E80026002E7B
:102E2000F5D12068143050E8002F22F0010240E86C
:102E30000026002EF5D184F83E30256320680C3042
:102E400050E8002F22F0100240E80023002BF5D1BB
:102E50002046FFF70AFFF8BDFFE705062BD515064C
:102E600029D594F83D002128F5D1A068B0F5805F00
:102E700001D12069B0B1206A411C2162216800782B
:102E80004860E08C401E0004000CE084E3D1206820
:102E9000C16821F08001C1602068C16841F0400133
:102EA000C160D8E7206A0088C0F308004860206A43
:102EB000801C2062E5E74006CDD55006CBD5CA6818
:102EC000204622F04002CA6084F83D3000F083F9C9
:102ED000C1E70000333D000870B5040004D094F849
:102EE0003D00002510B106E0012070BD84F83C5083
:102EF000204600F023F8242084F83D002068C168B3
:102F000021F40051C160204601F024F820680169D5
:102F100021F4904101612068416921F02A01416159
:102F20002068C16841F40051C1602564202084F804
:102F30003D0084F83E00002070BD00002DE9F04304
:102F400087B0064614216846FDF786F950484F4F72
:102F5000D6F800C000244E49143802220323072566
:102F6000BC451BD10E6846F010060E60096801F0E2
:102F700010010591016841F0010101600068694696
:102F800000F00100059058028DE81500CDE90335E9
:102F90004048FEF7B9FC07B0BDE8F083DFF8F880E1
:102FA0004FF480674FF48079C44533D13849091F05
:102FB000D1F800C04CF4802CC1F800C0096801F4BD
:102FC00080210591016841F00201016000686946B5
:102FD00000F0020005904FF440608DE81500CDE947
:102FE00003352E48FEF790FC2E4D2D4828607804BE
:102FF000C5E90104C5E903476C61C5E906492C62CE
:1030000028466C62FEF7CCFB08B1FDF7E8FEB5631D
:10301000AE63C0E7244DAC45BDD10D6845F0200539
:103020000D60096801F020010591016841F004017B
:1030300001600068694600F004000590C0208DE83A
:1030400015000820CDE903301848FEF75DFC154D4A
:103050001748603528608005C5E90104C5E90347C4
:103060006C61C5E906492C6228466C62FEF798FB44
:1030700008B1FDF7B4FEB563002211464720AE63E8
:10308000FEF7B2FD4720FEF7A1FD84E700100140E6
:103090004438024000000240004800400004024062
:1030A0002860024084020020001401400008024011
:1030B0002864024090F83E30202B0ED159B152B115
:1030C00090F83C30012B08D0012380F83C300023DD
:1030D000036300F0C5BF0120704702207047000065
:1030E00070B50B490446006809680126094D8842FD
:1030F00002D16E6002F030FB0749206809688842FF
:1031000005D1AE60BDE87040044802F00BBA70BD56
:103110004002002000000020FC010020DE0800200A
:10312000704700002DE9F843044690F83D001F4623
:1031300016460D4620284CD1C5B1BEB194F83C00CE
:10314000012846D0012084F83C004FF00008C4F864
:103150004080212084F83D00FEF7D8FCA6848146FB
:10316000E684A068B0F5805F03D004E00120BDE8EC
:10317000F883206928B12E465FF0000584F83C8072
:103180000EE00026FAE78021204600F0B3FFA0B948
:10319000AEB116F8010B21684860E08C401EE08457
:1031A000E08C4B464FF0000200970028EBD14FF027
:1031B0004001204600F09EFF30B10320D7E735F8EC
:1031C000020BC0F30800E6E7202084F83D00002051
:1031D000CDE70220CBE77047FEE700002DE9F04184
:1031E000B6EE002AF0EE412A314C40EE422A2DED97
:1031F000048B10EE021A00259FED2E9BC4ED002AD1
:10320000B0EE623AF0EE612A40EEC21A50EE822A27
:1032100004F15406C4ED012A84ED031AC4ED042A16
:1032200084ED063AC4ED071A84ED091AC4ED0A1AB2
:1032300005EB450004EB80077868FDF7D0F941EC19
:10324000100BB0EE491AF0EE691A00F0D1FFB0EEA3
:10325000408AF0EE608A3868FDF7C1F941EC100B46
:10326000B0EE491AF0EE691A00F0C2FF53EC182BC9
:1032700051EC100BFCF7FBFF41EC100B01F0E0FDF3
:1032800051EC100BFDF7D6F946F825006D1C042D06
:10329000CEDB00209FED090A06EB8001401C81ED8A
:1032A000000A0328F8DBBDEC048BBDE8F0810000C8
:1032B000440300200000000000000040CDCC4C3E44
:1032C00010B516482DED048BB0EE418AF0EE608A01
:1032D000B0EE409A00F024F81048B0EE481AF0EE34
:1032E000680AB0EE490A0C3000F082F80B48B0EEE4
:1032F000481AF0EE680AB0EE490A183000F0E0F81B
:10330000B0EE481AF0EE680AB0EE490ABDEC048B44
:103310000248BDE81040243000F03AB944030020D0
:1033200010B504462DED0A8BB0EE41AAB0EE608ACE
:1033300010EE100AFDF753F99FED27BB41EC190B76
:10334000B0EE4B0AF0EE6B0A01F07AFD53EC192B4C
:1033500051EC100BFDF732F89FED21CB53EC1C2BF9
:10336000FDF72CF841EC190B18EE100AFDF737F9B0
:1033700041EC180BB0EE4B0AF0EE6B0A01F060FD69
:1033800053EC182B51EC100BFDF718F853EC1C2BD9
:10339000FDF714F841EC180B134890ED000A20EEED
:1033A0000A0A10EE100AFDF71AF953EC182BFCF775
:1033B0005EFF53EC192BFCF7FBFFFDF73BF900EE2A
:1033C000100A0A48D0ED000A20EE200A84ED020A15
:1033D000BDEC0A8B10BD00000000000000000040A2
:1033E000000000000000E03F9803002028000020BB
:1033F00010B504462DED0A8BB0EE41AAB0EE608AFE
:1034000010EE100AFDF7EBF89FED27BB41EC190B0E
:10341000B0EE4B0AF0EE6B0A01F012FD53EC192BE3
:1034200051EC100BFCF7CAFF9FED21CB53EC1C2B8A
:10343000FCF7C4FF41EC190B18EE100AFDF7CFF8AA
:1034400041EC180BB0EE4B0AF0EE6B0A01F0F8FC01
:1034500053EC182B51EC100BFCF7B0FF53EC1C2B6A
:10346000FCF7ACFF41EC180B134890ED010A20EE7D
:103470000A0A10EE100AFDF7B2F853EC182BFCF70D
:1034800097FF53EC192BFCF793FFFDF7D3F800EEF1
:10349000100A0A48D0ED000A20EE200A84ED020A44
:1034A000BDEC0A8B10BD00000000000000000040D1
:1034B000000000000000E03F9803002028000020EA
:1034C00010B504462DED0A8BB0EE41AAB0EE608A2D
:1034D00010EE100AFDF783F89FED27BB41EC190BA6
:1034E000B0EE4B0AF0EE6B0A01F0AAFC53EC192B7C
:1034F00051EC100BFCF762FF9FED21CB53EC1C2B22
:10350000FCF75CFF41EC190B18EE100AFDF767F8A9
:1035100041EC180BB0EE4B0AF0EE6B0A01F090FC98
:1035200053EC182B51EC100BFCF748FF53EC1C2B01
:10353000FCF744FF41EC180B134890ED020A20EE13
:103540000A0A10EE100AFDF74AF853EC182BFCF7A4
:103550002FFF53EC192BFCF78AFEFDF76BF800EEFA
:10356000100A0A48D0ED000A20EE200A84ED020A73
:10357000BDEC0A8B10BD0000000000000000004000
:10358000000000000000E03F980300202800002019
:1035900010B504462DED0A8BB0EE41AAB0EE608A5C
:1035A00010EE100AFDF71BF89FED27BB41EC190B3D
:1035B000B0EE4B0AF0EE6B0A01F042FC53EC192B13
:1035C00051EC100BFCF7FAFE9FED21CB53EC1C2BBA
:1035D000FCF7F4FE41EC190B18EE100AFCF7FFFFA4
:1035E00041EC180BB0EE4B0AF0EE6B0A01F028FC30
:1035F00053EC182B51EC100BFCF7E0FE53EC1C2B9A
:10360000FCF7DCFE41EC180B134890ED030A20EEAA
:103610000A0A10EE100AFCF7E2FF53EC182BFCF735
:1036200026FE53EC192BFCF722FEFDF703F800EE03
:10363000100A0A48D0ED000A20EE200A84ED020AA2
:10364000BDEC0A8B10BD000000000000000000402F
:10365000000000000000E03F980300202800002048
:103660000E4810B50C4901600821416000214FF45B
:1036700000328160C0E903124161017641768176B2
:10368000C17601774177FDF73CFE002803D0BDE805
:103690001040FDF7A4BB10BD00640040A80000204E
:1036A000114808B5016841F480010160016801F426
:1036B00080010091016841F400110160006800225E
:1036C00000F40010009011460C20FEF78DFA0C203B
:1036D000FEF77CFA002211463920FEF785FABDE894
:1036E00008403920FEF772BA303802402DE9F04325
:1036F00087B014216846FCF7AFFD33480024016809
:1037000041F080010160016801F0800105910168CC
:1037100041F001010160016801F0010105910168BA
:1037200041F002010160016801F0020105910168A8
:1037300041F008010160016801F00801059101688C
:1037400041F0040101600068DFF8808000F00400AF
:103750000590012204214046FEF7D3F9DFF870906E
:103760004FF40056002231464846FEF7CAF90122BE
:10377000D70339464846FEF7C4F91020CDE90004C6
:10378000694614480294FEF7BFF804200090012512
:10379000CDE90154694640460394FEF7B5F802208E
:1037A000CDE90204CDE9006569464846FEF7ACF86C
:1037B000CDE90075CDE9025469464846FEF7A4F804
:1037C00007B0BDE8F083000030380240000402403A
:1037D000000C024000000240104810B50E49016084
:1037E0004FF482714160002181600122C160C0E913
:1037F0000412520282612822C0E9072141628162DB
:103800000A21C162FEF7C2FC002803D0BDE81040C7
:10381000FDF7E5BA10BD000000300140D0000020E7
:1038200010B586B0002417480094019402940394C4
:1038300004941349059401604F21C0E9011440F23A
:10384000E731C0E9031480218161FEF781FE08B1F0
:10385000FDF7C5FA4FF48050009069460948FEF71D
:1038600017FF08B1FDF7BBFA049404A905480594B5
:10387000FEF726FE002801D0FDF7B1FA06B010BD14
:10388000000800402801002010B586B00024174829
:1038900000940194029403940494134905940160E4
:1038A0004F21C0E9011440F2E731C0E9031480213F
:1038B0008161FEF74DFE08B1FDF791FA4FF480509B
:1038C000009069460948FEF7E3FE08B1FDF787FA64
:1038D000049404A905480594FEF7F2FD002801D0E0
:1038E000FDF77DFA06B010BD000C0040700100200D
:1038F0000C4810B50A4901604FF4E13141600021E4
:1039000081600C22C160C0E904128161C161FFF7CE
:10391000E3FA002803D0BDE81040FDF760BA10BDFF
:1039200000100140B80100200C4810B50A490160A0
:103930004FF4E1314160002181600C22C160C0E997
:1039400004128161C161FFF7C7FA002803D0BDE806
:103950001040FDF744BA10BD00480040FC010020B3
:103960000C4810B50A4901604FF4E1314160002173
:1039700081600C22C160C0E904128161C161FFF75E
:10398000ABFA002803D0BDE81040FDF728BA10BDFF
:103990000014014040020020FEE7FEE790ED040A1B
:1039A000D0ED030AB0EE002A30EE600A80ED050A81
:1039B000D0ED070AD0ED001A30EE601A21EE211A80
:1039C000D0ED011A01EE801AF0EE401A40EEC21A54
:1039D00090ED062A71EE821A90ED022A02EE211A6B
:1039E000D0ED081A31EE211A80ED081AC0ED060A52
:1039F00080ED070A90ED090AB4EEC01AF1EE10FA54
:103A000001DD80ED080AD0ED080AB1EE400AF4EEBF
:103A1000C00AF1EE10FA01D280ED080A7047704733
:103A200038B504461248134B0068B0FBF3F04FF46E
:103A30007A73584300906068B0F5827F0DD10B46D1
:103A4000009200228021204600F016F870B1606DCF
:103A500040F020006065032038BD009830B1401E62
:103A6000009020688068C0430006F6D5002038BD6D
:103A70009C00002000366E012DE9F8431E46914659
:103A800088460446089DFEF741F8401B351AFEF7AC
:103A90003DF8074625480068C0F3CB30684338E05E
:103AA000701C37D0FEF732F8C01BA84203D215B104
:103AB000009860B32CE02068416821F0E00141608B
:103AC0006068B0F5827F0BD1A068B0F5004F02D0DE
:103AD000B0F5806F04D12068016821F040010160D9
:103AE000A06AB0F5005F09D12068016821F4005197
:103AF00001602068016841F400510160012084F8F0
:103B00005100002084F850000320BDE8F883002510
:103B1000401E00902068816838EA010004D000212E
:103B20004945BDD10020F0E70121F9E79C000020C4
:103B30007047FDF7F1BF000030B593B03021684603
:103B4000FCF78AFB14210CA8FCF786FB1D48002516
:103B5000016841F080510160006800F080501190D0
:103B60001948016841F4804101600068022400F4B2
:103B70008040119001200090000401908001CDE967
:103B8000064008AA0420A02182E813000B90684692
:103B9000FEF746F908B172B6FEE70CA90F2081E8DE
:103BA00031004FF4A0500F904FF480501090052139
:103BB0000CA8FEF74BF8002801D072B6FEE713B050
:103BC00030BD0000403802400070004005480168E8
:103BD00041F47001016003494FF0006080390860D2
:103BE0007047000088ED00E00148FEF7C0BD00000E
:103BF000280100200148FEF7BABD00007001002036
:103C0000F0B50268254C264D264E274F274B4FF026
:103C1000804CA04209D0604507D0A84205D0B042F0
:103C200003D0B84201D0984204D122F0700E4A6805
:103C300042EA0E02A0421BD0604519D0A84217D01C
:103C4000B04215D0B84213D0984211D0184DA842B6
:103C50000ED0184DA8420BD0174DA84208D0174DD2
:103C6000A84205D0164DA84202D0164DA84203D155
:103C700022F44075CA682A434D6922F080022A4323
:103C800002608A68C2620A688262A04201D09842D9
:103C900001D10969016301214161F0BD00000140CA
:103CA0000004004000080040000C004000040140F7
:103CB000004001400044014000480140001800401D
:103CC000001C00400020004010B5846842EA032236
:103CD00024F47F440A432243826010BD826822F0AC
:103CE00070020A4342F007018160704710B5036A11
:103CF000046A24F001040462846924F0F00444EAB4
:103D0000021423F00A020A438461026210BD10B556
:103D1000036A23F0100303628369046A23F4704387
:103D200043EA023224F0A00343EA011182610162F6
:103D300010BD10B5806B0021C185C184FEF796FFD0
:103D400010BD70B5846B2068406994F83D10C0F3D5
:103D5000C0100025212904D118B1E584204600F0C7
:103D60008AF82068406994F83E10C0F38010222938
:103D700004D118B1E585204600F056F8206C40F0DB
:103D8000100020642046FEF771FF70BD10B501469B
:103D9000806B09680968C9052FD40021C1850168B5
:103DA0000C3151E8002F22F4807241E80023002BEF
:103DB000F5D10168143151E8002F22F0010241E8E9
:103DC0000023002BF5D10168143151E8002F22F0B7
:103DD000400241E80023002BF5D1202180F83E105D
:103DE000016B012909D101680C3151E8002F22F043
:103DF000100241E80023002BF5D1016B012902D00C
:103E0000FFF76EF910BD818DFEF72FFF10BD10B5C5
:103E1000806B016B012902D0FFF782F910BD818D03
:103E20004908FEF722FF10BD01680C3151E8002F50
:103E300022F4907241E80023002BF5D1016814317F
:103E400051E8002F22F0010241E80023002BF5D1B8
:103E5000016B012909D101680C3151E8002F22F0D2
:103E6000100241E80023002BF5D1202180F83E10FC
:103E700000210163704701680C3151E8002F22F0E6
:103E8000C00241E80023002BF5D1202180F83D102D
:103E9000704708B590F83E10222901D0022008BDD5
:103EA00082684FF480539A4201D1016921B1816A3D
:103EB0009A421BD04AB10AE00268816A5268C2F392
:103EC00008020A80816A891C08E0026972B10268EE
:103ED000526802F07F020A70816A491C8162C18DBA
:103EE000491E0904090CC18503D019E00268526813
:103EF000F1E70168CA6822F02002CA600168CA6856
:103F000022F48072CA6001684A6922F001024A61A3
:103F1000202180F83E10016B012903D0FFF7E0F863
:103F2000002008BD0021016301680C3151E8002F19
:103F300022F0100241E80023002BF5D101680A6845
:103F4000D20602D50A6849680091818DFEF78DFE80
:103F5000E6E7000070B5044600680169E26821F4F4
:103F60004051114301612169A068E2690843616918
:103F7000114308432168CA6849F20C639A4302431B
:103F8000CA6020684169A26921F44071114341610E
:103F900031492068884202D03049884202D1FDF779
:103FA000FFFE01E0FDF7ECFEE26900231921642524
:103FB0003226B2F5004F626828D0A0FB0101930FB2
:103FC0009200FCF7FFF80146B0FBF5F06FF0180225
:103FD000504301EB800006EB0010B0FBF5F000F061
:103FE000F002B1FBF5F002EB0012B1FBF5F06FF05F
:103FF0001803584301EB800006EB0010B0FBF5F00E
:1040000000F00F0021681044886070BDA0FB010122
:1040100092185B41FCF7D6F80146B0FBF5F00201BF
:10402000B1FBF5F06FF01803584301EB800006EB8D
:10403000C000B0FBF5F000F0F80002EB4002B1FB6D
:10404000F5F0584301EB800006EBC000B0FBF5F043
:1040500000F00700D6E70000001001400014014006
:1040600038B5816282850025134604460564222006
:1040700084F83E00A26B1C48D063A26B1B481064FE
:10408000A26B1B48D064A06B0A4605652168A06B33
:10409000091DFDF7EFFB206801684068009084F877
:1040A0003C50206948B120680C3050E8001F41F4B2
:1040B000807140E80012002AF5D12068143050E8E1
:1040C000001F41F0010140E80012002AF5D12068EC
:1040D000143050E8001F41F0400140E80012002A6F
:1040E000F5D1002038BD00008D3D00080F3E0008CE
:1040F000433D00082DE9F041984617460E46044618
:10410000069D27E0681C25D02DB1FDF7FFFCA0EB34
:104110000800A8421ED920680C3050E8001F21F486
:10412000D07140E80012002AF5D12068143050E820
:10413000001F21F0010140E80012002AF5D12020E3
:1041400084F83D0084F83E00002084F83C00032001
:10415000BDE8F0812068006836EA000004D0002045
:10416000B842CFD00020F3E70120F9E70148FEF77D
:104170007FBD000040020020FEE700000FB4054BA9
:1041800010B503A9044A029800F080FF10BC5DF846
:1041900014FB000035520008A000002003B4019871
:1041A0004100009850EAC12018BF04204A0D18BFF2
:1041B00040F0010040F2FF72B2EB515F08BF40F0E7
:1041C0000200012808BF052002B070470907090E48
:1041D000002804DB00F1E02080F80014704700F0B4
:1041E0000F0000F1E02080F8141D7047000000006F
:1041F0002DE9F04D2DED040B2DED0E8B96B0DDE984
:104200002550279CDDF890A025F0004624F00048BA
:10421000BAF1000F14BF0121002101EB4502FC4956
:1042200053184A1093422AD3002814BF01230023B5
:1042300003EB44030B44F7498B4220D358EA0001B7
:104240009FEDF59B76D0DFF8D8B35D4503D1BAF189
:10425000000F05D188E0BAF1000F08BF002100D09F
:10426000012101EB450111F5001F08D8002814BFFA
:104270000121002101EB440111F5001F0BD99DED37
:10428000261B9DED240B16B0BDEC0E8B04B0BDE8D3
:10429000F04D00F0A9BE0027002DBCBFE1498845C4
:1042A00021DAE1498845A8BF02271CDAC3451ADC98
:1042B000DE4901EB2851142908DDC1F1340220FA4E
:1042C00002F101FA02F282420DD108E058B9C1F1BF
:1042D000140228FA02F101FA02F2424503D101F078
:1042E0000101C1F1020756EA0A0124D1002C22DAA9
:1042F000002D18BF022F01D0012F0AD0022000F09C
:10430000BFFE16B0BDEC0E8B04B0BDE8F04D00F062
:1043100053BE022000F0B4FE00F04EFE51EC100B34
:1043200081F0004141EC100B16B0BDEC0E8B04B0D7
:10433000BDE8F08D18E09FEDBEAB9FEDBF8B002870
:1043400071D1B848804522D105F1804010F5801028
:1043500008BFBAF1000F07D0B3450ADC002CA8BF94
:104360009DED260BE0DA0DE0B0EE490AF0EE690AA9
:10437000DAE7002C06DA9DED260B51EC100B81F0EC
:1043800000416FE0AE48784490ED000BCCE7D84593
:104390004DD1002C48DA2EB186423AD1BAF1000F45
:1043A00042D126E0BAF1000F13D0022000F068FEDF
:1043B00000F036FE8DED020B9DED240B8DED000B14
:1043C00010EE900A039961F31E0003909DED020B1D
:1043D000AAE78DED02AB9DED240B1AEE901A10EEBC
:1043E000900A8DED000B61F31E0003909DED020B12
:1043F0009AE78DED028B9DED240B18EE901A10EECE
:10440000900A8DED000B61F31E0003909DED020BF1
:104410008AE709DA9DED240B51EC190B53EC102BB4
:10442000FCF73EF81EE020E09DED240B7CE7864281
:104430001BDAB4F1804F0DD0A4F10050B0F1FF5061
:1044400013D1002D11DB9DED240B51EC100B01F06D
:10445000E4F907E09DED240B53EC102B51EC100B0D
:1044600000F0C2BC41EC100B5EE79DED240B51EC5B
:10447000100B00F0D3FEBAF1000FCDE90E0142D1CE
:104480009FED710B46B3A6F1E040B0F17F600CD018
:104490005E4538D1002D00DAA7B3022F0CBF0120F2
:1044A0004FF0FF30FCF76BF8DCE7002D01DD002C4E
:1044B0000DDA002D01DD002C1FDB002D16DA002C9B
:1044C00014DB012F08BF9FED620B3FF42DAFB0EE60
:1044D0004A0AF0EE6A0A27E7022F18BF002D0CD017
:1044E000012F0AD1002DFFF61FAF06E0002DB8BF47
:1044F000002C08DA012F3FF417AFB0EE480AF0EEB7
:10450000680A11E71BE0012000EBE57050EA0701A3
:1045100015D0791EB0EE498AF0EE698A084308BFCB
:104520009FED4D8B4E480025804570DD4D494E482E
:10453000884514DDB0420DDB002C19DB2FE0012093
:1045400000F09EFD16B0BDEC0E8B04B0BDE8F04D42
:1045500000F056BDB34502DC002C09DC1FE08642AA
:1045600002DA002C1BDA03E05E452BDD002C16DDA1
:10457000022000F085FD00F053FD8DED020B53ECA1
:104580001A2B51EC180BFBF719FFCDE90001039929
:10459000019861F31E0003909DED020BC4E602201A
:1045A00000F06EFD00F04CFD10EE901A18EE900A2F
:1045B0008DED020B8DED008B61F31E0003909DEDE0
:1045C000020BB1E69DED0E0B53EC192B51EC100BC9
:1045D000FBF7EEFE9FED260BCDE9080153EC102B07
:1045E0009DED080B51EC100BFBF7E8FE9FED221B35
:1045F00053EC112BFBF7DFFE9DED081B53EC112B49
:10460000FBF7DCFE9FED1E1B53EC112B3CE08CE016
:10461000FFFF1F00FFFF0F00000000000000F03F41
:104620000000F03F0000F07F0000404301FCFFFF6E
:10463000000000000000F07F00000000000000000B
:10464000A61500000000000000000000000000802F
:10465000000000000000F0FF000000000000F0BFBC
:104660000000E0410000F043FFFFEF3F00000000CA
:10467000000000000000D03F555555555555D53F19
:10468000000000000000E03FFBF795FE9DED080BE9
:1046900041EC1A0B53EC102B51EC100BFBF78EFE78
:1046A00053EC1A2BFBF78AFE41EC1A0B9FEDFE0B25
:1046B00053EC102B9DED080B51EC100BFBF77EFE1D
:1046C00041EC1B0B9FEDFA0B51EC1A0B53EC102B2A
:1046D000FBF774FE41EC1A0B9FEDF70B53EC102B1C
:1046E0009DED080B51EC100BFBF768FE53EC1A2BF9
:1046F000FBF75EFE41EC1A0B51EC1B0B53EC1A2B33
:10470000FBF7B5FD0690CDE906519DED060B53EC88
:104710001B2B51EC100BFBF74BFE53EC1A2BFBF74A
:104720004AFE41EC100B00F0A1B90020B6F5801F45
:104730000EDA9FEDE30B53EC102B9DED0E0B51ECBD
:10474000100BFBF73BFECDE90E016FF034000E4677
:1047500000EB2650A0F2FF37C6F31300DA4940F011
:104760007F6646F040568842D8BF002408DDD7490E
:104770008142C8BF012403DC0024A6F580167F1CFB
:10478000D348784400EBC4000F9690ED00CB9DED2C
:104790000E0B53EC1C2B51EC100BFBF709FE9DED9F
:1047A0000E0B41EC1B0B53EC1C2B51EC100BFBF7CD
:1047B0005EFD41EC100B51EC190B53EC102BFBF789
:1047C0006FFE41EC1D0B51EC1B0B53EC1D2BFBF74B
:1047D000F5FD41EC1A0BBF488DED10AB78441095F8
:1047E00090ED000B4FF0005040EA660000EB844073
:1047F0008DED080B00F5002009909DED080B53ECA2
:104800001C2B51EC100BFBF7D3FD9DED0E1B53EC55
:10481000112BFBF7D0FD41EC100B53EC102B9DED51
:10482000100B51EC100BFBF7C9FD9DED080B41EC93
:104830001C0B53EC102B9DED100B51EC100BFBF7E8
:10484000BDFD53EC1B2BFBF7B6FD53EC1C2BFBF70C
:10485000AFFD53EC1D2BFBF7B1FD41EC1C0B53ECF2
:104860001A2B51EC1A0BFBF7A9FD41EC1B0B9A48D4
:104870000621B0EE4B0AF0EE6B0A784400F01DFB07
:10488000B0EE401AF0EE601AB0EE41DAF0EE61DA06
:1048900053EC1B2B51EC1B0BFBF790FD53EC1D2B2A
:1048A000FBF78CFD9DED100B41EC1B0B53EC1A2B11
:1048B00051EC100BFBF7DBFC53EC1C2BFBF77EFDE4
:1048C00053EC1B2BFBF7D3FC9DED100B41EC1B0BAA
:1048D00053EC102B51EC100BFBF770FD41EC1D0B52
:1048E0009FED7FEB53EC1E2BFBF7C1FC53EC1B2B16
:1048F000FBF7BDFC0890CDE908519DED080B53EC8A
:104900001E2B51EC100BFBF753FD53EC1D2BFBF74B
:104910004FFD53EC1B2BFBF74EFD9DED080B41ECBF
:104920001D0B53EC102B9DED100B51EC100BFBF7F6
:1049300045FD41EC1B0B53EC1A2B51EC1D0BFBF707
:104940003DFD9DED080B41EC1A0B53EC102B51EC87
:104950001C0BFBF733FD53EC1A2BFBF788FC41ECE7
:104960001A0B51EC1B0B53EC1A2BFBF780FC0C9031
:10497000CDE90C519DED0C0B53EC1B2B51EC100BA6
:10498000FBF716FD53EC1A2BFBF715FD41EC1B0B47
:104990009FED550B53EC102B9DED0C0B51EC100BB8
:1049A000FBF70CFD41EC1A0B9FED510B51EC1B0B6F
:1049B00053EC102BFBF702FD41EC1B0B9FED4E0B54
:1049C00053EC102B9DED0C0B51EC100BFBF7F6FC90
:1049D00053EC1B2BFBF74BFC41EC100B4848784485
:1049E00000EBC40090ED001B51EC100B53EC112BAD
:1049F000FBF73DFC41EC1B0B3846FBF7C0FDCDE956
:104A0000080153EC1B2B51EC1A0BFBF730FC41EC6B
:104A1000100B3C48784400EBC40090ED00CB51EC07
:104A2000100B53EC1C2BFBF722FC9DED081B53ECE9
:104A3000112BFBF71CFC0690CDE906519DED080BF0
:104A400053EC102B9DED060B51EC100BFBF7B0FC5B
:104A500053EC1C2BFBF7ACFC53EC1A2BFBF7A8FC1C
:104A600053EC1B2BFBF7A7FC41EC100B9DED261B19
:104A700053EC102B8DED001B00959DED260B51EC9A
:104A8000100BFBF79BFC9DED000B41EC1A0B53EC5C
:104A9000102B9DED260B51EC100BFBF789FC9DEDC7
:104AA000061B53EC112B2FE0000000604715F73F69
:104AB000FE822B654715F73F44DF5DF80BAE543E91
:104AC00000000000000040438E9803007AB60B00FF
:104AD00022110000501100005A10000000000000D8
:104AE0000000000000000840000000E009C7EE3FA1
:104AF000FD033ADC09C7EE3FF5015B14E02F3EBE33
:104B0000E60E0000A00E0000FBF758FC53EC1A2B39
:104B1000FBF7ADFB9DED060B41EC1A0B53EC102B94
:104B20009DED000B51EC100BFBF748FCCDE90C019F
:104B30009DED0C0B51EC1A0B53EC102BFBF797FB74
:104B4000CDE902010C46AA498C422FDB611A0843C9
:104B500018D19DED0C0B53EC102B9DED020B51EC7D
:104B6000100BFBF725FC41EC1B0B9FEDA30B51EC4D
:104B70001A0B53EC102BFBF77AFB53EC1B2BFBF7B8
:104B8000B9FE2DD2022000F07BFA00F049FA10EEB7
:104B9000901A18EE900A8DED020B8DED008B61F3EB
:104BA0001E0003909DED020BFFF7BEBB944A24F05C
:104BB0000041914214D39349214408437FF4EFAC60
:104BC0009DED0C0B53EC102B9DED020B51EC100BDB
:104BD000FBF7EEFB53EC1A2BFBF78CFE7FF6DFACFA
:104BE00024F000408849894A002601EB2051824286
:104BF0002BDA481C4FF4801121FA00F02044844A3B
:104C0000C0F30A517A44A1F2FF3192ED000B814AC0
:104C10008DED080BCA4020EA0202C0F3130040F4F5
:104C20008010C1F1140120FA01F60992002CB8BFDE
:104C300076429DED080B53EC102B9DED0C0B51ECC7
:104C4000100BFBF7B5FBCDE90C019DED0C0B51EC06
:104C50001A0B53EC102BFBF70AFB9FED6F0B089020
:104C6000CDE9085153EC102B9DED080B51EC100BC6
:104C7000FBF7A4FB41EC1B0B9FED690B53EC102BD6
:104C80009DED080B51EC100BFBF798FB9DED0C0B09
:104C900041EC1C0B53EC102B9DED080B51EC100B51
:104CA000FBF786FB53EC1A2BFBF785FB9FED5E1B96
:104CB00053EC112BFBF782FB53EC1C2BFBF7D7FAC1
:104CC00041EC1A0B51EC1B0B53EC1A2BFBF7CFFAF0
:104CD000CDE902019DED020B53EC1B2B51EC100BA7
:104CE000FBF766FB53EC1A2BFBF765FB9DED020B04
:104CF00041EC1A0B53EC102B51EC100BFBF75EFB45
:104D0000CDE908014A489DED080B0521784400F0E3
:104D1000D4F89DED081B51EC100B53EC112BFBF755
:104D20004DFB9DED021B53EC112BFBF744FBCDE932
:104D300006019DED020B53EC1A2B51EC100BFBF707
:104D40003DFB53EC1A2BFBF792FA9FED3B0B41EC2A
:104D50001A0B53EC102B9DED060B51EC100BFBF7CF
:104D600027FB9DED060B41EC1B0B53EC102B9DED2F
:104D7000020B51EC100BFBF721FB53EC1B2BFBF749
:104D80008FFB53EC1A2BFBF713FB9DED021B53EC2F
:104D9000112BFBF70DFB53EC192BFBF70CFBCDE9AB
:104DA000020101EB065001150029C8BF039015DC74
:104DB0009DED020B324651EC100BFBF732FDFFF775
:104DC000EDF9042808BF00F03BF932469DED020BD7
:104DD00051EC100BFBF725FDCDE902019DED020B17
:104DE00051EC180B53EC102BFBF7E8FAFFF73ABB2A
:104DF0000000904000000000FE822B654715973CA4
:104E000000CC904000346F3F01FCFFFF0000E03F0A
:104E1000280D0000FFFF0F0000000000432EE63FBA
:104E2000396CA80C615C20BEEF39FAFE422EE63FD9
:104E3000F80B00000000000000000000000000402F
:104E400000B52DED048BB0EE409AF0EE609A83B081
:104E500051EC190BFBF7FCFC41EC180B18EE100A97
:104E600018EE901A8DED008B002818BF0120084322
:104E700020F00040C0F17F6000F1E040C00F14D08E
:104E800019EE101A19EE900A8DED009B002918BF3B
:104E90000121084320F00040C0F17F6000F1E040B4
:104EA000C00F04BF012000F0EBF8B0EE480A03B0D9
:104EB000F0EE680ABDEC048B00BD70B504462DED24
:104EC000028B4D1E00EBC500B0EE408AF0EE608A0A
:104ED00090ED000B35F0060017D053EC182B51EC79
:104EE000100BFBF76BFA41EC100B6D1E04EBC500C9
:104EF00090ED001B51EC100B53EC112BFBF7B7F9A5
:104F000041EC100B35F00600E7D1022D36D0042D10
:104F10001CD0062D1CBFBDEC028B70BD53EC182BB2
:104F200051EC100BFBF74AFA94ED0A1B53EC112BD2
:104F3000FBF79DF953EC182BFBF740FA94ED081B97
:104F400053EC112BFBF793F941EC100B53EC182B9E
:104F500051EC100BFBF732FA94ED061B53EC112BBE
:104F6000FBF785F953EC182BFBF728FA94ED040BAB
:104F700053EC102BFBF77BF941EC100B53EC182B87
:104F800051EC100BFBF71AFA94ED021B53EC112BAA
:104F9000FBF76DF953EC182BFBF710FA94ED001B9F
:104FA00053EC112BFBF763F9BDEC028B41EC100BBA
:104FB00070BD0000000000009FED070B10B553EC22
:104FC000102B9FED070B51EC100BFBF769FA41EC2E
:104FD000100B10BD000000000000000000000000E9
:104FE000000000000000F03F10B553EC112B51EC15
:104FF000100BFBF73CF941EC100B10BD000000005A
:105000009FED050B10B553EC102B51EC100BFBF77B
:1050100047FA41EC100B10BD00000000000000003A
:105020009FED050B10B553EC102B51EC100BFBF75B
:10503000C5F941EC100B10BD00000000000000702D
:105040009FED050B10B553EC102B51EC100BFBF73B
:10505000B5F941EC100B10BD00000000000000107D
:1050600002E008C8121F08C1002AFAD17047704731
:10507000002001E001C1121F002AFBD1704700008F
:105080000149086070470000A40000202DE9FF4F8F
:1050900089B09B460446002506E025280BD05A46D9
:1050A0000B999047641C6D1C20780028F5D10DB039
:1050B0002846BDE8F08F0027B8460122474900E0A6
:1050C000074314F8013F203B02FA03F00842F7D1EE
:1050D00020782E2819D114F8010F47F004072A2848
:1050E0000ED06FF02F022078A0F1300109290CD8E2
:1050F00008EB880102EB410100EB0108641CF2E7B8
:105100000A98641C50F8048B0A9020780028CED0AE
:10511000642808D0692806D075281ED05A460B99F5
:1051200090476D1C58E00A994FF00A0901C90A918D
:10513000002802DA40422D2102E0390504D52B2156
:105140008DF82010012103E0F90704D02021F7E7B2
:105150008A4608AE0DE00021FAE70A994FF00A09E5
:1051600001C90A91F7E74946FBF780FA303106F8A2
:10517000011D0028F7D1ADEB060000F120097807EA
:1051800001D44FF00108C84502DDA8EB090000E09A
:1051900000208046002706E008A85A46C05D0B990B
:1051A00090476D1C7F1C5745F6DB04E030205A46C3
:1051B0000B9990476D1CB8F10001A8F10108F5DCCE
:1051C00005E016F8010B5A460B9990476D1CB9F192
:1051D0000001A9F10109F4DC641C65E7092801005C
:1051E00030B54FF0E02185B08A6901924A694FF4E9
:1051F0007A73521C5043B0FBF3F3019C00200094DF
:105200008C690194DDE90045AC4200D21444641B72
:10521000204400958342F3D805B030BD82B0CDE97B
:10522000000121F0004001909DED000B02B051EC17
:10523000100B704713B54FF6FF74234601226946E1
:105240000348FDF76FFF0228F7D000981CBD00004F
:10525000400200200988DFED0B0A49BA00EE101A5F
:1052600090ED0D1AB8EE400A60EE200A80EE810A39
:1052700080ED020A80ED060A80ED070A80ED080A3B
:10528000704700000000B4432DED028B82B0FCF7A4
:105290004BFCFEF751FCFEF729FAFEF701FAFEF788
:1052A0009BFAFEF75DFBFEF7DBF9FEF7B9FAFEF7B6
:1052B0001FFBFEF7E9FAFEF737FB7E4C0122D10314
:1052C0002046FCF71EFC00224FF400512046FCF75C
:1052D00018FC7948FBF7FCFBDFF8E081002588F833
:1052E000005088F8905088F8205188F8B051FBF7AA
:1052F0006DFC9FED738AB0EE481AF0EE411A9FEDF7
:10530000710AF0EE400AFDF769FF6F4C6560FBF72C
:105310001BFB6E48FDF77CF96D48FDF779F900F04D
:105320000FFA00F05DFA00F001FA6A4EDFED6A8ACA
:10533000DFF8A8916A4F60680028FCD0FBF77EFB7D
:10534000606900287DD0606A052807D000EB400026
:1053500000EE100AB8EEC00A84ED080A04F1180045
:1053600090EC030AFDF7ACFF5E4D544895ED020A40
:1053700000F04AFA514895ED050A903000F044FAE1
:1053800095ED080A584800F03FFA574895ED0B0A8A
:10539000903000F039FA98ED820ABDEEC00A10EEA6
:1053A000101A09B2009198ED5E0ABDEEC00A10EE27
:1053B000101A98ED3A0A0BB2BDEEC00A10EE101AA0
:1053C00098ED160A0AB2BDEEC00A10EE100A01B23C
:1053D0003948FBF7ADFB4548316841603968C16029
:1053E000D9F8001081604249096801614149097892
:1053F00001754149097841754049097881754049ED
:105400000978C1753F49097801763F4909784176A5
:105410003E49097881763E490978C176217801773D
:1054200061784177A178817700F0E4F93948616AC1
:10543000B0F90A000844606294ED070A20EE280AD9
:1054400000E012E0BDEEC00A33A010EE101AFEF725
:1054500095FE0120FCF746FA85ED0B8A85ED088A5A
:1054600085ED058A85ED028A65E73068C0F5006044
:1054700000EE100AB8EEC00AC0EE280AC4ED060A13
:10548000D9F80000C0F5006000EE100AB8EEC00ABE
:10549000C0EE280AC4ED070A3868DFED210AA0F53E
:1054A000006000EE100AB8EEC00A80EE201A84ED0B
:1054B000081A53E7000C0240A80000200C0400204A
:1054C00000000000CDCC0C3F00000020280100208F
:1054D000700100203400002000007A4438000020D1
:1054E0003C000020440300202C050020B4030020D1
:1054F000400000202C0000202D0000202E00002065
:105500002F00002030000020310000203200002059
:1055100033000020DE0800207067793A25640A0015
:1055200000007AC42DE9F041784E07462DED048B3A
:105530000024305D55287DD1351968785128FAD17D
:10554000E87A5528F7D1287B5228F4D1A87D552830
:10555000F1D1E87D5328EED1E878A978000200B2B5
:10556000084300EE100AB8EEC00A9FED698AF3EE18
:10557000008A20EE080A20EE280A10EE100AFBF737
:105580002EF89FED649B53EC192BFAF717FFFBF7EE
:1055900007F8388068792979000200B2084300EEE4
:1055A000100AB8EEC00A20EE080A20EE280A10EE13
:1055B000100AFBF714F853EC192BFAF7FFFEFAF771
:1055C000EFFF7880E879A979000200B2084300EE85
:1055D000100AB8EEC00A20EE080A20EE280A10EEE3
:1055E000100AFAF7FCFF53EC192BFAF7E7FEFAF76B
:1055F000D7FFB880A87B697B000200B2084300EEA9
:10560000100AB8EEC00A60EE080A9FED440A60EE88
:10561000800AFDEEE00A10EE900AF880287CE97B13
:10562000000200B2084300EE900AF8EEE00A60EED5
:10563000880A00E062E060EE800A9FED3A1AFDEE13
:10564000E00A10EE900A3881A87C697C000200B262
:10565000084300EE900AF8EEE00A60EE880A20EEB9
:10566000800ABDEEC00A10EE100A7881687E297E9D
:10567000000200B2084300EE100AB8EEC00A60EE65
:10568000080A9FED270A60EE800AFDEEE00A10EEA0
:10569000900AB881E87EA97E000200B2084300EEBD
:1056A000900AF8EEE00A60EE880A60EE800AFDEEED
:1056B000E00A10EE900AF881687F297F000200B2AC
:1056C000084300EE900AF8EEE00A60EE880A20EE49
:1056D000800ABDEEC00A10EE100A3882E88B00EE98
:1056E000100AF8EE400A80EE810ADFED0F0A30EE74
:1056F000200ABDEEC00A10EE100A7882641C422C0B
:10570000FFF617AFBDEC048BBDE8F0819C080020CC
:10571000000000389A999999999923400000FA4419
:10572000000034430000AA43000014424222024910
:105730000248FDF7BFBC00009C080020FC010020CF
:105740000448FF210170AA214170552181709921DF
:10575000C1707047B403002030B51F4D87B00024DE
:1057600029191C226846FAF75EFD9DF80000FF2803
:105770000BD19DF80100AA2807D19DF802005528F9
:1057800003D19DF80300992804D0641C382CE7DB72
:1057900007B030BD1148019981600299C160039939
:1057A0000161049941619DF8141001709DF8151074
:1057B00041709DF8161081709DF81710C1709DF80A
:1057C000181001719DF8191041719DF81A1081711E
:1057D0009DF81B10C171DBE7D30300202C000020D3
:1057E000382202490248FDF765BC0000D3030020BF
:1057F0004002002032231F2201490248FDF792BCDB
:10580000B4030020FC01002080ED120A90ED030A91
:1058100080ED110A3830FEF7C1B800B52DED048BCC
:1058200083B041EC190BFBF713F841EC180B18EEA1
:10583000100A18EE901A8DED008B002818BF012079
:10584000084320F00040C0F17F6000F1E040C00F4D
:1058500014D019EE101A19EE900A8DED009B002954
:1058600018BF0121084320F00040C0F17F6000F123
:10587000E040C00F04BF0120FFF702FC51EC180B01
:1058800003B0BDEC048B00BD000610160006101618
:1058900000000000000000000102030406070809E0
:1058A0000000000001020304000000000000F03FBF
:1058B000000000000000F83F0000000000000000B1
:1058C0000000004003B8E23F0000000000000000BC
:1058D00006D0CF43EBFD4C3E033333333333E33F4A
:1058E000FFAB6FDBB66DDB3F4D268F515555D53F76
:1058F00001411DA96074D13F65DBC9934A86CD3F44
:10590000EF4E454A287ECA3F3E5555555555C53F31
:1059100093BDBE166CC166BF2CDE25AF6A56113F23
:10592000F16BD2C541BDBBBED0A4BE726937663E25
:10593000000000000000000058590008000000208E
:10594000A800000060500008005A0008A8000020CD
:10595000500C000070500008000000000000000023
:105960000000000000000000000000000000000037
:105970000000000000000000000000000000000027
:1059800074D0184500000000000000000000000076
:105990000000000000000000000000000000000007
:1059A000000000000000000000004841CDCC4C3E4B
:1059B0000000803FCDCCCC3D000000000000000086
:1059C00000000000000000000000000000000000D7
:1059D00000000000000000000000000000000000C7
:1059E00000000000000000000100000010000000A6
:1059F000000000000024F40000000000000000008F
:040000050800018965
:00000001FF
