:020000040800F2
:10000000100D0020A101000881450008AD2F000857
:100010006D3700085D0A0008614D0008000000000F
:100020000000000000000000000000001947000868
:10003000110E000800000000054600081B470008DC
:10004000BB010008BB010008BB010008BB010008A0
:10005000BB010008BB010008BB010008BB01000890
:10006000BB010008BB010008BB010008BB01000880
:10007000550D0008BB010008BB010008BB010008CA
:10008000BB010008BB010008BB010008BB01000860
:10009000610A0008BB010008BB010008BB010008A1
:1000A000BB010008BB010008BB010008BB01000840
:1000B000BB010008BB010008D1470008BB010008D4
:1000C000BB010008BB010008BB010008BB01000820
:1000D000BB010008BB010008BB010008BB01000810
:1000E000BB010008BB010008BB010008BB01000800
:1000F000BB010008BB010008BB010008BB010008F0
:10010000BB010008BB010008DD470008BB01000877
:10011000BB010008BB010008BB010008BB010008CF
:10012000BB010008610D0008BB010008BB0100080D
:10013000BB010008BB010008BB010008BB010008AF
:10014000BB010008BB010008BB010008BB0100089F
:10015000BB010008BB010008BB010008554D0008A9
:10016000BB010008BB010008BB010008BB0100087F
:10017000BB010008BB010008BB0100080000000033
:10018000BB010008BB010008DFF810D000F098FBAD
:100190000048004701600008AFF30080100D002008
:1001A0000648804706480047FEE7FEE7FEE7FEE711
:1001B000FEE7FEE7FEE7FEE7FEE7FEE7B5470008DD
:1001C000890100082DE9F05F0546002092469B4614
:1001D00088460646814640241BE02846414647465D
:1001E000224600F04EFA53465A46C01A914110D3A7
:1001F00011461846224600F035FA2D1A67EB010821
:100200004F4622460120002100F02CFA17EB00098E
:100210004E41201EA4F10104DFDC484631462A4647
:100220004346BDE8F09F002800DA4042704740EAAC
:1002300001039B0703D009E008C9121F08C0042A64
:10024000FAD203E011F8013B00F8013B521EF9D24B
:100250007047D2B201E000F8012B491EFBD2704773
:100260000022F6E710B513460A4604461946FFF782
:10027000F0FF204610BD2DE9FE4F804681EA0300C5
:10028000C00F0C46009021F0004123F00045B8EB70
:100290000200A94105D24046214690461C460B4625
:1002A000024623F00040104347D0270DC7F30A0051
:1002B000C3F30A510290401A019040286BDAC3F34D
:1002C000130040F4801B0098924620B10023D2EB2B
:1002D000030A63EB0B0B01985946C0F140025046EC
:1002E00000F0C0F906460D4650465946019A00F006
:1002F000D8F910EB08006141002487EA115284EA22
:10030000E7731A4340D0009A62B3019A012A4FEA78
:10031000075215DC001B61EB02014FF0004202EABC
:100320000752CDE90042001C41F5801132462B46B0
:1003300000F00FFA03B0BDE8F08F40462146F9E720
:10034000001B61EB0201001C41F5801300185B41AA
:100350002018A2F5001747EB030140EAD570B61943
:100360006D4111E06D084FEA360645EAC0754FEA67
:100370000752001B61EB0201001C41F58011490886
:100380004FEA30000019514132462B4603B0BDE818
:10039000F04F00F0CFB90098012240000023D0EBCD
:1003A000020263EBE073009821464FEAE074B8EB79
:1003B000000061EB0401E9E783F000435BE781F0B3
:1003C000004158E72DE9FE4F81EA030404F00044A0
:1003D00021F0004100944FF0000B23F0004350EA5D
:1003E00001045ED052EA03045BD0C3F30A54C1F3A4
:1003F0000A552C44A4F2F3340194A0FB0254C1F337
:10040000130141F48011C3F3130343F4801301FB80
:10041000024400FB034E840A970A44EA815447EAE7
:100420008357A4FB076802958D0A05FB07854FEAF1
:10043000932C04FB0C542705029D4FEA065847EA0B
:100440001637B5EB08056EEB070C870E920E47EAE0
:10045000811742EA8312A7FB0201B6EB0B0164EBA2
:1004600000042B0D43EA0C335E1844EB1C50DA46B3
:100470005146E7FB0201C5F313044FEA0B3343EA8D
:1004800014534FEA0432019C43EA0603A4F10C041E
:100490000294009CCDE900B400F05BF903B0BDE824
:1004A000F08F00200146F9E72DE9F04D81EA0304C1
:1004B00004F0004B21F0004514464FF0000A23F0F1
:1004C000004150EA050220D054EA01021DD0C5F3D4
:1004D0000A570246C5F31303C1F31300C1F30A56CA
:1004E00040F4801543F48013A7EB0608101BD64692
:1004F00008F2FD3873EB050002D308F1010801E0B2
:1005000092185B41B8F1000F03DA00200146BDE804
:10051000F08D00204FF48011064684460EE0171B34
:1005200073EB050705D3121B63EB050306434CEA87
:10053000010C49084FEA300092185B4150EA01076C
:10054000EDD152EA030012D082EA040083EA0501E9
:10055000084305D0101BAB4106D20122002306E060
:1005600000224FF0004302E06FF0010253101AEB3B
:1005700006004CEB085110EB0A0041EB0B01BDE803
:10058000F04D00F0D7B80EB5C10F80EAE070084416
:10059000CA07002140F233438DE80E000A460B469D
:1005A00000F0D7F803B000BD00F0004230F000408A
:1005B0000AD0C10D01F56071C0F3160042EA015185
:1005C000C2084007114370470020014670470000F1
:1005D00030B5041E71F1000404DB4FF000444042CA
:1005E00064EB0101141E73F1000405DB1C464FF09F
:1005F0000043524263EB0403994208BF904230BD6E
:1006000001F0004330B421F0004150EA010206D06D
:100610000A0DA2F56072C1F31301002A02DC30BC9E
:1006200000207047440F44EAC104C100E01830BC08
:1006300000EBC25000F047B830B50B460146002031
:100640002022012409E021FA02F59D4205D303FA94
:1006500002F5491B04FA02F52844151EA2F1010215
:10066000F1DC30BD202A04DB203A00FA02F1002040
:1006700070479140C2F1200320FA03F319439040E0
:100680007047202A04DB203A21FA02F0002170474B
:1006900021FA02F3D040C2F12002914008431946EA
:1006A0007047202A06DBCB17203A41FA02F043EAD2
:1006B000E07306E041FA02F3D040C2F1200291401B
:1006C0000843194670470029A8BF7047401C4900DD
:1006D00008BF20F00100704710B4B0FA80FC00FAA7
:1006E0000CF050EA010404BF10BC704749B1CCF1D2
:1006F000200421FA04F411FA0CF118BF012121435E
:100700000843A3EB0C01CB1D4FEA00614FEA102018
:1007100042BF002010BC704700EBC35010440029BA
:10072000A4BF10BC7047401C490008BF20F0010066
:1007300010BC704710B5141E73F1000408DA401C99
:1007400041F1000192185B411A4301D120F00100F0
:1007500010BD2DE9F04D92469B4611B1B1FA81F2E0
:1007600002E0B0FA80F220329046FFF77BFF0446A9
:100770000F4640EA0A0041EA0B0153465A46084335
:1007800013D0114653EA010019D0C8F14002504677
:10079000FFF777FF05460E46504659464246FFF79B
:1007A00061FF084305D0012004E020463946BDE83A
:1007B000F08D0020054346EAE0762C4337430A9843
:1007C0006305E40AA0EB08000022FD0A44EA47544E
:1007D0000A3002D500200146E9E7010510196941F8
:1007E000DDE9084500196941BDE8F04DA2E770B5A3
:1007F00021F0004303430CD0C1F30A550024D5EB8C
:10080000040564EB0403D617AD1AB34102DB0020E4
:10081000014670BD201841EB025170BD2DE9F04D2D
:1008200000231A461B1A8A4103DB00200146BDE85B
:10083000F08DC1F30A52C1F3130141F480154FF05A
:10084000000BD10702D100186D41521E002704464B
:1008500040F2FF11384601EB620A3E4680460246EE
:1008600000204FF48011FFF70CFFC2197141BB1833
:1008700046EB0100B4EB030C75EB000C04D3E41A57
:1008800065EB000517460E46241908F101006D417D
:1008900080463428E3DDF91946EB0600091BA84120
:1008A00003D24FF0FF32134601E0002213461BEB48
:1008B000070046EB0A51BDE8F04DFFF73BBF0000D3
:1008C000064C074D06E0E06840F0010394E807009D
:1008D00098471034AC42F6D3FFF75AFCA0650008E5
:1008E000C065000810B500F04DF8642001F014F860
:1008F0000621002000F09CF80821012000F098F863
:100900000021022000F094F8A121032000F090F8CB
:100910000021BDE81040042000F08AB810B5102175
:10092000034801F003F908B1002010BD012010BDFB
:10093000000002403EB5012000F03AF80024019486
:100940000520029405F008FB601E0090032301AA15
:1009500002A90B4801F0C6FC9DF804009DF80510A3
:1009600044EA004040EA01219DF8060008430102E4
:1009700004D5C043C0F31600401C40423EBD0000F9
:10098000E800002010B5094C00220421204601F0A7
:10099000D2F80A2000F0C0FF01220421204601F015
:1009A000CAF8BDE810400A2000F0B6BF00040240BB
:1009B00001B582B04FF0FF300090012301AA02A9D7
:1009C000044801F08FFC052005F0C6FA9DF80400EC
:1009D0000EBD0000E800002070B500245FF00105A6
:1009E00005EB440141EA44104FFA80F6FFF796FF09
:1009F0000028FBD0F1B2012000F01AF8FC20FFF72C
:100A0000D7FFFF20FFF7D4FFFFF794FFE11CCA17C1
:100A100001EB927222F00302891A044A641C64B248
:100A200042F82100042CDBDB70BD0000A40800208C
:100A300070B50D464FEA0004FFF770FF0028FBD0A9
:100A400004F00F0040F05000FFF7B2FF0020FFF766
:100A5000AFFF2846BDE87040FFF7AABFFEE70000E1
:100A6000014800F06ABB0000C000002010B58AB049
:100A7000002101220446CDE90612039104910E20C3
:100A8000CDE9082005910091019102916946204627
:100A900000F042FA08B100F0BCF9204600F03CFD3D
:100AA00008B100F0B6F90221204600F0B4F908B10F
:100AB00000F0AFF90AB0002010BD000010B51348D7
:100AC0002DED048BB0EE408A0068FFF76DFD41EC20
:100AD000190B18EE100AFFF767FD9FED0D1B53EC85
:100AE000112BFFF76FFC53EC192BFFF7DDFC41ECEA
:100AF000100B9FED091B04F037FA51EC100BFFF7B8
:100B00007FFDBDEC048B00EE100A10BD68000020D4
:100B1000000000000000E03F555555555555D53FA4
:100B20000B48F0EE000A90ED001A61EE201AD0EDAD
:100B3000010A61EEA01A21EEA02AF0EE401A21EE81
:100B4000200A42EE601A60EE200A81EEA00A704789
:100B500068000020002A02D1014900F035B8704732
:100B60005C00002030B589B00825044606950C9835
:100B7000AD0102950025049505950D0A8DF80050EC
:100B80008DF80110110A8DF80210190A8DF8041061
:100B90008DF80530010A8DF806108DF803208DF8C8
:100BA0000700204600F0B3FA0028FAD0054B6A4649
:100BB00002A9204600F041F9002801D000F029F9EF
:100BC00009B030BD5800002000B5A0F2012008286F
:100BD00012D200EBC002094800EB02125068322822
:100BE000104605DA05F0F2F95068401C506001E04B
:100BF00000F04CF8002000BD012000BD24040020BE
:100C00009FED1A1ADFED1A1A9FED1A2ADFED1A2A44
:100C10001A4A9FED1B3A0021F2EE0E0AB7EE000AC7
:100C200001EBC10002EB0010C0ED0E0A80ED0F0ACF
:100C300080ED100A80ED171AC0ED191A80ED1A0A1E
:100C400080ED1B2AC0ED222A037813B1012B03D0BB
:100C500006E0DFED0C3A01E0DFED0B3AC0ED0C3AB7
:100C6000491C80ED0D3A0829DADB70470000FA458F
:100C70000000A0420000000000409C452404002029
:100C8000000000462CA09941000010420A88DFEDC8
:100C90002E1A52BA00EE102A90ED0D1A2B4BB8EE18
:100CA000400A60EE210A80EE810A80ED020A4A883D
:100CB00052BA12B200EE902AB8EEE01A80ED031A92
:100CC000898849BA09B200EE901AF8EEE00AC0ED40
:100CD000040AD0ED070AC0ED060A70EE600A80ED46
:100CE000070A416A10EE902A9A4201DD491E05E08A
:100CF00010EE902A164B9A4201D9491C416200EE2F
:100D0000901A4FF4B4725143F8EEE00A60EEA11A63
:100D1000D0ED080A30EE602A72EE211A90ED0C2A0E
:100D2000C1EE822AC1EE021A01EE101AC0ED0A2AA3
:100D3000B8EEC11A31EE000A30EE600AC0ED0B1AAF
:100D400080ED050A704700000000B4430000344302
:100D5000000034C3014800F06DBC00009C0200207C
:100D6000014800F067BC0000FC0200200168182365
:100D7000CAB2103AB2FBF3F2054B6FF30901032A32
:100D80009B5CC36500D9091D81650846704700005A
:100D9000EC64000810B5014600208B698A6A4FF0A8
:100DA000C07453B1B3F5005F15D072B1012A0CD0F5
:100DB000022A0AD0032A09D104E01AB1012A06D076
:100DC000022A03D1C96AC90100D5012010BDC96A30
:100DD000A142FAD010BD002AF7D0012AF2D0022A8F
:100DE000F3D0032AF3D010BD30B50468256825F48C
:100DF00080252560046863608368402B036803D006
:100E000099600068C26030BD9A600068C16030BD02
:100E1000704772B6FEE790F82020012A07D0022A18
:100E200005D0416A41F48021416201207047006889
:100E300042690A43426100207047F0B590F82050A3
:100E40000468A468012D05D0022D03D0416A41F445
:100E500080215DE014F0406F01D1E50055D5C4F369
:100E60000164022C03D9416A41F4000150E00125DC
:100E7000A5401D608D684FF4C0739DB1CE683543A9
:100E80004E6845EAC605066803EB0417F5514FF4B2
:100E9000C275076805EB04150E697E51097D0129AD
:100EA00005D009E00E88CD6845EA4655EBE70168B4
:100EB0004E5946F480764E511179D579567941EAEA
:100EC000056195792D0445EA062529434FF4C67638
:100ED000056806EB0416A9511178D57841EA056139
:100EE000957852782D0445EA022211434FF4C475D7
:100EF000026805EB04155151006803EB04114258D8
:100F000042F0010242500020F0BD416A41F400115C
:100F100041620120F0BD000010B590F82020012AA8
:100F200007D0022A05D0416A41F4802141620120A4
:100F300010BD3B48D0F8002242F00102C0F8002268
:100F4000D0F8002222F47C52C0F80022D0F800220F
:100F50004B6A42EA0322C0F800220A7D02F01F0316
:100F600001229A40D0F81C329343C0F81C32CB695E
:100F7000B3B9D0F80C329343C0F80C328C894B686B
:100F800064F31F434C6900EBC404C4F840320C897D
:100F90000B6864F31F434C6900EBC404C4F844328B
:100FA000CB69012B16D1D0F80C321343C0F80C32A8
:100FB0000C884B6864F31F434C6900EBC404C4F80D
:100FC00040320C89CB6864F31F434C6900EBC404C6
:100FD000C4F844328B69002BD0F804320ED013438E
:100FE000C0F804320B69002BD0F8143208D0134338
:100FF000C0F81432096A012904D008E09343EFE7EE
:101000009343F5E7D0F81C121143C0F81C12D0F836
:10101000001221F00101C0F80012002010BD0000F4
:1010200000640040704730B590F82040012C05D096
:10103000022C03D0416A41F480215DE0046800295C
:1010400055D02469A40754D04FF4D874056804EB34
:1010500001142D5915F00405956005682D594ED0E1
:10106000ED08556005682C5904F00204D4604FF473
:10107000DA74056804EB01142D5905F00F051561AC
:1010800005682D59C5F30725956105682C59240C71
:1010900054614FF4DC72046802EB0112A4581C7016
:1010A0000468A458240A5C700468A458240C9C703A
:1010B0000468A258120EDA704FF4DE72046802EB74
:1010C0000112A4581C710468A458240A5C710468B5
:1010D000A458240C9C710468A258120EDA7100689E
:1010E00081B1016941F020010161002030BDE46857
:1010F000A8E7416A41F400114162012030BD6D0D45
:101100001560AFE7C16841F02001C160EDE702461C
:10111000002092F82010012901D002290CD1116879
:101120008A68520100D501208A68120100D5401C4E
:101130008968C90000D5401C70472DE9F05F05465D
:10114000006800244669D0F804908768D0F80CB095
:10115000D0F810A0D0F81880F10748D0F90714D0C3
:1011600001218160B80703D5284600F002FA0CE09F
:10117000780702D54FF4006407E0380702D54FF432
:10118000805402E0284600F0F3F9F80516D52968E6
:101190004FF480708860B80503D5284600F0EBF95D
:1011A0000CE0780502D544F4005407E0380502D578
:1011B00044F4804402E0284600F0DCF9F80316D538
:1011C00029684FF480308860B80303D5284600F0C2
:1011D000D4F90CE0780302D544F4004407E0380366
:1011E00002D544F4803402E0284600F0C5F9300707
:1011F00007D55FEACB6004D52968102044F4007459
:10120000C86070074FF0080707D55FEA0B7004D578
:101210002868C760284600F059F9B00706D5286845
:10122000C068800702D0284600F052F9700607D542
:101230005FEACA6004D52968102044F4806408611C
:10124000B00607D55FEA0A7004D52868076128460A
:1012500000F05EF9F00606D528680069800702D024
:10126000284600F056F9B00308D55FEAC96005D5F5
:10127000296810204860284600F04CF9F00307D593
:101280005FEA097004D528684760284600F076F9BF
:10129000300446D55FEA497040D5F00504D55FEAD1
:1012A000C87001D044F00104B00504D55FEA88702D
:1012B00001D544F00204700504D55FEA487001D5F9
:1012C00044F00404300529D518F0700F26D008F03A
:1012D0007000402815D006DC102809D020280AD03C
:1012E000302816D10AE050280ED0602811D10EE027
:1012F00044F008040DE044F010040AE044F0200437
:1013000007E044F0400404E044F0800401E044F4C9
:1013100080742868816921F0700181612968042046
:101320004860002C05D0686A204368622846FFF7B1
:1013300079FEBDE8F09F70B5040003D094F820005A
:1013400010B104E0012070BD204600F081F8206853
:10135000016841F00101016000F0F2FB054605263D
:1013600004E000F0EDFB401B0A2811D8206840681B
:10137000C007F6D02068016821F00201016000F08A
:10138000DFFB05460BE000F0DBFB401B0A2806D91B
:10139000606A40F40030606284F82060D2E7206820
:1013A00040688007EFD4207E0128206801683DD086
:1013B00021F080010160607E01282068016838D03A
:1013C00021F040010160A07E01282068016833D02F
:1013D00021F020010160E07E0128206801682ED004
:1013E00041F010010160207F01282068016829D0A8
:1013F00021F008010160607F01282068016824D085
:1014000021F004010160D4E902010843D4E9041287
:10141000114308436168491E08432168C8610020E0
:101420006062012084F82000002070BD41F080013E
:10143000C0E741F04001C5E741F02001CAE721F0D3
:101440001001CFE741F00801D4E741F00401D9E7EA
:1014500010B586B0044614216846FEF701FF18490E
:101460002068884229D117480021026842F00072A2
:101470000260006800F000700590124810380268A1
:1014800042F001020260006800F0010005904FF494
:10149000C05000900220CDE90101032003900920F3
:1014A00004906946084800F049FA002211461420C9
:1014B00000F0B4FB142000F0A3FB06B010BD000048
:1014C00000640040403802400000024070470000C5
:1014D00000B50D4A01688BB01268914212D10B4BD6
:1014E00003AA0021FFF79FFD08B1FFF792FC07ABAD
:1014F0000DF10C0C93E807008DE807009CE80F0045
:10150000FFF728FB0BB000BDC00000205C000020EE
:10151000704770477047000070B5044690F820008F
:10152000012804D0606A40F40020606218E00220C4
:1015300084F820002068016821F00101016000F0BA
:10154000FFFA05460EE000BF00F0FAFA401B0A2839
:1015500008D9606A40F400306062052084F82000F9
:10156000012070BD20684068C007EDD1606270BD89
:1015700070477047704770477047704770472DE954
:10158000F0410446876D00F0DBFA064694F835001A
:101590000025022806D08020606584F834500120A0
:1015A000BDE8F0812068016821F016010160206823
:1015B000416921F080014161206C08B9A06C20B123
:1015C0002068016821F0080101602068016821F0AD
:1015D000010101600CE000F0B3FA801B052807D977
:1015E00020206065032084F8350084F83450D7E764
:1015F00020680068C007EED194F85C103F20884056
:10160000B860012084F8350084F834500020C7E722
:1016100090F83510022903D08021416501207047E0
:10162000052180F835100068016821F00101016092
:10163000002070472DE9F84304464FF00009CDF82B
:10164000009063484FF41651A56D0068B0FBF1F7A8
:101650002E6894F85C10082000FA01F131420FD096
:1016600021680A6852070BD50A6822F004020A6052
:1016700094F85C108840A860606D40F001006065DF
:1016800094F85C104FF0010808FA01F0304208D0DD
:1016900021684969090604D5A860606D40F0020020
:1016A000606594F85C1004208840304208D02168BE
:1016B0000968890704D5A860606D40F00400606582
:1016C00094F85C1010208840304218D021680968D6
:1016D000090714D5A86020680168490304D500688B
:1016E000000308D5A16C07E00168C90503D40168AF
:1016F00021F008010160216C09B12046884794F867
:101700005C1020208840304231D021680968C90629
:101710002DD5A86094F8350005282068016806D00A
:10172000490347D5006800031DD4616C1CE021F01B
:10173000160101602068416921F080014161206C3F
:1017400008B9A06C20B12068016821F0080101608F
:1017500094F85C103F208840A86084F8358084F8B5
:101760003490216D1FE0E16B09B120468847606D20
:1017700000282BD0606DC00714D0052084F83500F8
:101780002068016821F0010101600098401C009070
:10179000B84203D820680068C007F6D184F83580C5
:1017A00084F83490E16C002910D001B02046BDE8E7
:1017B000F04308470168C905D5D4016821F010013C
:1017C000016084F8358084F83490CCE7BDE8F88374
:1017D000B40000202DE9F041044600F0B1F90646BE
:1017E0005CB1022084F83500002584F8345020686C
:1017F000016821F0010101600DE00120BDE8F081E8
:1018000000F09EF9801B052805D920206065032083
:1018100084F83500F2E720680068C007F0D122683C
:10182000116820480140D4E901031843D4E9033684
:101830003343184363691843A3691843E3691843A2
:10184000236A18430843616A042903D1D4E90B13BE
:1018500019430843106020684069666A20F0070158
:1018600030460E43012704280CD1A06A0643E06AE3
:1018700040B12046FFF78EFA20B14020606584F821
:101880003570BAE7206846612046FFF76FFA94F892
:101890005C203F2191408160656584F835700020AF
:1018A000ACE700003F8010F02DE9F0410446866D62
:1018B00090F83400002501280DD0012084F8340070
:1018C00094F835700020012F07D084F834000225E9
:1018D0002846BDE8F0810220FBE7022784F8357036
:1018E00060652046FFF780FA94F85C103F2088403E
:1018F000B0602068016841F016010160206C20B1E1
:101900002068016841F0080101602068016841F029
:1019100001010160DCE7000070B5044600F010F939
:101920000546601C02D004480078044400F008F921
:10193000401BA042FAD370BDA80000202DE9F84F4B
:10194000DFF8BCA10022012503264FF00F090AF1A0
:10195000040BAAF1040E00BF0B6805FA02F4234041
:10196000A34270D10F7907F00307012F01D0022F96
:1019700016D187684FEA420806FA08FC27EA0C07E6
:10198000D1F80CC00CFA08FC4CEA070CC0F808C0EF
:101990004768A7430C79C4F3001494403C43446067
:1019A0000C79E443A4070AD0C4684FEA420C06FA53
:1019B0000CF7BC438F6807FA0CF72743C7600C7914
:1019C00004F00304022C12D1D40800EB840CDCF8E0
:1019D00020405707FF0E09FA07F824EA0804D1F857
:1019E000108008FA07F848EA0408CCF82080046858
:1019F0004FEA420C06FA0CF7BC430F7907F00307D5
:101A000007FA0CF7274307604C6814F4403F70D086
:101A10003C4C276847F480472760246822F003077E
:101A200004F480440094384C07EB040CDCF80848BC
:101A300097074FEA177809FA08F7BC43334FB842C3
:101A400002D1002724E054E0314FB84201D10127F0
:101A50001EE0304FB84201D1022719E02E4FB842A4
:101A600001D1032714E02D4FB84201D104270FE024
:101A70002B4FB84201D105270AE02A4FB84201D1C5
:101A8000062705E0284FB84201D1072700E00827C4
:101A900007FA08F72743CCF80878DAF800405746E9
:101AA000D1F804C09C435FEACC2C00D51C433C60B9
:101AB000DBF800405F46D1F804C09C435FEA8C2C01
:101AC00000D51C433C60DEF800407746D1F804C0E6
:101AD0009C435FEA8C3C00D51C433C60084F083FA8
:101AE0003C68D1F804C09C435FEACC3C00D51C4361
:101AF0003C60521C102AFFF42FAFBDE8F88F0000A5
:101B0000083C0140443802400030014000000240DF
:101B10000004024000080240000C02400010024095
:101B20000014024000180240001C024000690840F6
:101B300000D0012070470AB1816170470904FBE7BA
:101B40000148806870470000A800002002488168B2
:101B50000278114481607047A80000200B4810B53E
:101B6000016841F400710160016841F48061016025
:101B7000016841F480710160032000F06FF80020DB
:101B800000F006F800F024F8002010BD003C0240F0
:101B900070B50D4D04464FF47A712878B1FBF0F022
:101BA0000A490968B1FBF0F000F08DFC48B9102C2F
:101BB00007D200222146501E00F030F800206C6051
:101BC00070BD012070BD0000A8000020B4000020FE
:101BD0000A4808B5016841F480410160006800F4DA
:101BE000804000900548001F016841F0805101606D
:101BF000006800F08050009008BD000044380240AA
:101C0000002809DB00F01F020121914040098000FB
:101C100000F1E020C0F8001170470000F0B40E4B56
:101C20001B680C46C3F30223C3F10705042D00D93A
:101C30000425191D072901D2002300E0DB1E01261F
:101C400006FA05F1491E214099409E40761E164035
:101C50003143F0BC03F076B90CED00E0064900F02A
:101C6000070208684FF6FF03184040EA0220034AC3
:101C700010430860704700000CED00E00000FA051A
:101C80002DE9F0470E46050065D0DFF81481D8F83D
:101C90000000F7B200F00700B04207D288F80070E9
:101CA000D8F8000000F00700B04254D128683D4C3D
:101CB000810712D5400703D5206840F4E05020602A
:101CC0002878000703D5206840F460402060206831
:101CD000A96820F0F000084320602878C0072DD0C4
:101CE000304968680839012812D0022813D0032827
:101CF00011D00968890700292DDA216821F0030134
:101D000001432160FFF71CFF814641F2883A0EE053
:101D100009688903EFE709688901ECE7FFF710FF1D
:101D2000A0EB0901514502D90320BDE8F0872068E6
:101D3000696800F00C00B0EB810FEFD1D8F800100B
:101D4000404601F00701B14207D90770006800F072
:101D50000700B04201D00120E7E72878400705D509
:101D60002068E96820F4E0500843206028780007E4
:101D700006D52068296920F4604040EAC10020604F
:101D800000F038F82168084AC1F30311515CC840DB
:101D90000649086006480068FFF7FAFE0020C4E71D
:101DA000003C024008380240F4640008B4000020FF
:101DB000AC0000200448054900680968044AC1F3E2
:101DC0008221515CC8407047B400002008380240AE
:101DD000046500080448054900680968044AC1F31D
:101DE0004231515CC8407047B400002008380240BE
:101DF00004650008154810B5006810F00C0214487E
:101E000013D04110042A0FD0082A0ED10F4C241FE2
:101E10002268236802F03F025B0207D52068C0F306
:101E20008810A0FB010106E0084610BD2168C1F33F
:101E30008811A1FB00010023FEF7C4F92168C1F35A
:101E40000141491C4900B0FBF1F010BD08380240C7
:101E50000024F4002DE9F84F04006ED02078DFF85C
:101E60004C93C007A9F104054AD009F104000168A8
:101E7000C1F38101012908D00068C0F38100022864
:101E80000AD1D9F80000400206D52868800337D56A
:101E900060680028E1D033E06068B0F5803F10D082
:101EA000B0F5A02F286810D020F480302860286872
:101EB00020F4802028606068A8B1FFF741FE064644
:101EC0000DE0286840F48030F4E740F4802028607A
:101ED000F7E700BFFFF734FE801B642873D828683B
:101EE0008003F7D50CE0FFF72BFE064605E000BFA8
:101EF000FFF726FE801B6428F0D828688003F7D4FB
:101F00002078DFF8AC8280074FF0000A3ED5A74862
:101F1000001D016811F00C0F08D00068C0F38100AB
:101F200002280BD1D9F80000400207D428688007A6
:101F300016D5E068012800D112E033E1E068B8B1BD
:101F40000120C8F80000FFF7FBFD064605E000BFD2
:101F5000FFF7F6FD801B0228C0D828688007F7D558
:101F60002868216920F0F80040EAC10028600DE0EF
:101F7000C8F800A0FFF7E4FD064604E0FFF7E0FD27
:101F8000801B02281FD828688007F7D42078000714
:101F900022D5864F87486169703771B10121016090
:101FA000FFF7CEFD064604E0FFF7CAFD801B0228BE
:101FB00009D838688007F7D50EE0C0F800A0FFF711
:101FC000BFFD064605E082E0FFF7BAFD801B022850
:101FD0007DD838688007F7D42078400768D5DFF8C7
:101FE000CCB100270BF13C0BDBF80000C0000BD498
:101FF000DBF8001041F08051CBF80010DBF8000056
:10200000012700F0805000906B4E3068C00510D45E
:10201000306840F480703060FFF792FD009005E07A
:10202000FFF78EFD0099401A022850D83068C0058D
:10203000F6D55E4EA0686C3601280FD005283068B2
:1020400010D020F001003060306820F004003060D3
:10205000A068B8B1FFF774FD00900FE0306840F061
:102060000100F4E740F004003060F7E7FFF768FD97
:102070000099411A41F28830814266D83068800761
:10208000F4D50EE0FFF75CFD009007E0FFF758FD88
:102090000099411A41F28830814256D83068800751
:1020A000F4D42FB1DBF8001021F08051CBF80010F0
:1020B000A069C8B33D49091D0968C1F3810102291E
:1020C0004AD00228504607D0C8F8600000E03CE043
:1020D000FFF736FD04463BE04746C8F86000FFF7CF
:1020E0002FFD064605E000BFFFF72AFD801B0228F2
:1020F0002BD828688001F7D4D4E907010843A16AE6
:102100002E4A490802EB0141626A41EA8211084302
:1021100094F82C1040EA0161C9F8001001203866DB
:10212000FFF70EFD044606E03EE000BFFFF708FDA6
:10213000001B022809D828688001F7D534E000BFC9
:10214000FFF7FEFC001B022802D90320BDE8F88F30
:1021500028688001F4D427E00128F7D0D9F80000DE
:10216000E26900F4800191421CD1226A00F03F0133
:10217000914217D147F6C071626A0140B1EB821FEC
:1021800010D1A26A4FF0FF3300F4403103EB52024A
:10219000B1EB024F06D194F82C1000F07060B0EB58
:1021A000016F01D00120D1E70020CFE704380240C1
:1021B00000004742800E4742007000400000FFFFD1
:1021C00070B5040009D0606A002540B125616561E1
:1021D000A56294F8510040B10CE0012070BD606828
:1021E000B0F5827FF4D0E561F2E784F850502046E4
:1021F00000F044F8022084F851002068016821F0C2
:1022000040010160A088218900F4827001F404413A
:102210000843A18901F400610843217C01F0020117
:102220000843217D01F001010843218B01F4007175
:102230000843217F01F03801084394F8201001F091
:1022400080010843218D01F4005108432168086092
:10225000A069042101EA104094F8241001F0100153
:102260000843216848602068C16921F40061C161A8
:102270006565012084F85100002070BD10B586B05E
:10228000044614216846FDF7EBFF13492068884295
:1022900020D112480021026842F480520260006896
:1022A00000F4805005900D481438026842F0010295
:1022B0000260006800F001000590E020009002201C
:1022C000CDE90101032003900520049069460448EC
:1022D000FFF734FB06B010BD003001404438024027
:1022E000000002402DE9F84F044690F85000002706
:1022F0000A9E1D4692468B464FF0010901280ED0DA
:10230000012084F85000FFF71BFC804694F8510030
:10231000616801280CD0B1F5827F07D102E002206C
:10232000BDE8F88FA16809B9042801D00227C2E0EE
:10233000BBF1000F27D0BAF1000F24D01DB394F8E1
:102340005100042802D0052084F851000020606567
:10235000C4F838A0E587A587C4F830B0E586A5861F
:102360002064606420680168490603D4016841F074
:1023700040010160E068B0F5006F606805D0E8B327
:10238000012D46D07FE0012795E008B1012D39D11C
:10239000206B21680088C860206B801C2063E08E61
:1023A000401EE0862EE02068816889070FD5E18E07
:1023B00069B1B9F1010F0AD1216B0988C160206BA5
:1023C000801C2063E08E401EE0864FF000092068EC
:1023D0008168C9070CD0E18F51B1C068A16B08803A
:1023E000A06B801CA063E08F401EE0874FF00109C6
:1023F000FFF7A6FBA0EB0800B04200E009E001D324
:10240000701C50D1E08E0028CDD1E08F0028CAD1B9
:102410003FE0206B216800780873206B401C20632C
:10242000E08E401EE0862EE02068816889070FD587
:10243000E18E69B1B9F1010F0AD1216B09780173FD
:10244000206B401C2063E08E401EE0864FF00009A8
:1024500020688168C9070CD0E18F51B1C068A16BB9
:102460000870A06B401CA063E08F401EE0874FF017
:102470000109FFF765FBA0EB0800B04202D3701C16
:1024800001D010E07EB1E08E0028CDD1E08F002891
:10249000CAD142463146204602F0B6F828B101279B
:1024A0002020606507E0032705E0A06818B92068D0
:1024B000C16880680090012084F85100002084F8F1
:1024C000500038462CE710B5401EB0F1807F01D394
:1024D000012010BD4FF0E02460610F21601702F071
:1024E00031FD0020A06107202061002010BD704751
:1024F0007047000070B590F83C20012A32D00124CA
:1025000080F83C40022280F83D2003685A689D68AC
:1025100022F070060A6832435A60134B02689A42EE
:1025200014D0B2F1804F11D0104B9A420ED0104B04
:102530009A420BD00F4B9A4208D00F4B9A4205D0CB
:102540000E4B9A4202D00E4B9A4204D1496825F0B4
:1025500080031943916080F83D40002180F83C10D1
:10256000084670BD022070BD00000140000400401C
:1025700000080040000C0040000401400040014001
:102580000018004010B5040003D094F83D0010B1CD
:1025900007E0012010BD002084F83C00204600F038
:1025A0001FF8022084F83D00211D206802F01CF96C
:1025B000012084F8460084F83E0084F83F0084F847
:1025C000400084F8410084F8420084F8430084F815
:1025D000440084F8450084F83D00002010BD000050
:1025E00008B5154A0168154891420ED1016841F0BD
:1025F000040101600068002200F004000090114610
:102600001E20FFF70BFB1E2010E00D4A914211D156
:10261000016841F0080101600068002200F0080034
:10262000009011463220FFF7F9FA3220BDE8084049
:10263000FFF7E6BA08BD000000080040403802403D
:10264000000C004090F83D10012901D00120704796
:10265000022180F83D100168CA6842F00102CA6098
:1026600000681149884214D0B0F1804F11D00F4951
:1026700088420ED00E4988420BD00E49884208D0BD
:102680000D49884205D00D49884202D00C49884244
:1026900004D1816801F00701062903D0016841F0E7
:1026A000010101600020704700000140000400406B
:1026B00000080040000C00400004014000400140C0
:1026C0000018004070B5044690F83C000025012831
:1026D00017D0012684F83C60022084F83D00206871
:1026E000826822F0770222F47F42826008685028D4
:1026F00038D00DDC20284FD005DC90B3102811D144
:102700004AE0022070BD302846D040280AD13BE084
:1027100060282FD070280DD0B0F5805F03D0B0F5C1
:10272000005F12D0012584F83D60002084F83C0051
:10273000284670BDCB68D1E90121206802F0B8F8C5
:102740002068816841F0770109E0CB68D1E9012177
:10275000206802F0ADF82068816841F48041816012
:10276000E1E719E0CA684968206802F0B3F850212F
:10277000206806E0CA684968206802F0BCF8602159
:10278000206802F09FF8CEE7CA684968206802F026
:10279000A1F840212068F4E7226801461046F0E7DE
:1027A000704770B50446006801694FF00005C943E1
:1027B000890715D4C168C943890711D4E91E01618D
:1027C00001202077206880698007204602D0FFF72B
:1027D000E7FF04E000F098F8204600F096F825772F
:1027E00020680169C943490717D4C168C94349072B
:1027F00013D46FF004010161022020772068806902
:1028000010F4407F204602D0FFF7CAFF04E000F03A
:102810007BF8204600F079F8257720680169C943E4
:10282000090716D4C168C943090712D46FF008011B
:102830000161042020772068C0698007204602D00B
:10284000FFF7AEFF04E000F05FF8204600F05DF80F
:10285000257720680169C943C90617D4C168C943EF
:10286000C90613D46FF01001016108202077206899
:10287000C06910F4407F204602D0FFF791FF04E0CA
:1028800000F042F8204600F040F825772068016902
:10289000C943C90708D1C168C943C90704D1891E02
:1028A0000161204600F032F820680169C943090639
:1028B00009D4C168C943090605D46FF080010161DC
:1028C0002046FFF714FE20680169C943490609D470
:1028D000C168C943490605D46FF040010161204633
:1028E00000F0AEF820680169C94389060BD4C168BD
:1028F000C943890607D46FF0200101612046BDE875
:102900007040FFF7F5BD70BD7047704770B5424924
:10291000424C88422DED048B02D16169491C6161F2
:102920003F49884275D13F483F4D01783B4895ED7E
:10293000030AC0699FED3D8A9FED3D9B012904D1AB
:102940003D490978012900D1F0B3012801D00228BE
:102950005FD1B8EEC00AC0EE080A94ED010A30EE6D
:10296000C00A10EE100AFDF71FFE41EC100BFDF738
:102970005AFCFDF708FE53EC192BFDF729FE18D37E
:1029800095ED000AB8EEC00AC0EE080A94ED020AFE
:1029900030EEC00A10EE100AFDF706FE41EC100BF7
:1029A000FDF741FCFDF7EFFD53EC192BFDF710FE91
:1029B00027D2D4E90501421A1849D4ED020A2C3174
:1029C00094ED010A081F00E005E0BDEC048BBDE8B2
:1029D000704002F0C7B96069A0610120E061206A1F
:1029E0000528B6D9F8EEC00A80EE881A84ED011ADF
:1029F000D5ED000AF8EEE00A80EE881A84ED021A9E
:102A0000A7E79FED0E0A002084ED0B0A84ED0A0A69
:102A1000E061BDEC048B70BD40010020000000208F
:102A20008801002040000020A4080020A091054952
:102A30009A9999999999B93F3F00002000000000A8
:102A40007047704770470000F8B501680446086891
:102A5000CA684B6910F00F0F4FF0000559D003F012
:102A6000010602F49077374365D0C10705D0D10540
:102A700003D5216C41F001012164410705D5D90737
:102A800003D0216C41F002012164810705D5D907EB
:102A900003D0216C41F004012164010707D502F045
:102AA0002001314303D0216C41F008012164216CE5
:102AB00000293AD0800604D5900602D5204601F0C0
:102AC000DCFF20684069216CC0F38010090700D446
:102AD00060B3204601F09CFF20684069400621D584
:102AE0002068143050E8001F21F0400140E8001237
:102AF000002AF5D1A06BA8B16C490165A06BFEF767
:102B000087FD002811D0A06B016D01B0BDE8F04039
:102B1000084783060FD593060DD52046BDE8F8403B
:102B200001F0ABBF2046FFF78DFFF8BD2046FFF751
:102B300089FF2564F8BD266B2023012E79D1C606B6
:102B400077D5D60675D5086848680090486940066C
:102B500040D5A16B086840680004000CEAD0A28D43
:102B60008242E7D9E085C869B0F5807F2DD0206822
:102B70000C3050E8001F21F4807140E80012002A58
:102B8000F5D12068143050E8001F21F0010140E821
:102B90000012002AF5D12068143050E8001F21F0FF
:102BA000400140E80012002AF5D184F83E30256348
:102BB00020680C3050E8001F21F0100140E800129E
:102BC000002AF5D1A06BFEF7DAFCA08DE18D401A4A
:102BD00081B229E0A08DE18D401A81B2E08D0028FC
:102BE000A8D00029A6D020680C3050E8002F22F48D
:102BF000907240E80026002EF5D12068143050E88D
:102C0000002F22F0010240E80026002EF5D184F8C2
:102C10003E30256320680C3050E8002F22F010026F
:102C200040E80023002BF5D12046FFF70AFFF8BD4E
:102C3000FFE705062BD5150629D594F83D00212878
:102C4000F5D1A068B0F5805F01D12069B0B1206AEC
:102C5000411C2162216800784860E08C401E00041D
:102C6000000CE084E3D12068C16821F08001C160DC
:102C70002068C16841F04001C160D8E7206A00883F
:102C8000C0F308004860206A801C2062E5E7400627
:102C9000CDD55006CBD5CA68204622F04002CA6086
:102CA00084F83D3000F081F9C1E700001B490008BD
:102CB00070B5040004D094F83D00002510B106E082
:102CC000012070BD84F83C50204600F023F82420F9
:102CD00084F83D002068C16821F40051C16020469D
:102CE00001F02CFF2068016921F490410161206806
:102CF000416921F02A0141612068C16841F4005115
:102D0000C1602564202084F83D0084F83E00002046
:102D100070BD00002DE9F04387B0064614216846D7
:102D2000FDF79EFA50484F4FD6F800C000244E4998
:102D30001438022203230725BC451BD10E6846F038
:102D400010060E60096801F010010591016841F05C
:102D5000010101600068694600F001000590580219
:102D60008DE81500CDE903354048FEF7E7FD07B0D3
:102D7000BDE8F083DFF8F8804FF480674FF4807986
:102D8000C44533D13849091FD1F800C04CF4802C18
:102D9000C1F800C0096801F480210591016841F083
:102DA000020101600068694600F0020005904FF4DE
:102DB00040608DE81500CDE903352E48FEF7BEFDD5
:102DC0002E4D2D4828607804C5E90104C5E9034764
:102DD0006C61C5E906492C6228466C62FEF7FAFC74
:102DE00008B1FEF716F8B563AE63C0E7244DAC45F5
:102DF000BDD10D6845F020050D60096801F0200186
:102E00000591016841F0040101600068694600F025
:102E100004000590C0208DE815000820CDE903309E
:102E20001848FEF78BFD154D174860352860800562
:102E3000C5E90104C5E903476C61C5E906492C628F
:102E400028466C62FEF7C6FC08B1FDF7E2FFB563E9
:102E5000002211464720AE63FEF7E0FE4720FEF752
:102E6000CFFE84E7001001404438024000000240D9
:102E70000048004000040240286002409C020020FC
:102E800000140140000802402864024090F83E30DF
:102E9000202B0ED159B152B190F83C30012B08D003
:102EA000012380F83C300023036301F0CDBE0120F4
:102EB000704702207047000070B50B490446006857
:102EC00009680126094D884202D1EE6003F03EFAFE
:102ED000074920680968884204D12E61BDE8704026
:102EE00003F002BA70BD000058020020000000206C
:102EF00014020020704700002DE9F843044690F8C2
:102F00003D001F4616460D4620284CD1C5B1BEB126
:102F100094F83C00012846D0012084F83C004FF092
:102F20000008C4F84080212084F83D00FEF708FE28
:102F3000A6848146E684A068B0F5805F03D004E0F3
:102F40000120BDE8F883206928B12E465FF0000516
:102F500084F83C800EE00026FAE78021204601F04C
:102F6000BDFEA0B9AEB116F8010B21684860E08C37
:102F7000401EE084E08C4B464FF000020097002892
:102F8000EBD14FF04001204601F0A8FE30B1032004
:102F9000D7E735F8020BC0F30800E6E7202084F8F5
:102FA0003D000020CDE70220CBE77047FEE70000A0
:102FB0002DE9F041B6EE002AF0EE412A314C40EE08
:102FC000422A2DED048B10EE021A00259FED2E9B58
:102FD000C4ED002AB0EE623AF0EE612A40EEC21A69
:102FE00050EE822A04F15406C4ED012A84ED031A3E
:102FF000C4ED042A84ED063AC4ED071A84ED091ADB
:10300000C4ED0A1A05EB450004EB80077868FDF76C
:10301000CBFA41EC100BB0EE491AF0EE691A01F050
:10302000A3FFB0EE408AF0EE608A3868FDF7BCFA84
:1030300041EC100BB0EE491AF0EE691A01F094FF62
:1030400053EC182B51EC100BFDF715F941EC100B5C
:1030500002F0B2FD51EC100BFDF7D2FA46F8250054
:103060006D1C042DCEDB00209FED090A06EB8001CC
:10307000401C81ED000A0328F8DBBDEC048BBDE8A1
:10308000F08100005C030020000000000000004010
:10309000CDCC4C3E10B516482DED048BB0EE418AD8
:1030A000F0EE608AB0EE409A00F024F81048B0EEDE
:1030B000481AF0EE680AB0EE490A0C3000F082F8C7
:1030C0000B48B0EE481AF0EE680AB0EE490A183024
:1030D00000F0E0F8B0EE481AF0EE680AB0EE490AE7
:1030E000BDEC048B0248BDE81040243000F03AB932
:1030F0005C03002010B504462DED0A8BB0EE41AA0A
:10310000B0EE608A10EE100AFDF74EFA9FED27BB75
:1031100041EC190BB0EE4B0AF0EE6B0A02F04CFDDD
:1031200053EC192B51EC100BFDF74CF99FED21CB13
:1031300053EC1C2BFDF746F941EC190B18EE100A65
:10314000FDF732FA41EC180BB0EE4B0AF0EE6B0AC9
:1031500002F032FD53EC182B51EC100BFDF732F955
:1031600053EC1C2BFDF72EF941EC180B134890ED96
:10317000000A20EE0A0A10EE100AFDF715FA53ECC9
:10318000182BFDF778F853EC192BFDF715F9FDF71F
:1031900037FA00EE100A0A48D0ED000A20EE200AA5
:1031A00084ED020ABDEC0A8B10BD00000000000097
:1031B00000000040000000000000E03FB0030020DD
:1031C0003800002010B504462DED0A8BB0EE41AA60
:1031D000B0EE608A10EE100AFDF7E6F99FED27BB0E
:1031E00041EC190BB0EE4B0AF0EE6B0A02F0E4FC76
:1031F00053EC192B51EC100BFDF7E4F89FED21CBAC
:1032000053EC1C2BFDF7DEF841EC190B18EE100AFD
:10321000FDF7CAF941EC180BB0EE4B0AF0EE6B0A61
:1032200002F0CAFC53EC182B51EC100BFDF7CAF856
:1032300053EC1C2BFDF7C6F841EC180B134890ED2E
:10324000010A20EE0A0A10EE100AFDF7ADF953EC60
:10325000182BFDF7B1F853EC192BFDF7ADF8FDF77E
:10326000CFF900EE100A0A48D0ED000A20EE200A3D
:1032700084ED020ABDEC0A8B10BD000000000000C6
:1032800000000040000000000000E03FB00300200C
:103290003800002010B504462DED0A8BB0EE41AA8F
:1032A000B0EE608A10EE100AFDF77EF99FED27BBA5
:1032B00041EC190BB0EE4B0AF0EE6B0A02F07CFC0D
:1032C00053EC192B51EC100BFDF77CF89FED21CB43
:1032D00053EC1C2BFDF776F841EC190B18EE100A95
:1032E000FDF762F941EC180BB0EE4B0AF0EE6B0AF9
:1032F00002F062FC53EC182B51EC100BFDF762F856
:1033000053EC1C2BFDF75EF841EC180B134890EDC5
:10331000020A20EE0A0A10EE100AFDF745F953ECF6
:10332000182BFDF749F853EC192BFCF7A4FFFDF718
:1033300067F900EE100A0A48D0ED000A20EE200AD4
:1033400084ED020ABDEC0A8B10BD000000000000F5
:1033500000000040000000000000E03FB00300203B
:103360003800002010B504462DED0A8BB0EE41AABE
:10337000B0EE608A10EE100AFDF716F99FED27BB3C
:1033800041EC190BB0EE4B0AF0EE6B0A02F014FCA4
:1033900053EC192B51EC100BFDF714F89FED21CBDA
:1033A00053EC1C2BFDF70EF841EC190B18EE100A2C
:1033B000FDF7FAF841EC180BB0EE4B0AF0EE6B0A91
:1033C00002F0FAFB53EC182B51EC100BFCF7FAFF50
:1033D00053EC1C2BFCF7F6FF41EC180B134890ED57
:1033E000030A20EE0A0A10EE100AFDF7DDF853EC8E
:1033F000182BFCF740FF53EC192BFCF73CFFFDF7B3
:10340000FFF800EE100A0A48D0ED000A20EE200A6C
:1034100084ED020ABDEC0A8B10BD00000000000024
:1034200000000040000000000000E03FB00300206A
:10343000380000200E4810B50C4901600821416099
:1034400000214FF400328160C0E90312416101762E
:1034500041768176C17601774177FDF76CFF0028D0
:1034600003D0BDE81040FDF7D4BC10BD006400409F
:10347000C0000020114808B5016841F480010160D6
:10348000016801F480010091016841F400110160BC
:103490000068002200F40010009011460C20FEF796
:1034A000BDFB0C20FEF7ACFB002211463920FEF7D5
:1034B000B5FBBDE808403920FEF7A2BB303802401A
:1034C0002DE9F04387B014216846FCF7C9FE334864
:1034D0000024016841F080010160016801F0800171
:1034E0000591016841F001010160016801F00101ED
:1034F0000591016841F002010160016801F00201DB
:103500000591016841F008010160016801F00801BE
:103510000591016841F0040101600068DFF88080D6
:1035200000F004000590012204214046FEF703FB51
:10353000DFF870904FF40056002231464846FEF7FF
:10354000FAFA0122D70339464846FEF7F4FA10206A
:10355000CDE90004694614480294FEF7EFF904200F
:1035600000900125CDE90154694640460394FEF7D9
:10357000E5F90220CDE90204CDE900656946484637
:10358000FEF7DCF9CDE90075CDE9025469464846FD
:10359000FEF7D4F907B0BDE8F083000030380240F0
:1035A00000040240000C024000000240104810B528
:1035B0000E4901604FF48271416000218160012257
:1035C000C160C0E90412520282612822C0E90721C9
:1035D000416281620A21C162FEF7F2FD002803D038
:1035E000BDE81040FDF715BC10BD000000300140E3
:1035F000E800002010B586B000241748009401941C
:103600000294039404941349059401604F21C0E986
:10361000011440F2E731C0E9031480218161FEF713
:10362000B1FF08B1FDF7F5FB4FF4805000906946FB
:103630000948FFF747F808B1FDF7EBFB049404A92C
:1036400005480594FEF756FF002801D0FDF7E1FB81
:1036500006B010BD000800404001002010B586B043
:10366000002417480094019402940394049413498D
:10367000059401604F21C0E9011440F2E731C0E92F
:10368000031480218161FEF77DFF08B1FDF7C1FBC6
:103690004FF48050009069460948FFF713F808B1CD
:1036A000FDF7B7FB049404A905480594FEF722FF33
:1036B000002801D0FDF7ADFB06B010BD000C0040A6
:1036C000880100200C4810B50A4901604FF4E1312F
:1036D0004160002181600C22C160C0E90412816157
:1036E000C161FFF7E5FA002803D0BDE81040FDF7FF
:1036F00090BB10BD00100140D00100200C4810B557
:103700000A4901604FF4E1314160002181600C22DF
:10371000C160C0E904128161C161FFF7C9FA0028E4
:1037200003D0BDE81040FDF774BB10BD0048004059
:10373000140200200C4810B50A4901604FF4E13131
:103740004160002181600C22C160C0E904128161E6
:10375000C161FFF7ADFA002803D0BDE81040FDF7C6
:1037600058BB10BD0014014058020020FEE70000C5
:10377000074970EEE10A30EE410AD1ED021A91EDEF
:10378000031A60EEA10A41EE000AC0ED000A70477C
:1037900068000020024880ED050AC0ED040A704769
:1037A00068000020014880EC020A70479000002069
:1037B00010B504462DED108BF0EE408A00EE101A85
:1037C00082B0B8EE400ADFEDFE0A80EE208A9FED5F
:1037D000FDABFE4890ED019AD0ED009AB5EEC08A9F
:1037E000F1EE10FA50DDB4EEC98AF1EE10FA4BD2C8
:1037F00029EE880A18EE100A84ED020AFCF7D4FEBE
:1038000041EC1B0B18EE100AFCF7CEFE41EC1C0B32
:1038100019EE900AFCF7C8FE53EC1A2BFCF7D2FD08
:1038200053EC1C2BFCF7CEFD53EC1B2BFCF7CAFD15
:10383000FCF7E6FE606018EE100AFCF7B5FE41ECFE
:103840001B0B18EE100AFCF7AFFE41EC1A0B18EE3A
:10385000100AFCF7A9FE41EC180B19EE900AFCF7D0
:10386000A3FE9FEDDB1B53EC112BFCF7ABFD53ECE0
:10387000182BFCF7A7FD53EC1A2BFCF7A3FD53EC18
:103880001B2BFCF79FFD70E0D048F0EE00EAB4EE91
:10389000C98A90ED010AD0ED000AB1EE00CA20EE0F
:1038A0002EEA20EE80BA2BEE00DAF1EE10FA63DD9C
:1038B000B4EEC8EAF1EE10FA5EDDB0EE480A68EE4A
:1038C0000C0A09EE6E0A29EEC00A84ED020A28EEFF
:1038D000080A00EEC90AFEEE000A0EEE090A20EE02
:1038E000290A20EE200A84ED010A29EE880A20EE3A
:1038F000080A20EE080A10EE100AFCF755FE9FEDAC
:10390000B61B53EC112BFCF7CFFD2BEE080A41EC54
:103910001A0B20EE080A10EE100AFCF745FE2DEEF9
:10392000090A41EC1B0B10EE100AFCF73DFE9FED5F
:10393000AC1B53EC112BFCF7B7FD29EEC90A41EC87
:103940001C0B20EE090A20EE080A10EE100AFCF704
:103950002BFE53EC1C2BFCF78EFC53EC1B2BFCF7C3
:103960008AFC53EC1A2BFCF727FDFCF749FE20607C
:1039700002B0BDEC108B10BD9448F0EE680AB0EEBA
:10398000000A90ED011AB4EEC8EA41EE000AF1EE29
:1039900010FA11D2F4EEC80AF1EE10FA0CDD9FED28
:1039A000920A84ED020A2DEE080A84ED01DA0DEE8A
:1039B000490A84ED000ADBE78448B0EE680AB0EEFD
:1039C00008FA90ED011AF4EEC80A01EE0F0AF1EEC2
:1039D00010FA7DD2B4EEC80AF1EE10FA78DDB0EE3E
:1039E000480A09EE6E0A30EE680A29EEC00A84ED34
:1039F000020A29EEAE0A20EE090A8DED000A20EE39
:103A0000280A10EE100AFCF7CFFD41EC1F0B18EE50
:103A1000900AFCF7C9FD41EC1C0B18EE900AFCF76C
:103A2000C3FD41EC1B0B19EE900AFCF7BDFD53ECF6
:103A30001A2BFCF7C7FC53EC1B2BFCF7C3FC53EC15
:103A40001C2BFCF7BFFC41EC1B0B1DEE100AFCF716
:103A5000ABFD53EC1B2BFCF70EFC53EC1F2BFCF7C0
:103A60000AFC9DED000A41EC1D0B09EEA80A20EEB0
:103A7000080A10EE100AFCF797FD41EC1C0B18EE3B
:103A8000100AFCF791FD41EC1F0B18EE100AFCF731
:103A90008BFD41EC1B0B19EE900AFCF785FD9FEDA9
:103AA000531B53EC112BFCF78DFC53EC1B2BFCF739
:103AB00089FC53EC1F2BFCF785FC53EC1C2BFCF70B
:103AC000DAFB53EC1D2BFCF777FCFCF799FD00E0CB
:103AD0003BE129EE280A606020EE280A10EE100A69
:103AE000FCF762FD28EEAE0A41EC110B8DED001BD8
:103AF00020EE090A20EE090A10EE100AFCF754FD28
:103B000041EC1F0B19EE100AFCF74EFD41EC1C0BAB
:103B100019EE100AFCF748FD41EC1B0B19EE100AD8
:103B2000FCF742FD9FED331B53EC112BFCF74AFCD5
:103B300053EC1B2BFCF746FC53EC1C2BFCF742FC14
:103B400041EC1D0B18EE900AFCF72EFD41EC1C0B0E
:103B500018EE900AFCF728FD41EC1B0B18EE900ABA
:103B6000FCF722FD9FED1A1B53EC112BFCF72AFCEE
:103B700053EC1B2BFCF726FC53EC1C2BFCF722FC14
:103B800053EC1D2BFCF777FB53EC1F2BFCF773FB5F
:103B90009DED001B53EC112BFCF76DFB41EC1B0B57
:103BA00019EE900AFCF700FD53EC1B2BFCF70AFC06
:103BB00041EC100B18EE100A8DED000B1EE000001A
:103BC00000007A44000000000000E03F6800002090
:103BD000555555555555C53F00000000000018408B
:103BE000000000000000084000000000000000008D
:103BF0000000E0BF555555555555D53FFCF7D4FC51
:103C000041EC1F0B19EE900AFCF7CEFC2EEE280AB1
:103C100041EC1B0B10EE100AFCF7C6FC41EC1D0B2F
:103C200018EE900AFCF7C0FC41EC1C0B18EE900A51
:103C3000FCF7BAFC53EC1A2BFCF7C4FB53EC1C2B1F
:103C4000FCF7C0FB29EE090A41EC1C0B10EE100A30
:103C5000FCF7AAFC53EC1C2BFCF70DFB53EC1D2BC3
:103C6000FCF709FB53EC1B2BFCF7ACFB53EC1F2BB5
:103C7000FCF7A8FB41EC1E0B18EE100AFCF794FCB5
:103C800041EC1D0B18EE100AFCF78EFC41EC1C0BEE
:103C900019EE900AFCF788FC41EC1B0B18EE900A19
:103CA000FCF782FC53EC1A2BFCF78CFB41EC1A0B53
:103CB00019EE100AFCF778FC53EC1A2BFCF7DBFA30
:103CC00053EC1B2BFCF77EFB53EC1C2BFCF77AFB15
:103CD00053EC1D2BFCF776FB41EC1C0B18EE100A85
:103CE000FCF762FC41EC1B0B18EE100AFCF75CFCC5
:103CF00041EC1A0B18EE100AFCF756FC41EC180BBD
:103D000019EE900AFCF750FC9FED731B53EC112B3E
:103D1000FCF758FB53EC182BFCF754FB53EC1A2B15
:103D2000FCF750FB53EC1B2BFCF74CFB53EC1C2B10
:103D3000FCF7A1FA53EC1E2BFCF73EFB9DED000BAC
:103D400053EC102BFCF797FA0FE6B4EEC80AF1EE2D
:103D500010FABFF430AEF0EE68CA49EE0CCAF4EEC9
:103D6000C8CAF1EE10FA7FF726AEB0EE480A18EE98
:103D7000900A09EE4C0A30EE680A20EE290A84ED1A
:103D8000020AFCF711FC41EC1B0B18EE900AFCF741
:103D90000BFC53EC1A2BFCF715FB53EC1B2BFCF71D
:103DA00011FBB2EE000A69EE0C0A29EE000A41ECA2
:103DB0001B0B20EE090A00EEA80A10EE100AFCF711
:103DC000F3FB53EC1B2BFCF756FA41EC1B0B19EEE3
:103DD000900AFCF7E9FB53EC1B2BFCF7F3FA2CEEF3
:103DE000A90A41EC1E0B20EE080A10EE100AFCF79F
:103DF000DBFB41EC1D0B18EE100AFCF7D5FB41EC88
:103E00001C0B18EE100AFCF7CFFB41EC1B0B19EE54
:103E1000900AFCF7C9FB53EC1A2BFCF7D3FA53ECCE
:103E20001B2BFCF7CFFA53EC1C2BFCF7CBFA53EC13
:103E30001D2BFCF7C1FA53EC1E2BFCF71CFAFCF708
:103E4000DFFBB2EE081A28EE480A68EE010A60604D
:103E500020EE080A60EE880A00EE890A68EE0F0A72
:103E600060EE881A60EEA80A01EEA80ADFED1C1ABF
:103E700068EE211A61EE891A01EEC90AF3EE081AFA
:103E800068EE211A61EE891A01EEE80A00EEE80AEE
:103E9000DFED140A69EE200A60EE890A00EE890A55
:103EA000DFED110A69EE200A60EE890A00EEA80A29
:103EB00069EE010A60EEA80A00EEA80A68EEA80AF8
:103EC00000EEA80AF9EE080A20EE290A80EE201A70
:103ED00084ED001A4CE50000555555555555C5BFA4
:103EE00000004042000050420000284210B5044645
:103EF0002DED108BF0EE408A00EE101A82B0B8EE75
:103F0000400ADFEDFE0A80EE208A9FEDFD9AFD4813
:103F10009FEDFDBB9FEDFECBD0ED009AB5EEC08AC4
:103F2000F1EE10FA4EDDB4EEE88AF1EE10FA49D265
:103F300029EE880A18EE100A84ED020AFCF734FB19
:103F400041EC1D0B18EE100AFCF72EFB41EC1A0B8E
:103F500019EE900AFCF728FB53EC1B2BFCF732FA06
:103F600053EC1A2BFCF72EFA53EC1D2BFCF72AFA14
:103F7000FCF746FB606018EE100AFCF715FB41ECFD
:103F80001A0B18EE100AFCF70FFB41EC1B0B18EE96
:103F9000100AFCF709FB41EC180B19EE900AFCF72C
:103FA00003FB53EC1C2BFCF70DFA53EC182BFCF71E
:103FB00009FA53EC1B2BFCF705FA53EC1A2BFCF710
:103FC00001FA6EE0CF48F0EE000AB4EEE88A90ED18
:103FD000001A28EEA0FAB1EE000A61EE28CA2CEE13
:103FE000A8CAF1EE10FA63DDB4EEC8FAF1EE10FAE9
:103FF0005EDDB0EE481A28EE000A08EEE01A69EE1F
:10400000C10AC4ED020A68EE080A40EE680A4FEEE3
:10401000280A20EEA90AFEEE000A20EE200A84ED0E
:10402000010A29EE880A20EE080A20EE080A10EE9E
:10403000100AFCF7B9FA9FEDB81B53EC112BFCF7F3
:1040400033FA2CEE880A41EC1A0B20EE080A10EE27
:10405000100AFCF7A9FA2CEE280A41EC1B0B10EE13
:10406000100AFCF7A1FA9FEDAE1B53EC112BFCF7E5
:104070001BFA29EEE80A41EC1C0B20EE280A20EE80
:10408000080A10EE100AFCF78FFA53EC1C2BFCF711
:10409000F2F853EC1B2BFCF7EEF853EC1A2BFCF761
:1040A0008BF9FCF7ADFA206002B0BDEC108B10BDAF
:1040B0009FED931AF0EE001AB4EEC8FA08EEA11ABA
:1040C000F1EE10FA0FD2B4EEC81AF1EE10FA0ADDD2
:1040D0002CEE080A84ED029A84ED01CA0CEE680AFF
:1040E00084ED000AE0E79FED90ABDFED851AF0EE7E
:1040F00008FAB4EEC81A48EEAF1AF1EE10FA7CD204
:10410000F4EEC81AF1EE10FA77DDB0EE480AB0EE20
:10411000491A08EEE00A30EE410A29EEC00A84EDA1
:10412000020A29EEA00A60EE28CAB0EE490A2CEE77
:10413000800A10EE100AFCF737FA41EC1D0B19EE5D
:10414000900AFCF731FA53EC1B2BFCF73BF953ECCC
:104150001A2BFCF737F953EC1A2BFCF733F941EC27
:104160001B0B1CEE100AFCF71FFA53EC1B2BFCF781
:1041700082F853EC1D2BFCF77EF8B0EE490A41ECB7
:104180001E0B49EE80CA2CEE880A10EE100AFCF7CE
:104190000BFA41EC1D0B18EE100AFCF705FA41EC86
:1041A0001C0B18EE100AFCF7FFF941EC1B0B19EE83
:1041B000900AFCF7F9F99FED5E1B53EC112BFCF70D
:1041C00001F953EC1B2BFCF7FDF853EC1C2BFCF70F
:1041D000F9F853EC1D2BFCF74EF853EC1E2BFCF7B3
:1041E000EBF8FCF70DFAB0EE490A606068EE800A61
:1041F00020EE800A10EE100A00E0FAE0FCF7D4F995
:10420000B0EE490A41EC1E0B20EE280A20EE280AE7
:1042100010EE100AFCF7C8F941EC1D0B18EE900ADD
:10422000FCF7C2F941EC1C0B18EE900AFCF7BCF944
:1042300041EC1B0B18EE900AFCF7B6F99FED3E1B04
:1042400053EC112BFCF7BEF853EC1B2BFCF7BAF820
:1042500053EC1C2BFCF7B6F841EC100B51EC1A0B8D
:1042600053EC102BFCF707F853EC1D2BFCF703F86D
:1042700053EC1E2BFBF7FFFF41EC1B0B19EE900AD2
:10428000FCF792F953EC1B2BFCF79CF841EC100B5C
:1042900018EE100A8DED000BFCF786F941EC1C0BB3
:1042A00019EE900AFCF780F92FEE090A41EC1B0B7E
:1042B00010EE100AFCF778F928EEA80A41EC1D0B65
:1042C00010EE100AFCF770F953EC1A2BFBF7D3FF32
:1042D00053EC1D2BFBF7CFFF53EC1B2BFCF772F8B5
:1042E00053EC1C2BFCF76EF841EC1B0B18EE100A7C
:1042F000FCF75AF941EC1C0B22E0000000007A4464
:104300000000000068000020000000000000E03F06
:10431000555555555555C53F000000000000184043
:104320000000000000000840000000000000000045
:10433000000000000000E0BF555555555555D53FCC
:1043400018EE100AFCF730F941EC1E0B19EE900A3A
:10435000FCF72AF941EC1D0B18EE900AFCF724F942
:1043600053EC1A2BFBF787FF53EC1D2BFCF72AF8B5
:1043700053EC1E2BFCF726F853EC1C2BFCF722F811
:1043800041EC1C0B18EE100AFCF70EF941EC1A0B6D
:1043900018EE100AFCF708F941EC1D0B18EE100A94
:1043A000FCF702F941EC180B19EE900AFCF7FCF847
:1043B0009FED6E1B53EC112BFCF704F853EC182BFC
:1043C000FCF700F853EC1D2BFBF7FCFF53EC1A2B0A
:1043D000FBF7F8FF53EC1C2BFBF74DFF53EC1B2BAB
:1043E000FBF7EAFF9DED000B53EC102BFBF743FFAF
:1043F00057E6F4EEC81AF1EE10FABFF473AEB0EE61
:1044000049CA08EE80CAB4EEC8CAF1EE10FA7FF7C6
:1044100069AEF0EE480AB0EE491A48EEC00A70EEF6
:10442000C10A28EE801AB0EE490A60EEA90AC4ED6E
:10443000020AF2EE000A68EEA00A60EEA80A41EE57
:10444000000A10EE900AFCF7AFF853EC1A2BFBF7BA
:1044500012FF41EC1A0B19EE900AFCF7A5F853EC89
:104460001A2BFBF7AFFF2CEE290A41EC1E0B20EEB6
:10447000080A10EE100AFCF797F841EC1D0B18EE35
:10448000100AFCF791F841EC1C0B18EE100AFCF72F
:104490008BF841EC1A0B19EE900AFCF785F853ECF7
:1044A0001B2BFBF78FFF53EC1A2BFBF78BFF53EC07
:1044B0001C2BFBF787FF53EC1D2BFBF77DFF53EC09
:1044C0001E2BFBF7D8FEFCF79BF8B2EE081A28EE7D
:1044D000480A68EE010AF0EE491A28EE811A20EE29
:1044E000080A60EE880A606000EEA80A68EE2F0AEB
:1044F00020EE882A02EE210ADFED1E1A68EE211A4C
:1045000061EEA81A01EEE80AF3EE081A68EE211A25
:1045100021EEA82AF0EE491A02EE610A60EEA11A15
:10452000F0EE490A01EEE00ADFED130A68EEA00A98
:1045300060EEA80A00EEA80ADFED100A68EEA00AF5
:1045400060EEA81AF0EE490A21EE201A01EEA00A48
:1045500001EE200A00EE890AF9EE080A20EE290A87
:1045600080EE201A84ED001A9EE500005555555541
:104570005555C5BF0000404200005042000028428F
:10458000FEE790ED040AD0ED030AB0EE002A30EE0B
:10459000600A80ED050AD0ED070AD0ED001A30EE72
:1045A000601A21EE211AD0ED011A01EE801AF0EE08
:1045B000401A40EEC21A90ED062A71EE821A90ED72
:1045C000022A02EE211AD0ED081A31EE211A80EDEE
:1045D000081AC0ED060A80ED070A90ED090AB4EE4C
:1045E000C01AF1EE10FA01DD80ED080AD0ED080ADC
:1045F000B1EE400AF4EEC00AF1EE10FA01D280EDFD
:10460000080A70477047000038B504461248134B3B
:104610000068B0FBF3F04FF47A7358430090606881
:10462000B0F5827F0DD10B460092002280212046FA
:1046300000F016F870B1606D40F020006065032056
:1046400038BD009830B1401E009020688068C0439B
:104650000006F6D5002038BDB400002000366E01FB
:104660002DE9F8431E46914688460446089DFDF70D
:1046700067FA401B351AFDF763FA074625480068BC
:10468000C0F3CB30684338E0701C37D0FDF758FAE0
:10469000C01BA84203D215B1009860B32CE020687B
:1046A000416821F0E00141606068B0F5827F0BD184
:1046B000A068B0F5004F02D0B0F5806F04D120683B
:1046C000016821F040010160A06AB0F5005F09D1E6
:1046D0002068016821F4005101602068016841F4FC
:1046E00000510160012084F85100002084F850003E
:1046F0000320BDE8F8830025401E009020688168F3
:1047000038EA010004D000214945BDD10020F0E77E
:104710000121F9E7B40000207047FDF717BA000047
:1047200030B593B030216846FBF79AFD14210CA8F0
:10473000FBF796FD1D480025016841F0805101609E
:10474000006800F0805011901948016841F48041E0
:1047500001600068022400F4804011900120009064
:10476000000401908001CDE9064008AA0420A021A0
:1047700082E813000B906846FDF76CFB08B172B637
:10478000FEE70CA90F2081E831004FF4A0500F90F4
:104790004FF48050109005210CA8FDF771FA002805
:1047A00001D072B6FEE713B030BD000040380240C1
:1047B000007000400548016841F470010160034940
:1047C0004FF00060803908607047000088ED00E01D
:1047D0000148FDF7E6BF0000400100200148FDF759
:1047E000E0BF000088010020F0B50268254C264D8E
:1047F000264E274F274B4FF0804CA04209D06045F2
:1048000007D0A84205D0B04203D0B84201D09842A8
:1048100004D122F0700E4A6842EA0E02A0421BD078
:10482000604519D0A84217D0B04215D0B84213D075
:10483000984211D0184DA8420ED0184DA8420BD066
:10484000174DA84208D0174DA84205D0164DA842D2
:1048500002D0164DA84203D122F44075CA682A43FB
:104860004D6922F080022A4302608A68C2620A68A7
:104870008262A04201D0984201D1096901630121FD
:104880004161F0BD0000014000040040000800400C
:10489000000C004000040140004001400044014081
:1048A0000048014000180040001C0040002000406B
:1048B00010B5846842EA032224F47F440A43224369
:1048C000826010BD826822F070020A4342F0070144
:1048D0008160704710B5036A046A24F00104046221
:1048E000846924F0F00444EA021423F00A020A4323
:1048F0008461026210BD10B5036A23F010030362E5
:104900008369046A23F4704343EA023224F0A0036B
:1049100043EA01118261016210BD10B5806B002174
:10492000C185C184FEF78EF810BD70B5846B206818
:10493000406994F83D10C0F3C0100025212904D12E
:1049400018B1E584204600F08AF82068406994F8A0
:104950003E10C0F38010222904D118B1E58520460D
:1049600000F056F8206C40F0100020642046FEF75E
:1049700069F870BD10B50146806B09680968C90502
:104980002FD40021C18501680C3151E8002F22F499
:10499000807241E80023002BF5D10168143151E801
:1049A000002F22F0010241E80023002BF5D101681D
:1049B000143151E8002F22F0400241E80023002B7F
:1049C000F5D1202180F83E10016B012909D1016841
:1049D0000C3151E8002F22F0100241E80023002B97
:1049E000F5D1016B012902D0FEF766FA10BD818D69
:1049F000FEF727F810BD10B5806B016B012902D0BE
:104A0000FEF778FA10BD818D4908FEF71AF810BD3F
:104A100001680C3151E8002F22F4907241E8002324
:104A2000002BF5D10168143151E8002F22F001026A
:104A300041E80023002BF5D1016B012909D1016860
:104A40000C3151E8002F22F0100241E80023002B26
:104A5000F5D1202180F83E100021016370470168E4
:104A60000C3151E8002F22F0C00241E80023002B56
:104A7000F5D1202180F83D10704708B590F83E1020
:104A8000222901D0022008BD82684FF480539A4247
:104A900001D1016921B1816A9A421BD04AB10AE071
:104AA0000268816A5268C2F308020A80816A891C1E
:104AB00008E0026972B10268526802F07F020A706F
:104AC000816A491C8162C18D491E0904090CC18596
:104AD00003D019E002685268F1E70168CA6822F061
:104AE0002002CA600168CA6822F48072CA60016844
:104AF0004A6922F001024A61202180F83E10016BD0
:104B0000012903D0FEF7D8F9002008BD0021016378
:104B100001680C3151E8002F22F0100241E8002317
:104B2000002BF5D101680A68D20602D50A684968E7
:104B30000091818DFDF785FFE6E7000070B5044622
:104B400000680169E26821F4405111430161216963
:104B5000A068E26908436169114308432168CA6893
:104B600049F20C639A430243CA6020684169A26912
:104B700021F440711143416131492068884202D0DB
:104B80003049884202D1FDF725F901E0FDF712F91D
:104B9000E2690023192164253226B2F5004F6268CC
:104BA00028D0A0FB0101930F9200FBF70BFB0146FD
:104BB000B0FBF5F06FF01802504301EB800006EBFC
:104BC0000010B0FBF5F000F0F002B1FBF5F002EBE5
:104BD0000012B1FBF5F06FF01803584301EB8000B1
:104BE00006EB0010B0FBF5F000F00F002168104458
:104BF000886070BDA0FB010192185B41FBF7E2FAEF
:104C00000146B0FBF5F00201B1FBF5F06FF01803BF
:104C1000584301EB800006EBC000B0FBF5F000F05C
:104C2000F80002EB4002B1FBF5F0584301EB8000C5
:104C300006EBC000B0FBF5F000F00700D6E700007F
:104C4000001001400014014038B5816282850025C2
:104C5000134604460564222084F83E00A26B1C48DB
:104C6000D063A26B1B481064A26B1B48D064A06B7E
:104C70000A4605652168A06B091DFCF715FE206832
:104C800001684068009084F83C50206948B1206871
:104C90000C3050E8001F41F4807140E80012002AF7
:104CA000F5D12068143050E8001F41F0010140E8C0
:104CB0000012002AF5D12068143050E8001F41F09E
:104CC000400140E80012002AF5D1002038BD000064
:104CD00075490008F74900082B4900082DE9F04103
:104CE000984617460E460446069D27E0681C25D0C8
:104CF0002DB1FCF725FFA0EB0800A8421ED92068C3
:104D00000C3050E8001F21F4D07140E80012002A56
:104D1000F5D12068143050E8001F21F0010140E86F
:104D20000012002AF5D1202084F83D0084F83E00CE
:104D3000002084F83C000320BDE8F0812068006872
:104D400036EA000004D00020B842CFD00020F3E7BC
:104D50000120F9E70148FDF777BE00005802002066
:104D6000FEE700002DE9F04790462DED028B8946C5
:104D700082469FED5B8AFEF715FD5A4C5A4E04F1B0
:104D8000180594ED000A594886ED050A95ED001ABC
:104D900086ED041A90ED030AF8EEC00ADFED541A0E
:104DA00006F11807B8F1000F80EEA10A87ED000A9E
:104DB000D0ED000AB8EEE02AC2EE210AC7ED010AE2
:104DC00006D106F1200080EC020A183001F05AFBEF
:104DD000454896ED041A303097EC020A01F052FB78
:104DE00041483030D0ED000AC4ED000A90ED010AD0
:104DF000083885ED000A96ED051A00F1100170EEF5
:104E0000C10A60EE880AC4ED010AD6ED040A30EE4C
:104E1000600A20EE080A85ED010A90ED000AD1ED46
:104E2000000A30EE603A90ED010AD1ED010A70EE11
:104E3000608AB0EE430AFBF773FEF0EE402AB0EE54
:104E4000680AFBF76DFEF5EEC02AB0EE408AF1EE7F
:104E500010FA07DD2348B0EE620A41460C38FEF72F
:104E6000A7FC08E0B0EE430AFBF728FE1D484146C8
:104E70000C38FFF73BF8B5EEC08AF1EE10FA07DD0B
:104E80001848B0EE480A41460C30FEF791FC08E0A5
:104E9000B0EE680AFBF712FE124841460C30FFF7ED
:104EA00025F81048D4ED001A0C3894ED011AD0ED15
:104EB000000A90ED010A5046FEF75AFC0948D5ED6C
:104EC000001A0C3095ED011AD0ED000A90ED010AA0
:104ED0004846BDEC028BBDE8F047FEF749BC000038
:104EE00000007A44EC08002068000020A40800209C
:104EF000A09105490FB4054B10B503A9044A0298C7
:104F000000F080FF10BC5DF814FB0000AD5F0008EE
:104F1000B800002003B401984100009850EAC12075
:104F200018BF04204A0D18BF40F0010040F2FF7284
:104F3000B2EB515F08BF40F00200012808BF052016
:104F400002B070470907090E002804DB00F1E020D9
:104F500080F80014704700F00F0000F1E02080F8A6
:104F6000141D7047000000002DE9F04D2DED040BDD
:104F70002DED0E8B96B0DDE92550279CDDF890A035
:104F800025F0004624F00048BAF1000F14BF0121BB
:104F9000002101EB4502FC4953184A1093422AD3E1
:104FA000002814BF0123002303EB44030B44F749FB
:104FB0008B4220D358EA00019FEDF59B76D0DFF8B5
:104FC000D8B35D4503D1BAF1000F05D188E0BAF13D
:104FD000000F08BF002100D0012101EB450111F5B0
:104FE000001F08D8002814BF0121002101EB440153
:104FF00011F5001F0BD99DED261B9DED240B16B05E
:10500000BDEC0E8B04B0BDE8F04D00F0A9BE00274A
:10501000002DBCBFE149884521DAE1498845A8BF98
:1050200002271CDAC3451ADCDE4901EB285114299A
:1050300008DDC1F1340220FA02F101FA02F28242E3
:105040000DD108E058B9C1F1140228FA02F101FAB1
:1050500002F2424503D101F00101C1F1020756EA13
:105060000A0124D1002C22DA002D18BF022F01D012
:10507000012F0AD0022000F0BFFE16B0BDEC0E8B4F
:1050800004B0BDE8F04D00F053BE022000F0B4FEC5
:1050900000F04EFE51EC100B81F0004141EC100B82
:1050A00016B0BDEC0E8B04B0BDE8F08D18E09FED9E
:1050B000BEAB9FEDBF8B002871D1B848804522D18F
:1050C00005F1804010F5801008BFBAF1000F07D03D
:1050D000B3450ADC002CA8BF9DED260BE0DA0DE0FD
:1050E000B0EE490AF0EE690ADAE7002C06DA9DED27
:1050F000260B51EC100B81F000416FE0AE48784474
:1051000090ED000BCCE7D8454DD1002C48DA2EB1FC
:1051100086423AD1BAF1000F42D126E0BAF1000F2F
:1051200013D0022000F068FE00F036FE8DED020B79
:105130009DED240B8DED000B10EE900A039961F3A9
:105140001E0003909DED020BAAE78DED02AB9DEDD5
:10515000240B1AEE901A10EE900A8DED000B61F3FD
:105160001E0003909DED020B9AE78DED028B9DEDE5
:10517000240B18EE901A10EE900A8DED000B61F3DF
:105180001E0003909DED020B8AE709DA9DED240BCA
:1051900051EC190B53EC102BFBF786F91EE020E0C5
:1051A0009DED240B7CE786421BDAB4F1804F0DD0D5
:1051B000A4F10050B0F1FF5013D1002D11DB9DED93
:1051C000240B51EC100B01F026F907E09DED240BA8
:1051D00053EC102B51EC100B00F0C2BC41EC100B47
:1051E0005EE79DED240B51EC100B00F0D3FEBAF1FD
:1051F000000FCDE90E0142D19FED710B46B3A6F130
:10520000E040B0F17F600CD05E4538D1002D00DA6F
:10521000A7B3022F0CBF01204FF0FF30FBF7B3F90B
:10522000DCE7002D01DD002C0DDA002D01DD002C66
:105230001FDB002D16DA002C14DB012F08BF9FEDB9
:10524000620B3FF42DAFB0EE4A0AF0EE6A0A27E790
:10525000022F18BF002D0CD0012F0AD1002DFFF610
:105260001FAF06E0002DB8BF002C08DA012F3FF475
:1052700017AFB0EE480AF0EE680A11E71BE0012014
:1052800000EBE57050EA070115D0791EB0EE498AAF
:10529000F0EE698A084308BF9FED4D8B4E4800250C
:1052A000804570DD4D494E48884514DDB0420DDB28
:1052B000002C19DB2FE0012000F09EFD16B0BDECA4
:1052C0000E8B04B0BDE8F04D00F056BDB34502DCD6
:1052D000002C09DC1FE0864202DA002C1BDA03E016
:1052E0005E452BDD002C16DD022000F085FD00F070
:1052F00053FD8DED020B53EC1A2B51EC180BFBF701
:1053000061F8CDE900010399019861F31E00039053
:105310009DED020BC4E6022000F06EFD00F04CFD96
:1053200010EE901A18EE900A8DED020B8DED008BA9
:1053300061F31E0003909DED020BB1E69DED0E0B97
:1053400053EC192B51EC100BFBF736F89FED260BA5
:10535000CDE9080153EC102B9DED080B51EC100B1F
:10536000FBF730F89FED221B53EC112BFBF727F8CE
:105370009DED081B53EC112BFBF724F89FED1E1B32
:1053800053EC112B3CE08CE0FFFF1F00FFFF0F00F0
:10539000000000000000F03F0000F03F0000F07F40
:1053A0000000404301FCFFFF000000000000F07F10
:1053B0000000000000000000961400000000000043
:1053C0000000000000000080000000000000F0FF6E
:1053D000000000000000F0BF0000E0410000F043CA
:1053E000FFFFEF3F00000000000000000000D03F82
:1053F000555555555555D53F000000000000E03F7C
:10540000FAF7DDFF9DED080B41EC1A0B53EC102B66
:1054100051EC100BFAF7D6FF53EC1A2BFAF7D2FF28
:1054200041EC1A0B9FEDFE0B53EC102B9DED080B7E
:1054300051EC100BFAF7C6FF41EC1B0B9FEDFA0B7A
:1054400051EC1A0B53EC102BFAF7BCFF41EC1A0B82
:105450009FEDF70B53EC102B9DED080B51EC100B4F
:10546000FAF7B0FF53EC1A2BFAF7A6FF41EC1A0B30
:1054700051EC1B0B53EC1A2BFAF7FDFE0690CDE90D
:1054800006519DED060B53EC1B2B51EC100BFAF75C
:1054900093FF53EC1A2BFAF792FF41EC100B00F03C
:1054A000A1B90020B6F5801F0EDA9FEDE30B53EC97
:1054B000102B9DED0E0B51EC100BFAF783FFCDE98D
:1054C0000E016FF034000E4600EB2650A0F2FF37BD
:1054D000C6F31300DA4940F07F6646F04056884232
:1054E000D8BF002408DDD7498142C8BF012403DCAE
:1054F0000024A6F580167F1CD348784400EBC40036
:105500000F9690ED00CB9DED0E0B53EC1C2B51EC48
:10551000100BFAF751FF9DED0E0B41EC1B0B53ECFA
:105520001C2B51EC100BFAF7A6FE41EC100B51ECC2
:10553000190B53EC102BFAF7B7FF41EC1D0B51EC94
:105540001B0B53EC1D2BFAF73DFF41EC1A0BBF4828
:105550008DED10AB7844109590ED000B4FF000509E
:1055600040EA660000EB84408DED080B00F500205A
:1055700009909DED080B53EC1C2B51EC100BFAF726
:105580001BFF9DED0E1B53EC112BFAF718FF41EC9E
:10559000100B53EC102B9DED100B51EC100BFAF788
:1055A00011FF9DED080B41EC1C0B53EC102B9DEDF6
:1055B000100B51EC100BFAF705FF53EC1B2BFAF70D
:1055C000FEFE53EC1C2BFAF7F7FE53EC1D2BFAF7FB
:1055D000F9FE41EC1C0B53EC1A2B51EC1A0BFAF7A9
:1055E000F1FE41EC1B0B9A480621B0EE4B0AF0EE9F
:1055F0006B0A784400F01DFBB0EE401AF0EE601A22
:10560000B0EE41DAF0EE61DA53EC1B2B51EC1B0BE0
:10561000FAF7D8FE53EC1D2BFAF7D4FE9DED100BD4
:1056200041EC1B0B53EC1A2B51EC100BFAF723FE39
:1056300053EC1C2BFAF7C6FE53EC1B2BFAF71BFEA0
:105640009DED100B41EC1B0B53EC102B51EC100B90
:10565000FAF7B8FE41EC1D0B9FED7FEB53EC1E2BD0
:10566000FAF709FE53EC1B2BFAF705FE0890CDE97B
:1056700008519DED080B53EC1E2B51EC100BFAF763
:105680009BFE53EC1D2BFAF797FE53EC1B2BFAF7FE
:1056900096FE9DED080B41EC1D0B53EC102B9DED80
:1056A000100B51EC100BFAF78DFE41EC1B0B53EC79
:1056B0001A2B51EC1D0BFAF785FE9DED080B41EC02
:1056C0001A0B53EC102B51EC1C0BFAF77BFE53EC2E
:1056D0001A2BFAF7D0FD41EC1A0B51EC1B0B53ECD3
:1056E0001A2BFAF7C8FD0C90CDE90C519DED0C0B6F
:1056F00053EC1B2B51EC100BFAF75EFE53EC1A2BFC
:10570000FAF75DFE41EC1B0B9FED550B53EC102B94
:105710009DED0C0B51EC100BFAF754FE41EC1A0BFB
:105720009FED510B51EC1B0B53EC102BFAF74AFE7B
:1057300041EC1B0B9FED4E0B53EC102B9DED0C0B16
:1057400051EC100BFAF73EFE53EC1B2BFAF793FDCE
:1057500041EC100B4848784400EBC40090ED001B6E
:1057600051EC100B53EC112BFAF785FD41EC1B0BA0
:105770003846FAF708FFCDE9080153EC1B2B51EC32
:105780001A0BFAF778FD41EC100B3C48784400EB1B
:10579000C40090ED00CB51EC100B53EC1C2BFAF72E
:1057A0006AFD9DED081B53EC112BFAF764FD069082
:1057B000CDE906519DED080B53EC102B9DED060B2A
:1057C00051EC100BFAF7F8FD53EC1C2BFAF7F4FD33
:1057D00053EC1A2BFAF7F0FD53EC1B2BFAF7EFFD05
:1057E00041EC100B9DED261B53EC102B8DED001B97
:1057F00000959DED260B51EC100BFAF7E3FD9DEDA6
:10580000000B41EC1A0B53EC102B9DED260B51ECC9
:10581000100BFAF7D1FD9DED061B53EC112B2FE079
:10582000000000604715F73FFE822B654715F73FE4
:1058300044DF5DF80BAE543E000000000000404322
:105840008E9803007AB60B00121000004010000082
:105850004A0F0000000000000000000000000840A7
:10586000000000E009C7EE3FFD033ADC09C7EE3F48
:10587000F5015B14E02F3EBED60D0000900D000038
:10588000FAF7A0FD53EC1A2BFAF7F5FC9DED060B89
:1058900041EC1A0B53EC102B9DED000B51EC100B4F
:1058A000FAF790FDCDE90C019DED0C0B51EC1A0BB4
:1058B00053EC102BFAF7DFFCCDE902010C46AA49A4
:1058C0008C422FDB611A084318D19DED0C0B53EC71
:1058D000102B9DED020B51EC100BFAF76DFD41EC16
:1058E0001B0B9FEDA30B51EC1A0B53EC102BFAF78B
:1058F000C2FC53EC1B2BFAF76BFE2DD2022000F0FA
:105900007BFA00F049FA10EE901A18EE900A8DED2D
:10591000020B8DED008B61F31E0003909DED020BD9
:10592000FFF7BEBB944A24F00041914214D393493F
:10593000214408437FF4EFAC9DED0C0B53EC102B8E
:105940009DED020B51EC100BFAF736FD53EC1A2BC0
:10595000FAF73EFE7FF6DFAC24F000408849894A22
:10596000002601EB205182422BDA481C4FF48011B3
:1059700021FA00F02044844AC0F30A517A44A1F28B
:10598000FF3192ED000B814A8DED080BCA4020EAF1
:105990000202C0F3130040F48010C1F1140120FA98
:1059A00001F60992002CB8BF76429DED080B53EC2E
:1059B000102B9DED0C0B51EC100BFAF7FDFCCDE913
:1059C0000C019DED0C0B51EC1A0B53EC102BFAF75C
:1059D00052FC9FED6F0B0890CDE9085153EC102B52
:1059E0009DED080B51EC100BFAF7ECFC41EC1B0B96
:1059F0009FED690B53EC102B9DED080B51EC100B38
:105A0000FAF7E0FC9DED0C0B41EC1C0B53EC102B5A
:105A10009DED080B51EC100BFAF7CEFC53EC1A2B52
:105A2000FAF7CDFC9FED5E1B53EC112BFAF7CAFC85
:105A300053EC1C2BFAF71FFC41EC1A0B51EC1B0B1F
:105A400053EC1A2BFAF717FCCDE902019DED020B7E
:105A500053EC1B2B51EC100BFAF7AEFC53EC1A2B4A
:105A6000FAF7ADFC9DED020B41EC1A0B53EC102B39
:105A700051EC100BFAF7A6FCCDE908014A489DED60
:105A8000080B0521784400F0D4F89DED081B51EC7B
:105A9000100B53EC112BFAF795FC9DED021B53EC08
:105AA000112BFAF78CFCCDE906019DED020B53ECAE
:105AB0001A2B51EC100BFAF785FC53EC1A2BFAF762
:105AC000DAFB9FED3B0B41EC1A0B53EC102B9DEDD9
:105AD000060B51EC100BFAF76FFC9DED060B41EC39
